:020000040800F2
:1000000048DC0020610200085D25000891210008FD
:1000100041250008F50300081D2F0008000000001E
:10002000000000000000000000000000A101000826
:100030002305000800000000FD01000861250008FC
:100040007B0200087B0200087B0200087B0200089C
:100050007B0200087B0200087B0200087B0200088C
:100060007B0200087B0200087B0200087B0200087C
:100070007B0200087B0200087B0200087B0200086C
:100080007B0200087B0200087B0200087B0200085C
:100090007B0200087B0200087B0200087B0200084C
:1000A0007B020008652600087B0200087B0200082E
:1000B0007B0200087B0200087B0200087B0200082C
:1000C0007B0200087B0200087B0200087B0200081C
:1000D0007B020008092F00087B0200087B02000851
:1000E0007B0200087B0200087B0200087B020008FC
:1000F0007B0200087B0200087B0200087B020008EC
:100100007B0200087B0200087B0200087B020008DB
:100110007B0200087B0200087B0200087B020008CB
:100120007B0200087B020008F90300087B0200083C
:100130007B0200087B0200087B0200087B020008AB
:100140007B0200087B0200087B0200087B0200089B
:100150007B0200087B020008090400087B020008FB
:100160007B0200087B0200087B0200087B0200087B
:100170007B0200087B0200087B02000800000000F0
:100180007B0200087B020008DFF810D000F020F9A5
:10019000004800479D440008AFF3008048DC002081
:1001A0002C4B19680868B0E8F04F80F30988BFF35A
:1001B0006F8F4FF0000080F311887047000000003F
:1001C00008480068006880F308884FF0000080F35A
:1001D000148862B661B6BFF34F8FBFF36F8F00DF35
:1001E00000BF00BF08ED00E0DFF80C00016841F43B
:1001F00070010160704700BF88ED00E0EFF30980F7
:10020000BFF36F8F134B1A681EF0100F08BF20ED5D
:10021000108A20E9F04F106009B44FF0500080F3CD
:100220001188BFF34F8FBFF36F8F05F013FE4FF0B0
:10023000000080F3118809BC19680868B0E8F04F25
:100240001EF0100F08BFB0EC108A80F30988BFF3CE
:100250006F8F704734000020EFF305807047000077
:100260000648804706480047FEE7FEE7FEE7FEE750
:10027000FEE7FEE7FEE7FEE7FEE7FEE749260008A9
:10028000890100082DE9F05F0546002092469B4653
:1002900088460646814640241BE02846414647469C
:1002A000224600F085F853465A46C01A914110D3B1
:1002B00011461846224600F06CF82D1A67EB01082B
:1002C0004F4622460120002100F063F817EB000999
:1002D0004E41201EA4F10104DFDC484631462A4687
:1002E0004346BDE8F09F10B5441A0346944209D234
:1002F0008418114403E011F8013D04F8013D521E39
:10030000F9D210BD40EA0104A40703D009E010C9E6
:10031000121F10C3042AFAD203E011F8014B03F8AC
:10032000014B521EF9D210BDD2B201E000F8012BF0
:10033000491EFBD270470022F6E710B513460A4665
:1003400004461946FFF7F0FF204610BD421C10F886
:10035000011B0029FBD1801A704730B504460020EC
:10036000034600E05B1C934203D2E05CCD5C401B83
:10037000F8D030BD30B505460020034600E05B1CD8
:10038000934205D2EC5CC85C201A01D1002CF6D156
:1003900030BD202A04DB203A00FA02F10020704729
:1003A0009140C2F1200320FA03F3194390407047B3
:1003B000202A04DB203A21FA02F00021704721FABA
:1003C00002F3D040C2F12002914008431946704721
:1003D000064C074D06E0E06840F0010394E8070092
:1003E00098471034AC42F6D3FFF7D2FE48720008AB
:1003F0006872000800BFFEE710B5024800F0C6F9B9
:1004000010BD00005C07002010B5024800F0BEF9E6
:1004100010BD0000BC0700200146087810381823E2
:10042000B0FBF3F20848805CC865032A05D9086868
:100430006FF30900001D886503E008686FF3090089
:100440008865886D70470000586F000801460020DD
:100450008A6A8B69CBB932B1012A0DD0022A03D046
:10046000032A10D10EE000BFCB6A03F08073B3F112
:10047000807F00D1012007E0CB6AB3F1C07F00D1BB
:10048000012001E000E000BF34E08B69B3F5005FBC
:100490001AD132B1012A07D0022A03D0032A11D17E
:1004A0000AE000BF01200EE0CB6A03F08073B3F1D5
:1004B000807F00D1012006E0CB6AB3F1C07F00D17C
:1004C000012000E000BF15E032B1012A05D0022A68
:1004D00004D0032A0CD103E000BF00BF012008E0D4
:1004E000CB6A03F08073B3F1807F00D1012000E07C
:1004F00000BF00BF704730B50468246824F480242E
:1005000005682C60046863608468402C04D104682A
:10051000A2600468E16003E00468A1600468E2602E
:1005200030BD704738B504464FF47A71206E4843A9
:10053000B0FBF1F5009500231A460521206D06F069
:1005400073FC38BD03F034FD00BF012004F074FAE1
:10055000FBE74FF4FA6005F09DFB02F07DFE00BF63
:10056000012004F069FAFBE772B600BFFEE7000065
:1005700070B504461D460023B5F5804F13D154F8DD
:1005800022300C480340D1E9000640EA06108E688C
:1005900040EA06208E8940EA06408E6930430343D4
:1005A00044F8223003E06FF0704044F8220000204D
:1005B00070BD00000000F0CF10B5034600220868AF
:1005C00053F8202012480240D1E901042043CC68AE
:1005D00020430C6920434C6920438C692043CC693B
:1005E00020430C6A20434C6A20438C6A2043CC6A27
:1005F0002043CC6B20430C6B2043024388680828BF
:1006000001D142F04002086843F82020002010BDCC
:100610008000F0FF30B503460024501C53F8204002
:1006200004F04044D1E9000540EA05108D6840EA35
:1006300005208D8940EA0545088A401E45EA005597
:10064000087D801E45EA00608D6928430443501CE4
:1006500043F82040002030BD00BF012004F0ECF939
:10066000FBE710B504460CB9012010BD607920B934
:1006700000202071204600F005F801206071002064
:10068000F3E7000008B50A4A016891420FD100BFA4
:10069000002100910749096841F48051054A116021
:1006A0001146096801F48051009100BF00BF08BDE8
:1006B000003002403038024070B50446A56D00F0AD
:1006C000ADFB064694F83500022808D0802060650E
:1006D00000BF002084F8340000BF012070BD2068F6
:1006E000006820F01600216808602068406920F04A
:1006F000800021684861206C08B9A06C28B120688E
:10070000006820F00800216808602068006820F078
:100710000100216808600FE000F080FB801B0528C5
:100720000AD92020606500BF002084F8340000BF93
:10073000032084F83500D1E72068006800F001004C
:100740000028E9D194F85C103F208840A86000BFE1
:10075000002084F8340000BF012084F83500002018
:10076000BCE7014691F83500022803D08020486597
:1007700001207047052081F835000868006820F0E6
:1007800001000A6810600020F3E70000F8B5044695
:10079000002000908C4800684FF41651B0FBF1F730
:1007A000A56D2E6894F85C1008208840304098B100
:1007B0002068006800F0040070B12068006820F034
:1007C00004002168086094F85C1008208840A86044
:1007D000606D40F00100606594F85C100120884075
:1007E000304068B12068406900F0800040B194F862
:1007F0005C1001208840A860606D40F002006065D8
:1008000094F85C1004208840304068B1206800688B
:1008100000F0020040B194F85C1004208840A86009
:10082000606D40F00400606594F85C101020884012
:10083000304078B32068006800F0080050B394F8A6
:100840005C1010208840A8602068006800F48020B8
:1008500080B12068006800F4002028B9206CC8B17D
:100860002046216C884715E0A06C98B12046A16C09
:1008700088470FE02068006800F4807028B920687D
:10088000006820F0080021680860206C10B1204644
:10089000216C884794F85C10202088403040002864
:1008A00065D02068006800F0100000285FD094F840
:1008B0005C1020208840A86094F83500052828D1D5
:1008C0002068006820F016002168086020684069F0
:1008D00020F0800021684861206C08B9A06C28B124
:1008E0002068006820F008002168086094F85C1017
:1008F0003F208840A86000BF002084F8340000BF7B
:10090000012084F83500206D10B12046216D884704
:10091000F8BD2068006800F4802080B1206800687D
:1009200000F4002028B9606C10B12046616C884743
:100930001DE0E06BD8B12046E16B884717E02068E6
:10094000006800F4807068B92068006820F010002A
:100950002168086000BF002084F8340000BF012037
:1009600084F83500E06B10B12046E16B8847606D7C
:1009700038B3606D00F00100F0B1052084F8350057
:100980002068006820F001002168086000BF00981E
:10099000401C0090B84200D905E02068006800F0D3
:1009A00001000028F3D100BF00BF002084F834000C
:1009B00000BF012084F83500E06C10B12046E16CE6
:1009C000884700BFA4E70000300000202DE9F04177
:1009D0000446002500F022FA074614B90120BDE8BC
:1009E000F081606A00B100BF00BF002084F83400CD
:1009F00000BF022084F835002068006820F0010064
:100A0000216808600AE000F009FAC01B052805D932
:100A100020206065032084F83500E0E72068006846
:100A200000F001000028EED120680568214805404B
:100A3000D4E901010843E168084321690843616979
:100A40000843A1690843E1690843216A0843054353
:100A5000606A042803D1D4E90B01084305432068E8
:100A600005602068456925F00705606A0543606AEE
:100A700004280DD1A06A0543E06A48B12046FFF77B
:100A8000E5FC28B140206065012084F83500A6E728
:100A9000206845612046FFF7BFFC064694F85C10CD
:100AA0003F208840B06000206065012084F8350058
:100AB000002094E73F8010F02DE9F04704460D46F2
:100AC00016461F464FF00008D4F8589000BF94F81F
:100AD0003400012802D10220BDE8F087012084F80B
:100AE000340000BF94F83500012825D1022084F895
:100AF0003500002060653B46324629462046FFF718
:100B0000FAFC94F85C103F208840C9F8080020687F
:100B1000006840F0160021680860206C28B1206849
:100B2000006840F00800216808602068006840F014
:100B300001002168086006E000BF002084F834004E
:100B400000BF4FF002084046C6E7000000B587B07E
:100B5000142102A8FFF7EFFB2A48006808B107B08C
:100B600000BD01202749086000BF002001902648F1
:100B7000006840F00100244908600846006800F061
:100B80000100019000BF00BF4FF23F000290022021
:100B9000039000200490032005900C20069002A9E9
:100BA0001A4800F03BF841F23F40029002200390C7
:100BB00000200490032005900C20069002A9144800
:100BC00000F02CF84FF68370029002200390002072
:100BD0000490032005900C20069002A90D4800F017
:100BE0001DF84DF63370029002200390002004900F
:100BF000032005900C20069002A9074800F00EF88B
:100C000000BFACE71C00002038380240001402404E
:100C10000018024000100240000C0240F8B50246E5
:100C20000B460025002400200021DCE0012606FA06
:100C300001F51E6806EA0504AC4273D15E68012E18
:100C400008D05E68022E05D05E68112E02D05E6864
:100C5000122E13D190684F000326BE40B0434F00C0
:100C6000DE68BE4030439060506801268E40B0433D
:100C70001E79C6F300168E4030435060D0684F0096
:100C80000326BE40B0434F009E68BE403043D06054
:100C90005E68022E02D05E68122E13D1CF0802F1D8
:100CA000200656F827004E07F70E0F26BE40B04329
:100CB0004F07FF0E1E69BE403043CF0802F12006E9
:100CC00046F8270010684F000326BE40B0431E7947
:100CD00006F003064F00BE40304310605E6806F029
:100CE0008056B6F1805F7DD100BF00260096404E51
:100CF000366846F480463E4F3E603E46366806F40F
:100D00008046009600BF00BF3A4E8F0856F8270075
:100D10008E07370F0F26BE40B043374EB24202D186
:100D2000002624E05EE0354EB24201D101261EE0ED
:100D3000334EB24201D1022619E0324EB24201D105
:100D4000032614E0304EB24201D104260FE02F4EAC
:100D5000B24201D105260AE02D4EB24201D106264B
:100D600005E02C4EB24201D1072600E008268F078D
:100D70003F0FBE4030431F4E8F0846F82700264ED7
:100D80003068A0435E6806F48036B6F5803F00D137
:100D90002043214E3060361D3068A0435E6806F463
:100DA0000036B6F5003F00D120431B4E361D3060A3
:100DB000361D3068A0435E6806F48016B6F5801FC5
:100DC00000D12043144E08363060361D3068A043F1
:100DD0005E6806F40016B6F5001F00D120430E4EE3
:100DE0000C363060491C1029FFF420AFF8BD00001C
:100DF000443802400838014000000240000402402C
:100E000000080240000C02400010024000140240A2
:100E100000180240001C0240003C014001480068EC
:100E20007047000024000020034800680349097847
:100E30000844014908607047240000202C0000206D
:100E400010B50D48006840F400700B490860084672
:100E5000006840F4806008600846006840F48070D4
:100E60000860032000F0C8F8002000F007F800F048
:100E70004BF8002010BD0000003C024070B588B067
:100E800004460025002600222146192000F076F8AD
:100E9000192000F063F800BF002001901648006898
:100EA00040F00100144908600846006800F00100A5
:100EB000019000BF00BF02A903A800F073F900F081
:100EC000A9F945000D48B5FBF0F0461E0C480D4948
:100ED000086040F2E7310B48C160466000210161C3
:100EE000816000F076FC20B9064800F08DFC08B067
:100EF00070BD0120FBE700004438024040420F0073
:100F0000000001401C08002008B500BF0020009030
:100F10001148006840F480400F49086008460068A6
:100F200000F48040009000BF00BF00BF0020009090
:100F3000081F006840F08050091F086008460068DC
:100F400000F08050009000BF00BF00220F21901ED3
:100F500000F014F808BD000044380240014608467D
:100F6000002809DB00F01F0301229A4043099B007F
:100F700003F1E023C3F8002100BF70472DE9F05FC3
:100F800080460D461646002701F0DAFF074639462F
:100F90002A46334601F00700C0F1070ABAF1040FF0
:100FA00002D94FF0040A01E0C0F1070AD14600F16E
:100FB000040ABAF1070F02D24FF0000A01E0A0F1D3
:100FC000030AD4464FF0010A0AFA09FAAAF1010A03
:100FD0000AEA020A0AFA0CFA4FF0010B0BFA0CFBB0
:100FE000ABF1010B0BEA030B4AEA0B042146404626
:100FF00001F0AEFFBDE8F09F00BF00F00702064B16
:1010000019684FF6FF031940044B0B4343EA0221D2
:10101000014B196000BF70470CED00E00000FA05BD
:1010200070B504460D460CB9012070BD58480068E3
:1010300000F00F00A84209D255490D70084600681B
:1010400000F00F00A84201D00120EEE7207800F068
:10105000020002281DD1207800F00400042805D1E8
:101060004C48006840F4E0504A490860207800F09D
:101070000800082805D14748006840F46040454909
:1010800008604448006820F0F000A1680843414926
:101090000860207800F00100A8B36068012807D13B
:1010A0003C4808380068C0F34040B8B90120BCE7AC
:1010B0006068022802D06068032807D135480838E4
:1010C0000068C0F3406048B90120AEE731480838F5
:1010D0000068C0F3400008B90120A6E72D48006869
:1010E00020F00300616808432A490860FFF796FE74
:1010F000064609E0FFF792FE801B41F288318842E4
:1011000002D9032091E707E02248006800F00C00B4
:101110006168B0EB810FEDD11D48006800F00F0051
:10112000A84209D91A490D700846006800F00F005E
:10113000A84201D0012078E7207800F004000428BC
:1011400007D11448006820F4E050E16808431149D1
:101150000860207800F00800082808D10D480068D1
:1011600020F46040216940EAC1000A49086000F0AB
:1011700061F808490968C1F30311074A515CC84086
:101180000649086006480068FFF778FE00204CE733
:10119000003C024008380240606F00083000002028
:1011A000280000200F2202600D4A126802F003029C
:1011B00042600B4A126802F0F0028260084A12682C
:1011C00002F4E052C260064A126802F46042D20899
:1011D0000261044A126802F00F020A6070470000C0
:1011E00008380240003C0240014800687047000097
:1011F0003000002000B5FFF7F7FF04490968C1F38C
:101200008221034A515CC84000BD000008380240FA
:10121000706F000800B5FFF7E7FF04490968C1F3E4
:101220004231034A515CC84000BD0000083802400A
:10123000706F00082DE9F047002400250026A14624
:101240002548006800F00C0020B1042805D00828CB
:101250003AD105E0DFF8849039E0DFF8849036E099
:101260001D48001F006800F03F041B48001F006875
:1012700000F4800078B11A481749091F0968C1F3C2
:101280008811A0FB01700146224600233846FEF774
:10129000F9FF05460EE011480F49091F0968C1F31F
:1012A0008811A0FB01700146224600233846FEF754
:1012B000E9FF05460848001F0068C0F30140401CD4
:1012C0004600B5FBF6F902E0DFF8109000BF00BF62
:1012D0004846BDE8F0870000083802400024F400CA
:1012E00000127A00F8B504460CB90120F8BD207848
:1012F00000F00100002874D0F948006800F00C00EC
:1013000004280DD0F648006800F00C00082813D11E
:10131000F348001F006800F48000B0F5800F0BD187
:10132000EF4808380068C0F34040002859D0606892
:10133000002856D10120D9E700BF6068B0F5803F92
:1013400008D1E7480838006840F48030E44908399B
:1013500008601EE06068B0F5A02F0DD1E0480838A5
:10136000006840F48020DE490839086008460068BB
:1013700040F4803008600CE0D9480838006820F458
:101380008030D749083908600846006820F480207A
:10139000086000BF606890B1FFF740FD054606E0B9
:1013A000FFF73CFD401B642801D903209EE7CC4891
:1013B00008380068C0F340400028F1D011E0FFF782
:1013C0002DFD054606E0FFF729FD401B642801D9E5
:1013D00003208BE7C24808380068C0F3404000286B
:1013E000F1D1207800F0020002285FD1BC480068EB
:1013F00000F00C0058B1BA48006800F00C00082852
:101400001CD1B748001F006800F48000B0B9B44890
:1014100008380068C0F3400020B1E068012801D01E
:10142000012063E7AE480838006820F0F800216921
:1014300040EAC100AA490839086037E0E06800B313
:101440000120A8490860FFF7E9FC054606E0FFF720
:10145000E5FC401B022801D9032047E7A0480838D3
:101460000068C0F340000028F1D09D4808380068AB
:1014700020F0F800216940EAC10099490839086064
:1014800014E0002097490860FFF7C8FC054606E015
:10149000FFF7C4FC401B022801D9032026E790482F
:1014A00008380068C0F340000028F1D1207800F02F
:1014B000080008282CD16069A8B101208A49086079
:1014C000FFF7ACFC054606E0FFF7A8FC401B02282E
:1014D00001D903200AE782486C300068C0F340005D
:1014E0000028F1D014E000207F490860FFF796FC47
:1014F000054606E0FFF792FC401B022801D90320B5
:10150000F4E677486C300068C0F340000028F1D161
:10151000207800F00400042870D10027704838308B
:10152000006800F0805090B900BF002000906C4827
:101530003830006840F0805069493831086008460A
:10154000006800F08050009000BF00BF012767488E
:10155000006800F48070B0B96448006840F480709E
:1015600062490860FFF75AFC054606E0FFF756FCA3
:10157000401B022801D90320B8E65C48006800F44B
:1015800080700028F2D000BFA068012808D154481C
:101590006830006840F001005149683108601DE082
:1015A000A06805280DD14E486830006840F004005E
:1015B0004B49683108600846006840F00100086047
:1015C0000CE047486830006820F001004449683169
:1015D00008600846006820F00400086000BFA068AA
:1015E000A8B1FFF71BFC054609E0FFF717FC401BFD
:1015F00041F28831884202D9032077E626E0384854
:1016000068300068C0F340000028EED013E0FFF718
:1016100005FC054608E0FFF701FC401B41F288315C
:10162000884201D9032061E62D4868300068C0F384
:1016300040000028EFD1012F07D129483830006839
:1016400020F0805026493831086000BFA06900288A
:1016500045D02348006800F00C0008285DD0A06940
:10166000022845D100201F490866FFF7D7FB054631
:1016700006E0FFF7D3FB401B022801D9032035E623
:10168000174808380068C0F340600028F1D1D4E959
:1016900007010843616A40EA81110122A06AC2EB96
:1016A000500041EA00412C20005D41EA00600C49F5
:1016B000091F086001200B490866FFF7AFFB0546CC
:1016C00006E0FFF7ABFB401B022801D903200DE623
:1016D000034808380068C0F340600028F1D03FE0BC
:1016E0000838024000004742800E47420070004028
:1016F00000201C490866FFF791FB054606E0FFF74E
:101700008DFB401B022801D90320EFE51648006835
:10171000C0F340600028F2D122E0A069012800D186
:10172000E4E51148001D066806F48001E069814285
:1017300014D106F03F01206A81420FD147F6C070F4
:101740003040616A884209D106F44031A06A814282
:1017500004D106F07061E06A814201D00120C5E544
:101760000020C3E5000047420038024070B504463F
:101770000E4615460CB9012070BD94F8490028B9F1
:10178000002084F84800204600F01CF804F108010D
:101790002068FEF711FF3146A2682068FEF73AFF85
:1017A0002946236BD4E90102FEF7E2FEA168206816
:1017B00050F8210040F00100A268216841F82200A1
:1017C0000020D9E710B50446FFF7C0F910BD7047F7
:1017D000704710B504460CB9012010BD94F83D00C7
:1017E00028B9002084F83C00204600F00CF80220C4
:1017F00084F83D00211D206800F03CFF012084F8A2
:101800003D000020E9E7704701460868C06840F0E5
:1018100001000B68D8600868806800F00702062A9B
:1018200005D00868006840F001000B6818600020CF
:101830007047704710B5044620680069C0F3400047
:10184000D8B12068C068C0F34000B0B16FF00200AA
:1018500021680861012020772068806900F003007A
:1018600018B12046FFF7E5FF05E0204600F0E0F85C
:10187000204600F097F90020207720680069C0F327
:101880008000D8B12068C068C0F38000B0B16FF0AC
:10189000040021680861022020772068806900F434
:1018A000407018B12046FFF7C4FF05E0204600F065
:1018B000BFF8204600F076F9002020772068006904
:1018C000C0F3C000D8B12068C068C0F3C000B0B198
:1018D0006FF0080021680861042020772068C06943
:1018E00000F0030018B12046FFF7A3FF05E02046F3
:1018F00000F09EF8204600F055F90020207720687F
:101900000069C0F30010D8B12068C068C0F30010AF
:10191000B0B16FF0100021680861082020772068BE
:10192000C06900F4407018B12046FFF782FF05E05F
:10193000204600F07DF8204600F034F900202077A2
:101940002068006900F0010058B12068C06800F00C
:10195000010030B16FF0010021680861204600F0FD
:1019600023F920680069C0F3C01058B12068C0682E
:10197000C0F3C01030B16FF08000216808612046CC
:10198000FFF725FF20680069C0F3801058B1206878
:10199000C068C0F3801030B16FF04000216808616A
:1019A000204600F00DF920680069C0F3401058B1DE
:1019B0002068C068C0F3401030B16FF0200021688B
:1019C00008612046FFF704FF10BD000010B586B087
:1019D0000446142101A8FEF7AEFC12492068884293
:1019E0001DD100BF002000900F48006840F00200A9
:1019F0000D4908600846006800F00200009000BF32
:101A000000BF4FF40040019002200290002003909C
:101A100004900920059001A90448FFF7FFF806B0DB
:101A200010BD0000001800403038024000040240A1
:101A3000704770B504460D46164600BF94F83C004A
:101A4000012801D1022070BD012084F83C0000BFB4
:101A5000022084F83D0036B1042E1BD0082E31D070
:101A60000C2E5ED145E02946206800F06FFE20680C
:101A7000806940F00800216888612068806920F052
:101A80000400216888612068806929690843216809
:101A9000886147E02946206800F090FE2068806950
:101AA00040F40060216888612068806920F48060CB
:101AB0002168886120688069296940EA01202168DD
:101AC00088612FE02946206800F0B6FE2068C069D2
:101AD00040F008002168C8612068C06920F0040057
:101AE0002168C8612068C069296908432168C86104
:101AF00018E02946206800F0DBFE2068C06940F449
:101B000000602168C8612068C06920F48060216895
:101B1000C8612068C069296940EA01202168C8615C
:101B200000E000BF00BF012084F83D0000BF00209E
:101B300084F83C0000BF00BF85E710B504460CB92F
:101B4000012010BD94F83D0028B9002084F83C0025
:101B5000204600F00DF8022084F83D00211D206889
:101B600000F088FD012084F83D000020E9E7000036
:101B700008B50A4A016891420FD100BF00210091C7
:101B80000749096841F04001054A1160114609689A
:101B900001F04001009100BF00BF08BD00180040E7
:101BA000403802407047000010B5044603492068E1
:101BB000884201D1FFF738F910BD00000000014054
:101BC000704770B50446002520684069C0F3C01511
:101BD00094F8390021280ED16DB12068406920F0B9
:101BE000800021684861206B10B1206BFEF764FD16
:101BF000204600F003FF20684069C0F3801594F888
:101C00003A0022280ED16DB12068406920F04000D2
:101C100021684861606B10B1606BFEF74DFD204696
:101C200000F0CCFE002070BD704700002DE9F047A9
:101C30000446206805682068C668206847694FF038
:101C40000008C14605F00F08B8F1000F0AD105F0F1
:101C5000200038B106F0200020B1204600F0D8FE68
:101C6000BDE8F087B8F1000F72D007F0010018B995
:101C700006F4907000286BD005F0010030B106F436
:101C8000807018B1E06B40F00100E06305F00400E3
:101C900030B107F0010018B1E06B40F00200E063E2
:101CA00005F0020030B107F0010018B1E06B40F020
:101CB0000400E06305F0080048B106F0200010B908
:101CC00007F0010018B1E06B40F00800E063E06B42
:101CD00070B305F0200028B106F0200010B12046B6
:101CE00000F096FE20684069C0F38019E06B00F0B8
:101CF000080010B9B9F1000F23D0204600F05EFEB5
:101D00002068406900F04000402816D120684069F2
:101D100020F0400021684861606B50B11748616B4A
:101D20000865606BFEF71DFD10B1606B016D8847A3
:101D30000CE02046FFF778FF08E02046FFF774FF2D
:101D400004E02046FFF770FF0020E06388E7FFE72C
:101D500005F0800030B106F0800018B1204601F097
:101D60009FF87DE705F0400030B106F0400018B163
:101D7000204600F033FE73E700BF71E70529000835
:101D800010B504460CB9012010BDA06900B100E0F7
:101D900000BF94F8390028B9002084F838002046A4
:101DA00000F028F8242084F839002068C06820F466
:101DB00000502168C860204600F07EFE206800695F
:101DC00020F49040216808612068406920F02A00D2
:101DD000216848612068C06840F400502168C860EC
:101DE0000020E063202084F8390084F83A000020C5
:101DF000CAE7000010B586B00446142101A8FEF71A
:101E00009AFA85492068884279D100BF0020009065
:101E10008248006840F01000804908600846006869
:101E200000F01000009000BF00BF00BF0020009035
:101E30007A481438006840F0010078491439086085
:101E40000846006800F00100009000BF00BF4FF49A
:101E5000C0600190022002900020039003200490B3
:101E60000720059001A96E48FEF7D8FE6D486E491F
:101E700008604FF00060486000216B488160C160DD
:101E80004FF480610161002141618161C1614FF4C2
:101E90008031016200214162FEF798FD08B1FEF732
:101EA00063FB00BF60486063846300BF5D487830B7
:101EB0005E4908604FF00060486040215B488160E7
:101EC0000021C1604FF480610161002141618161A5
:101ED000C16101624162FEF779FD08B1FEF744FB82
:101EE00000BF52482063846300BF002205212520E3
:101EF000FFF744F82520FFF731F88BE0FFE74C4966
:101F0000206888424FD100BF002000904348001F46
:101F1000006840F400304149091F08600846006825
:101F200000F40030009000BF00BF00BF0020009010
:101F30003A481438006840F0010038491439086004
:101F40000846006800F00100009000BF00BF00BF1D
:101F5000002000900846006840F00800086008462D
:101F6000006800F00800009000BF00BF042001904E
:101F70000220029000200390032004900720059087
:101F800001A92748FEF74AFE402001900220029056
:101F900000200390032004900720059001A9254804
:101FA000FEF73CFE36E024492068884232D100BF6B
:101FB000002000901948001F006840F48020174955
:101FC000091F08600846006800F48020009000BFE8
:101FD00000BF00BF0020009010481438006840F097
:101FE00002000E49143908600846006800F002003B
:101FF000009000BF00BF4FF44060019002200290AB
:1020000000200390032004900720059001A90B48AD
:10201000FEF704FE06B010BD001001404438024037
:1020200000000240406402405C070020BC07002022
:1020300000440040000C0240004800400004024000
:1020400077B581B00446154694F83A00202850D15F
:10205000029800B115B9012004B070BD00BF94F81A
:102060003800012801D10220F6E7012084F8380069
:1020700000BF0298A062A5850020E063222084F8BA
:102080003A001D48616BC8631C48616B08641C48BA
:10209000616BC8640020616B086502AE326823681A
:1020A000191D2B46606BFEF707FD00BF0020009056
:1020B00020680068009020684068009000BF00BF62
:1020C00000BF002084F8380000BF2068C06840F4DA
:1020D00080702168C8602068406940F00100216874
:1020E00048612068406940F0400021684861002054
:1020F000B2E70220B0E7000069290008AF29000814
:10210000192900081D4A0168914236D11C490988E5
:1021100001F4004189BB1A49098801F4804171B179
:10212000184909780A2903D00021154A118024E0B2
:102130001349098841F40041114A11801DE01149F9
:1021400009780D2906D10E49098841F480410C4ACD
:10215000118012E00B490978094A1288C2F30D0276
:10216000094B995406490988491C054A11801146B2
:102170000988C72901DD0021118070470010014046
:10218000040100200601002000CB002070477047AA
:1021900000BFFEE710B50548054908600846FEF790
:1021A00060FA08B1FEF7E0F910BD0000003002400F
:1021B0001400002008B500BF002000900E48006801
:1021C00040F480000C4908600846006800F4800074
:1021D000009000BF00BF002205213A20FEF7CEFE8E
:1021E0003A20FEF7BBFE002205214620FEF7C6FE80
:1021F0004620FEF7B3FE08BD3038024000B59DB062
:102200001C22184916A8FEF76EF8002116A802F045
:1022100024FC154908601C2212491C310FA8FEF746
:1022200062F800210FA802F018FC104908601C2277
:102230000C49383108A8FEF756F8002108A802F02A
:102240000CFC0B4908601C220649543101A8FEF71A
:102250004AF8002101A802F000FC064908601DB000
:1022600000BD0000E86E0008040000200800002007
:102270000C0000201000002000B587B01C2168462B
:10228000FEF759F84FF02040314908603148486066
:102290000420886000212E48C16001611021416145
:1022A00000218161C161016241624FF4805181620C
:1022B0000021C16201634163816341640220009097
:1022C0000F200190052002900F2003901020049011
:1022D0001120059000200690002269461C48FFF757
:1022E00045FA08B1FEF740F94FF020401A4908605E
:1022F000184848600620886000211748C1600161C5
:102300001021416100218161C161016241624FF48C
:10231000805181620021C162016341638163416434
:10232000022000900F200190052002900F200390C2
:10233000102004901120059000200690002269468C
:102340000548FFF713FA08B1FEF70EF907B000BD14
:10235000BC050020040100A00C06002008B500BF49
:10236000002000903348006840F0200031490860A8
:102370000846006800F02000009000BF00BF00BFCA
:10238000002000900846006840F080000860084681
:10239000006800F08000009000BF00BF00BF002078
:1023A00000900846006840F0010008600846006898
:1023B00000F00100009000BF00BF00BF00200090AF
:1023C0000846006840F0400008600846006800F0D9
:1023D0004000009000BF00BF00BF002000900846F2
:1023E000006840F0100008600846006800F0100027
:1023F000009000BF00BF00BF0020009008460068AA
:1024000040F0020008600846006800F002000090FA
:1024100000BF00BF00BF002000900846006840F0E9
:10242000080008600846006800F00800009000BF3F
:1024300000BF08BD3038024000B587B01C21684697
:10244000FDF779FF124813490860532048600021C6
:10245000104881606421C160002101618021816197
:10246000FFF76BFB08B1FEF77FF8602000900020BB
:10247000019002900490042269460648FFF7D9FAB9
:1024800008B1FEF771F80348FFF7A0FA07B000BDE6
:10249000001800405C06002010B50B480B4908608E
:1024A0004FF4E1304860002108488160C16001615B
:1024B0000C21416100218161C161FFF761FC08B11C
:1024C000FEF752F810BD0000001001409C060020ED
:1024D00010B50B480B4908604FF4E130486000210B
:1024E00008488160C16001610C2141610021816166
:1024F000C161FFF745FC08B1FEF736F810BD0000DA
:1025000000440040DC06002010B50B480B49086071
:102510004FF4E1304860002108488160C1600161EA
:102520000C21416100218161C161FFF729FC08B1E3
:10253000FEF71AF810BD0000004800401C070020FC
:1025400000BFFEE70448006801F0CAFF00BF012099
:1025500002F072FAFBE700000400002000BFFEE773
:1025600010B500BF502080F31188BFF34F8FBFF329
:102570006F8F00BF04F02AFA18B14FF08050044961
:10258000086000BF002080F3118800BF10BD00006C
:1025900004ED00E000B593B0302107A8FDF7CBFEB5
:1025A000142102A8FDF7C7FE00BF002001902448B7
:1025B000006840F08050224908600846006800F03A
:1025C0008050019000BF00BF00BF002001901D4857
:1025D000006840F480401B4908600846006800F429
:1025E0008040019000BF00BF0120079000040890C8
:1025F00002200D9041050E9104210F91A821109108
:10260000022111910821129107A8FEF76BFE08B173
:10261000FDF7AAFF0F2002900220039000200490F3
:102620004FF4A05005904FF480500690052102A869
:10263000FEF7F6FC08B1FDF797FF13B000BD0000F0
:1026400040380240007000400548006840F47000C7
:10265000034908604FF00060014980390860704705
:1026600088ED00E010B50248FFF7E4F810BD000067
:102670001C08002010B50268294B98420ED0B0F11A
:10268000804F0BD0274B984208D0274B984205D05B
:10269000264B984202D0264B984203D122F070027A
:1026A0004B681A431E4B984220D0B0F1804F1DD08A
:1026B0001C4B98421AD01C4B984217D01B4B984287
:1026C00014D01B4B984211D01A4B98420ED01A4B83
:1026D00098420BD0194B984208D0194B984205D01C
:1026E000184B984202D0184B984203D122F4407202
:1026F000CB681A4322F080034C6943EA040202606B
:102700008B68C3620B688362054B984202D0084B0A
:10271000984201D10B6903630123436110BD00009E
:10272000000001400004004000080040000C004090
:1027300000040140004001400044014000480140C5
:1027400000180040001C00400020004030B5056A21
:1027500025F001050562026A4368846924F070046B
:1027600024F003040D682C4322F002028D682A43F2
:10277000104DA84200D103E00F4DA84206D100BF82
:1027800022F00802CD682A4322F00402094DA84233
:1027900002D0094DA84207D123F4807323F40073BB
:1027A0004D692B438D692B43436084614D684563BC
:1027B000026230BD000001400004014030B5056AEE
:1027C00025F010050562026A4368846924F4E04438
:1027D00024F440740D6844EA052422F020028D6838
:1027E00042EA0512124DA84200D103E0114DA84261
:1027F00007D100BF22F08002CD6842EA051222F024
:1028000040020B4DA84202D00A4DA84209D123F440
:10281000806323F400634D6943EA85038D6943EACD
:102820008503436084614D688563026230BD0000AA
:10283000000001400004014030B5056A25F48075B0
:102840000562026A4368C46924F0700424F003043A
:102850000D682C4322F400728D6842EA0522124D65
:10286000A84200D103E0114DA84207D100BF22F4D5
:102870000062CD6842EA052222F480620A4DA84235
:1028800002D00A4DA84209D123F4805323F4005307
:102890004D6943EA05138D6943EA05134360C4613A
:1028A0004D68C563026230BD000001400004014074
:1028B00030B5056A25F480550562036A4468C2692B
:1028C00022F4E04222F440720D6842EA052223F429
:1028D00000538D6843EA0533084DA84202D0084DE5
:1028E000A84204D124F480444D6944EA851444602C
:1028F000C2614D680564036230BD00000000014004
:102900000004014070B50546AC6B0020E085E08412
:102910002046FFF789F970BD70B506460025B46BF7
:1029200020684069C0F3C01594F83900212805D10A
:1029300025B10020E084204600F060F8206840695E
:10294000C0F3801594F83A00222805D125B1002063
:10295000E085204600F032F8E06B40F01000E063C4
:102960002046FFF761F970BD70B50546AC6B28686D
:10297000006800F48070B0B90020E0852068C0686D
:1029800020F480702168C8602068406920F0010050
:10299000216848612068406920F040002168486152
:1029A000202084F83A002046FFF7ACFB70BD70B5DC
:1029B0000446A56B2846FFF7E9FB70BD0168C968AE
:1029C00021F490710268D1600168496921F0010128
:1029D00002685161202180F83A10704710B5044612
:1029E0002068C06820F040002168C860202084F87A
:1029F00039002046FFF7CBFB002010BD0168C968F5
:102A000021F0C0010268D160202180F839107047A0
:102A100070B5044694F83A0022284AD1A068B0F56F
:102A2000805F13D1A56A206940B920684068C0F36F
:102A300008002880A06A801CA06219E02068406815
:102A4000C0B22880A06A401CA06211E0206938B999
:102A500020684068C1B2A26A501CA062117007E0F1
:102A60002068406800F07F01A26A501CA0621170CB
:102A7000E08D401E80B2E085C8B92068C06820F0B3
:102A800020002168C8602068C06820F48070216838
:102A9000C8602068406920F001002168486120205A
:102AA00084F83A002046FFF72DFB002070BD00207F
:102AB000FCE70220FAE700002DE9F84F0446206801
:102AC000006920F44050E1680843216808612169E9
:102AD000A068084361690843E169084300902068E1
:102AE000C06849F20C618843009908432168C860B6
:102AF0002068406920F44070A1690843216848615A
:102B0000E069B0F5004F75D1E3492068884203D0F1
:102B1000E249206888426FD1FEF77CFB81460220A3
:102B20006168A0FB01510B461920A9FB00712A46E0
:102B30003846FDF7A7FB6421B0FBF1F04FEA001A1D
:102B400002206168A0FB01510B461920A9FB00710E
:102B50002A463846FDF796FB074602206168A0FB2F
:102B600001510B461920A9FB00B12A465846FDF732
:102B700089FB6421B0FBF1F000EBC00101EB001018
:102B8000A7EB8000322101EBC0006421B0FBF1F023
:102B900000F0F8000AEB400A02206168A0FB015136
:102BA0000B461920A9FB00712A463846FDF76AFB3F
:102BB000074602206168A0FB01510B461920A9FBC2
:102BC00000B12A465846FDF75DFB6421B0FBF1F0E9
:102BD00000EBC00101EB0010A7EB8000322101EBFC
:102BE000C0006421B0FBF1F000F007005044216800
:102BF00088604FE16EE0FFE7FEF7FCFA81460220B5
:102C00006168A0FB01510B461920A9FB00712A46FF
:102C10003846FDF737FB6421B0FBF1F04FEA001AAC
:102C200002206168A0FB01510B461920A9FB00712D
:102C30002A463846FDF726FB074602206168A0FBBE
:102C400001510B461920A9FB00B12A465846FDF751
:102C500019FB6421B0FBF1F000EBC00101EB0010A7
:102C6000A7EB8000322101EBC0006421B0FBF1F042
:102C700000F0F8000AEB400A02206168A0FB015155
:102C80000B461920A9FB00712A463846FDF7FAFACF
:102C9000074602206168A0FB015003461920A9FBEA
:102CA00000B12A465846FDF7EDFA6421B0FBF1F079
:102CB00000EBC00101EB0010A7EB8000322101EB1B
:102CC000C0006421B0FBF1F000F00700504421681F
:102CD0008860DFE070492068884203D06F4920682F
:102CE00088426BD1FEF796FA814604206168A0FB0A
:102CF00001510B461920A9FB00712A463846FDF701
:102D0000C1FA824604206168A0FB01510B461920DC
:102D1000A9FB00712A463846FDF7B4FA6421B0FBDE
:102D2000F1F000EBC00101EB0010AAEB80003221B2
:102D300001EB00106421B0FBF1F000F0F00A042078
:102D40006168A0FB015003461920A9FB00712A46C7
:102D50003846FDF797FA6421B0FBF1F00AEB001A50
:102D600004206168A0FB01510B461920A9FB0071EA
:102D70002A463846FDF786FA074604206168A0FB1C
:102D8000015003461920A9FB00B12A465846FDF719
:102D900079FA6421B0FBF1F000EBC00101EB001007
:102DA000A7EB8000322101EB00106421B0FBF1F0B1
:102DB00000F00F005044216888606BE0FEF71AFABB
:102DC000814604206168A0FB015003461920A9FB3D
:102DD00000712A463846FDF755FA8246042061689C
:102DE000A0FB015003461920A9FB00712A46384672
:102DF000FDF748FA6421B0FBF1F000EBC00101EBF4
:102E00000010AAEB8000322101EB00106421B0FB1E
:102E1000F1F000F0F00A04206168A0FB01500346C5
:102E20001920A9FB00712A463846FDF72BFA6421C8
:102E3000B0FBF1F00AEB001A04206168A0FB0170FE
:102E400003461920A9FB005001463A462846FDF7E3
:102E500019FA074604206168A0FB015003461920B7
:102E6000A9FB00B12A465846FDF70CFA6421B0FBD5
:102E7000F1F000EBC00101EB0010A7EB8000322164
:102E800001EB00106421B0FBF1F000F00F005044A2
:102E900021688860BDE8F88F0010014000140140EF
:102EA000014691F8390021282CD18868B0F5805F5F
:102EB0000FD10A6A1088C0F308000B6858600869CF
:102EC00018B9086A801C086209E0086A401C086298
:102ED00005E00B6A581C086218780B685860C88CAB
:102EE000401E80B2C88458B90868C06820F08000CD
:102EF0000B68D8600868C06840F040000B68D86074
:102F0000002070470220FCE710B502F0D9FC02480F
:102F1000FEF78CFE10BD00009C06002000BFFEE7FF
:102F20000FB4054B10B503A9044A029800F034F819
:102F300010BC5DF814FB0000DD400008000100201B
:102F400002480068C0F30220704700000CED00E06A
:102F500010B5002804DB0A07130E054A135406E0D7
:102F60000A07140E034A00F00F031B1FD45410BDB0
:102F700000E400E018ED00E002E008C8121F08C1FC
:102F8000002AFAD170477047002001E001C1121FEA
:102F9000002AFBD1704700002DE9FF4F8DB09B4602
:102FA0000F460446002606E025280BD05A460F9906
:102FB0009047641C761C20780028F5D111B030466B
:102FC000BDE8F08F0025A8460122984900E005439E
:102FD00014F8013F203B02FA03F00842F7D12078B1
:102FE0002E2817D114F8010F45F004052A280ED019
:102FF0006FF02F022078A0F1300109290AD808EBE0
:10300000880102EB410100EB0108641CF2E757F86C
:10301000048B641C20786C280DD004DC4C2812D062
:103020006A2811D104E074280DD07A280CD10AE066
:1030300045F4001507E0617845F48015814202D11E
:10304000641C05F58015641C2078692844D008DCD0
:103050000028B3D0582867D063280FD0642808D13F
:103060003AE0702865D0732812D075285AD0782895
:103070005AD05A460F999047761CD5E017F8040BA2
:103080008DF8000000208DF80100E946012003E0E2
:1030900057F8049B4FF0FF3069074FF0000501D44B
:1030A0000AE06D1C45450DDA8542FADB19F805107A
:1030B0000029F6D106E06D1C8542FCDB19F80510ED
:1030C0000029F8D12E4404E019F8010B5A460F9953
:1030D00090476D1EF8D2A7E00A200021CDE9080133
:1030E000C5F3025002280CD001CFC117021E71F1A6
:1030F00000020CDA0023D0EB030063EB01012D2268
:1031000008E0FF1D27F00707F7E80201EEE72A05B0
:1031100004D52B228DF8282001223CE0EA073AD082
:103120002022F7E70A2000E010200021CDE9080165
:1031300007E01020002145F00405CDE908014FF01B
:103140000808C5F30250022810D001CF00214FF02B
:10315000000A2A0720D52278702A0DD0DDE908C39D
:103160008CF0100C5CEA030C0CD015E0FF1D27F06E
:103170000707F7E80201EAE740228DF828204FF020
:10318000010A0CE050EA010306D030238DF8283004
:103190008DF82920022292462278582A04D024A2AF
:1031A0000DF120090B9209E026A2F9E7DDE90823D9
:1031B000FDF768F80B9B9B5C09F8013D50EA0102A2
:1031C000F4D1ADEB090020300890680701D44FF02E
:1031D00001080899884503DD0898A8EB000000E085
:1031E00000208046002506E00AA85A46405D0F9957
:1031F00090476D1C761C5545F6DB04E030205A469E
:103200000F999047761CB8F10001A8F10108F5DC90
:1032100005E019F8010B5A460F999047761C08995A
:10322000481E08900029F4DC641CC4E6092801004B
:10323000303132333435363738396162636465662C
:1032400000000000303132333435363738394142EE
:10325000434445460000000030B587B04FF0FF35CD
:1032600000BF0023784A1946184600F0E3F9B0F190
:10327000FF3F14D100BF02E0012002F00BFD7348B4
:1032800000780028F8D0002070490870704A71A1B9
:1032900071A0FFF745FE01206C49087000BF00BF18
:1032A00000BF0023684A0121184600F0C3F9B0F1BD
:1032B000FF3F14D100BF02E0012002F0EBFC6348A5
:1032C00000780028F8D00020604908706B4A61A19E
:1032D00061A0FFF725FE01205C49087000BF00BF18
:1032E00000BF0023584A0221184600F0A3F9B0F1AC
:1032F000FF3F14D100BF02E0012002F0CBFC534895
:1033000000780028F8D00020504908705C4A51A18C
:1033100051A0FFF705FE01204C49087000BF00BF17
:1033200000BF0023484A0321184600F083F9B0F19A
:10333000FF3F14D100BF02E0012002F0ABFC434884
:1033400000780028F8D00020404908704D4A41A17B
:1033500041A0FFF7E5FD01203C49087000BF00BF18
:1033600000BF0023384A0421184600F063F9B0F189
:10337000FF3F14D100BF02E0012002F08BFC334874
:1033800000780028F8D00020304908703E4A31A16A
:1033900031A0FFF7C5FD01202C49087000BF00BF18
:1033A0003AA000F0BDFC044600BF02E0012002F09C
:1033B00071FC264800780028F8D0002023490870C6
:1033C000214635A0FFF7ACFD01202049087000BF61
:1033D000601CA8B900BF02E0012002F05BFC1B48A2
:1033E00000780028F8D000201849087030A0FFF7B6
:1033F00097FD01201549087000BF801E07B030BD41
:10340000182101A8FCF797FFA0B2182201A900F02B
:1034100051FD0546681CA0B900BF02E0012002F082
:1034200039FC0A4800780028F8D0002007490870C5
:1034300024A0FFF775FD01200449087000BF801E1D
:10344000DCE700BFDAE700004D4000081101002072
:103450009C7100082D3100000D0A2D2D4572726FF0
:10346000725F436865636B2825732C2025732920C0
:103470006572726F7221212D2D0D0A009070000867
:1034800044710008F4710008EC7000084C65694E46
:10349000756F576966693100636F6D6D6F6E5F6F31
:1034A00070656E206664203D2025640D0A000000D2
:1034B000636F6D6D6F6E5F6F70656E206572726F9A
:1034C000720D0A00636F6D6D6F6E5F777269746560
:1034D000206572726F720D0A00000000F8B5044694
:1034E0000D4665654FF47A71206E4843B0FBF1F6E6
:1034F000009600230421D4E9140203F095FCF8BDE2
:103500000749C166074981660749416707498167DD
:10351000074901670749C1670749C0F8801070472C
:10352000EF5600084D3F000825050008DD3400086F
:1035300015570008D1560008F540000800487047AC
:10354000C87F00200162704770B50546002437E04F
:10355000274850F82400002830D1254840F824504E
:10356000001F0088401C2249091F088000BF02E09C
:10357000012002F08FFB1F4800780028F8D00020BF
:103580001C4908701CA0FFF7CBFC012019490870EA
:1035900000BF00BF02E0012002F07CFB154800786C
:1035A0000028F8D0002013490870298818A0FFF7D8
:1035B000B7FC01200F49087000BF70BD601C84B2C9
:1035C0000A2CC5DB00BF02E0012002F063FB0948C2
:1035D00000780028F8D00020064908700FA0FFF7F7
:1035E0009FFC01200349087000BF0020E5E70000B0
:1035F000CC7F0020FC0000206465765F72656769FF
:103600007374657220737563636573730D0A0000CC
:1036100061646472203D2025640D0A006465765F54
:103620007265676973746572206275662066756C71
:103630006C0D0A002DE9F04706460F4615469846E0
:1036400000BFA5B900BF02E0012002F023FB3E4805
:1036500000780028F8D000203B4908703BA23DA12B
:103660003DA0FFF75DFC01203749087000BF00BF97
:10367000002451E0414850F8240000284AD1182085
:1036800001F05CFF8146B9F1000F15D100BF02E0E7
:10369000012002F0FFFA2C4800780028F8D0002022
:1036A0002949087036A0FFF73BFC01202649087025
:1036B00000BF801EBDE8F087304840F8249050F8E5
:1036C000240047802D4850F8240006802B4850F8ED
:1036D00024004560294850F82400C0F80C80274891
:1036E00008380088401C25490839088000BF02E0DE
:1036F000012002F0CFFA144800780028F8D000200A
:103700001149087026A0FFF70BFC01200E49087034
:1037100000BFCFE7601C84B2642CABDB00BF02E0CB
:10372000012002F0B7FA084800780028F8D00020FD
:103730000549087021A0FFF7F3FB0120024908703A
:1037400000BF801EB6E70000FE00002068616E64C6
:103750006C650000300000000D0A2D2D4572726F5F
:10376000725F436865636B2825732C2025732920BD
:103770006572726F7221212D2D0D0A00FC7F0020D1
:103780006576656E745F72656769737465722073C0
:10379000756363657373206572726F722D2D2D00D2
:1037A0006576656E745F72656769737465722073A0
:1037B0007563636573730D0A000000006576656EBE
:1037C000745F72656769737465722073756363658E
:1037D0007373206572726F720000000070B5002272
:1037E0001821642002F015FD3F49486000BF0846DB
:1037F0004068002814D100BF02E0012002F04AFA1C
:103800003A4800780028F8D000203849087038A2DB
:103810003FA141A0FFF784FB01203449087000BF9D
:1038200000BF012002F0E4FC4449C1F8780700BF62
:103830000846D0F87807A0B900BF02E0012002F0E6
:1038400029FA2A4800780028F8D000202749087073
:103850003BA22FA130A0FFF763FB01202349087092
:1038600000BF00BF00243BE0002004EB4411384AB5
:1038700002EB8101886504EB4410114601EB8000E6
:10388000C46542F2107104EB441002EB8000416504
:10389000304804EB441102EB810148664FF47A7022
:1038A00004EB441102EB8101086604EB441102EBC6
:1038B0008100FFF725FE04EB4412254B03EB820049
:1038C00004EB441203EB8202916E88474FF0FF3104
:1038D000C4EBC402204800EBC2008180601CC4B26B
:1038E000642CC1DB70BD0000F47F0020FE000020CE
:1038F0006576656E745F636F6E2E436F6D6D6F6E70
:103900005F4576656E745F517565756500000000F2
:103910004E554C4C000000000D0A2D2D4572726F63
:10392000725F436865636B2825732C2025732920FB
:103930006572726F7221212D2D0D0A00F48F002007
:103940006576656E745F636F6E2E6D757465780055
:10395000709700207D5700088C8100202DE9FF5FC3
:1039600006460F4690469946DDE90EAB00200390CF
:103970000290019000250024C7E0704850F8240010
:10398000002873D06D4850F824000088B0426DD1F3
:103990006A4850F824004088B842F8D1674850F887
:1039A0002400C0F80880654850F82400A0F8109062
:1039B000624850F824004068002875D0BAF1000F22
:1039C00027D15E4850F82400008ADFF870E10090AB
:1039D0005EF824E0DEF80830DFF860E15EF824E00D
:1039E000BEF80220DFF854E15EF824E0BEF80010D3
:1039F000DFF848E15EF824E0DEF80C00DFF83CE197
:103A00005EF824E0DEF804C0E047002004B0BDE822
:103A1000F09F00F05FF9054600BFA5B900BF02E0C6
:103A2000012002F037F9464800780028F8D000203D
:103A30004349087043A245A146A0FFF771FA01204F
:103A40003F49087000BF00BF05E000F043F905469C
:103A5000012002F01FF9002DF7D059462846EA6FE1
:103A6000904751462846AA6F904703E04BE001205B
:103A700002F010F92846D5F88010884700B200906F
:103A80002E4850F824305A465146009800F07CF9F0
:103A9000401C0028EBD0294808384088401C2749A2
:103AA0000839488000BF03E018E0012002F0F2F876
:103AB000234800780028F8D00020214908701F48CA
:103AC000083841882CA0FFF72BFA01201C49087008
:103AD00000BF2846E96E8847002097E700BF02E054
:103AE000012002F0D7F8164800780028F8D000200E
:103AF000134908702AA0FFF713FA01201049087033
:103B000000BF801E82E7601C84B2642CFFF635AFD4
:103B100000BF02E0012002F0BDF80948007800284B
:103B2000F8D000200649087026A0FFF7F9F9012017
:103B30000349087000BF801E68E70000FC7F00207A
:103B4000FE00002074696D65720000004E554C4CFB
:103B5000000000000D0A2D2D4572726F725F4368E0
:103B600065636B2825732C20257329206572726F7D
:103B70007221212D2D0D0A00706F737420657665FA
:103B80006E745F636F6E2E706F73745F746F7461A9
:103B90006C5F6E756D203D2025640D0A00000000ED
:103BA0006576656E745F636F6E2E6576656E747391
:103BB0005B695D2D3E68616E646C65206572726F35
:103BC000720D0A006576656E745F636F6E2E6576A2
:103BD000656E74735B695D206973206E6F74206617
:103BE0006F756E640D0A000070B5054600243AE05A
:103BF000284601F041FDC4EBC40201681C4800EBFB
:103C0000C200B0F9040081422BD100BFC4EBC40153
:103C1000174800EBC1000069002814D100BF02E082
:103C2000012002F037F8134800780028F8D000206F
:103C30001049087010A21CA11DA0FFF771F9012006
:103C40000C49087000BF00BFC4EBC401084800EB7A
:103C5000C100006928B1C4EBC401054800EBC100F4
:103C600070BD601CC4B2642CC2DB0020F8E7000009
:103C70008C810020FE0000206576656E745F636FA6
:103C80006E2E74696D65725F74656D705F657665C3
:103C90006E74735B695D2E6576656E74732E6861F4
:103CA0006E646C65000000004E554C4C0000000036
:103CB0000D0A2D2D4572726F725F436865636B2824
:103CC00025732C20257329206572726F7221212D96
:103CD0002D0D0A0010B5002410E004EB4411094A30
:103CE00002EB8101086D03F0E1F828B904EB441000
:103CF000044901EB800010BD601CC4B2642CECDBF5
:103D00000020F8E7709700200148406870470000E5
:103D1000F47F002010B50446204601F00FFC10BDD2
:103D200070B50546002428E0164850F8240010B36A
:103D30002846FCF70BFB0646124850F82400C11C2D
:103D400032462846FCF709FBA8B90E4850F8240073
:103D5000006A406848B10B4A52F82420D069094AE9
:103D600052F82420126A51688847064850F8240007
:103D7000007840B270BD601C84B20A2CD4DB4FF0D6
:103D8000FF30F7E7CC7F00202DE9F04106460F46D3
:103D900090461D4600BF288A142801DD012000E05E
:103DA0000020012814D100BF02E0012001F072FFC1
:103DB000264800780028F8D000202449087024A262
:103DC00031A132A0FFF7ACF801202049087000BFF4
:103DD00000BF002434E0C4EBC401354800EBC1004F
:103DE000B0F90400401C48BBC4EBC401304800EBF0
:103DF000C1008680C4EBC4012D4840F83170C4EB8B
:103E0000C40100EBC10080F80880C4EBC40228495B
:103E100001EBC20101F10C0018222946FCF763FAFC
:103E20002A8AC4EBC40C224B03EBCC0303F124001D
:103E3000A968FCF758FA0020BDE8F081601CC4B204
:103E4000642CC8DB4FF0FF30F6E70000FE000020D6
:103E5000286576656E742D3E646174615F73697A5E
:103E600065203E20436F6D6D6F6E5F54696D6572A6
:103E70005F54656D705F4576656E74735F44617401
:103E8000615F4C656E290000310000000D0A2D2D88
:103E90004572726F725F436865636B2825732C20CF
:103EA000257329206572726F7221212D2D0D0A0054
:103EB0008C8100202DE9F04105460E46174600246E
:103EC00032E01C4850F8240060B31A4850F824002F
:103ED0000088A84226D1174850F82400006A0068DC
:103EE00000B300BF02E0012001F0D4FE12480078C8
:103EF0000028F8D000201049087010A0FFF710F833
:103F000001200D49087000BF0A4951F82410C86902
:103F1000084951F82410096A3A460B683146984717
:103F2000BDE8F081601C84B20A2CCADB4FF0FF3080
:103F3000F6E70000CC7F0020FC0000206465765F7F
:103F4000636F6E2E6465760D0A00000038B5044676
:103F5000606E009004F15C032046D4E9151202F073
:103F60000BFF2065206D90B900BF02E0012001F039
:103F700091FE074800780028F8D000200449087016
:103F800004A0FEF7CDFF01200149087000BF38BD35
:103F9000FD0000200D0A207854696D65724372653A
:103FA000617465206661696C202121210D0A000081
:103FB000FFF714FC00F0C8F800F000F892B0FFF72B
:103FC000BDFA00242C2107A8FCF7B5F9FFF79CFEE9
:103FD0000646182101A8FCF7AEF900BF4FF0FF32EA
:103FE00001A9304602F052FB0446012CF6D102989A
:103FF00058B1BDF814000090BDF80620BDF80410BB
:10400000DDE902530498A847E8E700BF02E0012079
:1040100001F040FE064800780028F8D0002004494E
:10402000087004A0FEF77CFF012001490870D5E765
:10403000080100206576656E742E68616E646C659B
:10404000203D3D204E554C4C0D0A00002DE9F0411D
:1040500080460C4615461E46069F002C28D1012D91
:1040600026D100BF02E0012001F014FE11480078C3
:104070000028F8D000200F4908700FA0FEF750FF6D
:1040800001200C49087000BF00BF02E0012001F0D0
:1040900001FE084800780028F8D000200549087083
:1040A00031460BA0FEF73CFF01200249087000BF1B
:1040B000BDE8F08111010020636F6E6E65637420AE
:1040C0006E657420737563636573730D0A00000079
:1040D00064617461203D2025730D0A0000BF044A0D
:1040E000126802F08002002AF9D0014A506070473D
:1040F0000010014010B50446206D01F0BDFA0068C3
:1041000010BD000010B500BF02E0012001F0C2FDAB
:10411000074800780028F8D000200549087005A05D
:10412000FEF7FEFE01200249087000BF10BD00002E
:10413000D80000206C65696E756F3120636F6E6EFC
:104140006563740D0A00000070B5002500249CE032
:10415000B020FFF7DFFD674941F82400084650F81A
:104160002400A8B900BF02E0012001F093FD6248DD
:1041700000780028F8D000205F49087021465FA031
:10418000FEF7CEFE01205C49087000BF801E70BDA6
:10419000584951F82400B021FCF7CDF8554951F8A1
:1041A00024006149FFF7CEF9524850F824005149E4
:1041B00051F82410C86100222B21022002F029F8B6
:1041C0004C4951F8241088614A4850F8240080690D
:1041D000A0B900BF02E0012001F05CFD4648007874
:1041E0000028F8D000204449087050A0FEF798FE3F
:1041F00001204149087000BF801EC8E73D4951F8C1
:104200002400FFF7A1F90546681CA8B900BF02E029
:10421000012001F03FFD384800780028F8D0002048
:1042200035490870214648A0FEF77AFE0120324940
:10423000087000BF801EAAE7012001F0D9FF2D49B8
:1042400051F8241088622B4850F82400806AA8B9DD
:1042500000BF02E0012001F01DFD27480078002882
:10426000F8D000202449087021463CA0FEF758FEF3
:1042700001202149087000BF801E88E71D4951F8C0
:10428000240000F08DF8601CC4B2032CFFF660AF70
:1042900002201849096808801648016837A002689A
:1042A00041F8032F42684A6002890A81807A887245
:1042B00003201049496808800E48416832A002680E
:1042C00041F8032F42684A6002890A81807A887225
:1042D0000420084989680880064881682DA0026882
:1042E00041F8032F42684A6002890A81807A887205
:1042F00000BF4CE7BC7F0020D80000206465765FDB
:104300006D796465765F25642063726561746520EC
:104310004C65694E756F576966695F64657620659F
:1043200072726F720D0A0000DC0000207851756512
:104330007565437265617465206865617020697395
:104340002066756C6C0D0A0064657620256420611A
:104350006464206572720D0A000000007853656D78
:104360006170686F72654372656174654D757465DF
:1043700078202564206572720D0A00004C65694E34
:10438000756F5769666931004C65694E756F57697D
:10439000666932004C65694E756F5769666933000E
:1043A00010B5044611220DA104F12C00FBF79BFF70
:1043B00001218420015100218820015142F2107115
:1043C000802001510A49902001514FF47A718C20CC
:1043D000015104F12C00FFF793F810BD4C65694EB4
:1043E000756F57696669315F74696D6572000000A9
:1043F000355700082DE9FC4104460D461746ACB977
:1044000000BF02E0012001F045FC144800780028BC
:10441000F8D000201149087011A0FEF781FD01209D
:104420000E49087000BFFF20BDE8FC8126463A46D1
:1044300012A12846FBF79EFF70B90B2214A1F01CB5
:10444000FBF798FF40B9012000900B230DA2014615
:1044500001900020FFF782FA00BFE5E7D8000020B6
:104460006D73675F7061727365206D795F646576E7
:10447000206973206E756C6C0D0A00006C65696EA6
:10448000756F3120636F6E6E6563742073756300A2
:104490004C65694E756F576966693100FCF7D0FC51
:1044A000FEF778F8FDF75AFFFDF784FEFDF7F4FFFD
:1044B000FEF72AF8FDF76EFEFDF7DEFEFEF708F8C0
:1044C000FDF7BAFFFDF79AFE00F0C2FA00BFFEE763
:1044D00001460020842901D0CA1C10447047000006
:1044E000B0B000F0E1F8122000F079F9074614218D
:1044F0002BA8FBF720FF122265492BA8FBF7F3FE40
:104500002E980090BDF8BC00ADF8040038462BA9E9
:104510000EC900F045F9384600F02AFA122000F0E2
:104520005EF98046142126A8FBF705FF122259499F
:1045300026A8FBF7D8FE29980090BDF8A800ADF892
:104540000400404626A90EC900F02AF9404600F0B2
:104550000FFA122000F043F98146142121A8FBF73D
:10456000EAFE12224C4921A8FBF7BDFE24980090D8
:10457000BDF89400ADF80400484621A90EC900F02A
:104580000FF9484600F0F4F9122000F028F98246AD
:1045900014211CA8FBF7CFFE122240491CA8FBF7F0
:1045A000A2FE1F980090BDF88000ADF804005046B0
:1045B0001CA90EC900F0F4F8504600F0D9F91220F9
:1045C00000F00DF98346142117A8FBF7B4FE122260
:1045D000334917A8FBF787FE1A980090BDF86C00C6
:1045E000ADF80400584617A90EC900F0D9F858468E
:1045F00000F0BEF92C210CA8FBF79DFE002600BFA1
:1046000000BF00BF00BF00BF282102A8FBF793FE38
:10461000002500BF00BF00BF22494FF0FF324869AC
:104620000CA902F033F846B2012EF5D1FEF786FF51
:1046300005460CA800F0DAF8002422E0281D50F806
:104640002400E0B1281D50F82400006AC069B0B110
:104650009DF831209DF830E00DF1320C0EEB0C018D
:1046600005F1040C5CF824C0DCF81C0005F1040C16
:104670005CF824C0DCF820C0DCF81C309847601CD3
:10468000C4B20A2CDADB2C210CA8FBF754FEC3E7DA
:10469000786F00088A6F00089C6F0008AE6F0008F2
:1046A000C06F000808CC002010B51F480068C06823
:1046B00040F010001C490968C86028221B491A48AC
:1046C000FDF7BEFC00222B21022001F0A2FD1749BC
:1046D000183948610846406990B900BF02E00120DE
:1046E00001F0D8FA124800780028F8D000201049CC
:1046F000087010A0FEF714FC01200D49087012E0AC
:1047000000BF02E0012001F0C5FA09480078002846
:10471000F8D000200649087013A0FEF701FC012024
:104720000349087000BF10BD9C06002020CC00206B
:10473000100100200D0A7851756575654372656139
:10474000746520675F6D6573736167655F7461731E
:104750006B2E4D6573736167655F51756575652077
:104760006572726F720D0A000D0A78517565756574
:1047700043726561746520675F6D6573736167651A
:104780005F7461736B2E4D6573736167655F5175FF
:1047900065756520737563636573730D0A000000AA
:1047A0000FB40199016002994160BDF80C100181BC
:1047B0009DF80E1081729DF81310C1739DF80F10B3
:1047C000C1729DF8101001739DF8111041739DF88E
:1047D000121081739DF81510417404B0704710B524
:1047E0000446204600F0AAFE10BD000070B5044645
:1047F000002699E0002592E0A01C815D4E4850F80B
:104800002500C07A814270D100BF02E0012001F092
:1048100041FA4A4800780028F8D00020474908703B
:10482000A01C825D314646A0FEF77AFB0120434979
:10483000087000BFA01C711C415C3F4850F8250067
:10484000007B814235D100BF02E0012001F022FA55
:104850003A4800780028F8D0002038490870A01C99
:10486000711C425C31463CA0FEF75AFB01203349E3
:10487000087000BF304850F82500C07B10B94FF0D9
:10488000FF3070BD26702C4850F82500407B811900
:10489000A01C415C284850F82500807B08446070CB
:1048A000254850F82500C07B8119A01C405C40B20F
:1048B000E7E7214850F82500407B8119A01C415CA6
:1048C0001D4850F82500807B0144A01C415C1A481B
:1048D00050F82500407C81421FD1174850F8250030
:1048E000C07B18B94FF0FF30CBE716E026701248B6
:1048F00050F82500407B8119A01C415C0E4850F8FF
:104900002500807B084460700B4850F82500C07B70
:104910008119A01C405C40B2B3E7681CC5B2052DEC
:10492000FFF66AAF701CC6B26078B0423FF762AF64
:104930004FF0FF30A5E70000A87F0020A80000206E
:1049400069203D2025642C206865616431203D3D4F
:1049500020252E32780D0A0069203D2025642C2068
:104960006865616432203D3D20252E32780D0A00B5
:1049700070B50546002422E01C4850F82400E0B938
:104980001A4840F82450001F0088401C1749091F8E
:10499000088000BF02E0012001F07CF91448007893
:1049A0000028F8D000201249087012A0FEF7B8FACB
:1049B00001200F49087000BF70BD601C84B2052C37
:1049C000DADB00BF02E0012001F064F9084800785A
:1049D0000028F8D00020064908700FA0FEF7A0FAC2
:1049E00001200349087000BF0020E5E7A87F0020F0
:1049F000A80000206D6573736167655F70726F74E6
:104A00006F636F6C5F72656769737465722073752D
:104A100063636573730D0A0070726F746F636F6CFC
:104A20005F7265676973746572206275662066756A
:104A30006C6C0D0A0000000070B5044625460DB1EF
:104A4000294600E00121084601F024F9002070BD4C
:104A500010B501F09BF9002010BD7FB504460D464E
:104A6000606998B1A06988B1B4F90800FFF730FD1A
:104A70000646D4E90510CDE9006102902B46226973
:104A8000D4E9001001F02EFF039013E0B4F9080000
:104A9000FFF71EFD064603A8CDE90060238A9AB2FF
:104AA0002B46D4E9001001F0EBFE012802D00020D3
:104AB00004B070BD0398FBE72DE9F04105460E46B2
:104AC0001C4807681C480068001D00F063FF50B9CF
:104AD0001948006890F82C1001208840174909688F
:104AE000814316480160681C38B936B11248016824
:104AF000091D134800F0A4FF1AE07C190E48006855
:104B00004460BC4207D20C480168091D0D4800688A
:104B100000F07CFF0CE008480168091D0A480068A5
:104B200000F074FF09480068844201D2074804601D
:104B3000BDE8F08148000020340000204C00002037
:104B4000780900203C00002038000020640000208C
:104B500010B5044600F080FF23480068401C22493D
:104B600008602248006840B9204804600846006890
:104B700001280DD100F034FA0AE01D48006838B968
:104B80001A480068C06AE16A884201D81748046080
:104B900018480068401C1749086094F82C10012040
:104BA000884015490968084313490860E16A01EB28
:104BB0008101124A02EB8100211D00F041FF00F04B
:104BC00075FF0B48006868B108480068C06AE16A70
:104BD000884207D24FF0805009490860BFF34F8FD9
:104BE000BFF36F8F10BD0000440000203400002090
:104BF00050000020600000204C0000209C08002095
:104C000004ED00E008B500F027FF12480068E8B99D
:104C1000114800F0EBFE114800F0E8FE0E48104984
:104C200008600E480F49086000200F4B0F4A0C2106
:104C300000900A2001F01DFB064908600846006844
:104C400020B10BA10348006800F0E8FF00F02EFF40
:104C500008BD0000780000208C090020A009002079
:104C60007000002074000020B4090020FC0900201E
:104C7000546D72510000000010B516E000F0ECFE1B
:104C80000C48C068C468201D00F084FE0A48006813
:104C9000401E0949086009480068401E074908602D
:104CA00000F004FF204600F05FF804480068002888
:104CB000E4D110BD64090020440000204000002021
:104CC00070B504460D46206C70B1216CE06801445B
:104CD000E160D4E90210884201D32168E1602846EE
:104CE000226CE168FBF7FFFA70BD2DE9F041044644
:104CF0000F4615464FF00008A66B206C48B9206897
:104D000000282CD1A06801F005FF80460020A0609B
:104D100025E07DB93946226C6068FBF7E4FA216C26
:104D2000606808446060D4E90101884217D32068B4
:104D3000606014E03946226CE068FBF7D4FA216C1D
:104D4000E068411AE1602168E068884203D2216C82
:104D5000A068411AE160022D01D106B1761E701CD7
:104D6000A0634046BDE8F08110B5044694F85100B8
:104D700030B9206B00F0B8FE204600F0B5FE1AE016
:104D800094F85100012803D1204600F0ADFE12E056
:104D900094F85100022801D1012000E0002050B910
:104DA00000BF502080F31188BFF34F8FBFF36F8F88
:104DB00000BF00BFFEE710BD0146084A1268126836
:104DC0000AB9012200E000220A600A6822B9034AF7
:104DD0001268D268106800E0002070477000002060
:104DE00030B547F23053174800F007042CB1C01D0E
:104DF00020F00700134C041B1B1B0246124C2260C0
:104E00000024114D6C60D018083820F007000F4CBA
:104E1000206000240D4D2D686C600C4D2D682C60B9
:104E20001146441A4C60094C24680C60084D4C68CB
:104E30002C60084D4C682C604FF00044064D2C60EF
:104E400030BD0000740A0020840000208C00002087
:104E500094000020900000209800002000BFFFF781
:104E60000BFF064800680128F9D94FF0805004492B
:104E70000860BFF34F8FBFF36F8FF0E79C080020EF
:104E800004ED00E010B5044654B10020A06020609D
:104E90000021E16000231A461946204601F0A6FAD7
:104EA00010BD2DE9F04106460D4617469846069C72
:104EB0000DB9246000E02760E663256401212046E7
:104EC00001F048FABDE8F0812DE9F05F82460E4618
:104ED00090469B460A9F0C9C4FEA8801A522206BB6
:104EE000FBF722FAA8F10100216B01EB800929F000
:104EF000070909F0070008B9012000E0002050B9B7
:104F000000BF502080F31188BFF34F8FBFF36F8F26
:104F100000BF00BFFEE786B1002507E0715D04F128
:104F200034004155705D00B902E06D1C102DF5D3C1
:104F300000BF00214320015502E0002084F8340026
:104F4000072F00D30627E76267640020A064201DB6
:104F500000F059FD04F1180000F055FD2461C7F17F
:104F60000700A06164620020E06484F850005A46A3
:104F70005146484600F096FB20600B9808B10B980C
:104F80000460BDE8F09F2DE9F04706460D46174640
:104F90009846DDE908940DB1012000E0002050B9E9
:104FA00000BF502080F31188BFF34F8FBFF36F8F86
:104FB00000BF00BFFEE78CB1FFF724FE2660A561AD
:104FC000C4F81C80C4F82090201D00F01CFD2FB1F7
:104FD00094F8240040F0040084F82400BDE8F08731
:104FE00010B5002407E004EB84010F4A02EB8100B6
:104FF00000F0FCFC641C072CF5D30C4800F0F6FC18
:105000000B4800F0F3FC0B4800F0F0FC0A4800F0FD
:10501000EDFC0A4800F0EAFC04480949086004482D
:105020000849086010BD00009C08002028090020E5
:105030003C09002050090020640900207809002064
:10504000380000203C00002010B50146164800E062
:10505000006803688B42FBD30246436813448B42CB
:1050600004D143684C682344436001460A464B68B8
:1050700013440468A34211D10C4C03682468A34272
:1050800008D04B680468646823444B6003681B685D
:105090000B6005E0054B1B680B6001E003680B60CB
:1050A000884200D0016010BD840000208C000020E8
:1050B0002DE9F04104460D4616461F464FF0000804
:1050C00065602461B5420CD8F01BA169884202D307
:1050D0004FF0010811E0211D0948006800F096FC1E
:1050E0000BE0BE4204D2BD4202D34FF0010804E0FF
:1050F000211D0448006800F089FC4046BDE8F081AD
:10510000740000207000002070B5054600F0A4FC7B
:10511000A86B08B9012400E0002400F0C7FC204679
:1051200070BD70B5054600F097FCA86BE96B88422E
:1051300001D1012400E0002400F0B8FC204670BD3D
:10514000F8B505460F461A480068C068C468201DB7
:1051500000F020FC94F8240000F00400E8B1A069FD
:1051600041192B463A462046FFF7A2FFD8B100204E
:1051700003462A4601460090204601F055FE0646A9
:1051800056B900BF502080F31188BFF34F8FBFF393
:105190006F8F00BF00BFFEE705E094F8240020F009
:1051A000010084F824002046216A8847F8BD0000E9
:1051B0007000002070B586B08BE003980028FBDB00
:1051C000059C606908B9012000E0002010B9201D8D
:1051D00000F0E0FB02A800F0DDF8054603980A287D
:1051E00075D2DFE800F009050739416306083A4245
:1051F00000BF00BF00BF00BF94F8240040F00100D2
:1052000084F824000498A269811803462A4620469F
:10521000FFF74EFFF8B12046216A884794F8240032
:1052200000F00400B8B1002000900498A169421871
:1052300000231946204601F0F7FD064656B900BF87
:10524000502080F31188BFF34F8FBFF36F8F00BFE3
:1052500000BFFEE700BF3BE000BF94F8240020F051
:10526000010084F8240033E000BF94F8240040F0EB
:10527000010084F824000498A061A06908B101200D
:1052800000E0002050B900BF502080F31188BFF328
:105290004F8FBFF36F8F00BF00BFFEE7A0694119BA
:1052A0002B462A462046FFF703FF11E094F824001E
:1052B00000F0020018B9204600F016FC05E094F852
:1052C000240020F0010084F8240001E0FFE700BF83
:1052D00000BF002203A90448006801F0D7F90028A4
:1052E0007FF46BAF06B070BD78000020F8B50546BE
:1052F0000C4600F0A7FD684600F04CF80646009802
:1053000020BB44B9B54206D801F0B4FC314628466A
:10531000FFF716FF1CE03CB10E480068006808B9B2
:10532000012000E000200446A91B22460A4800682C
:1053300000F08AFC01F09EFC50B94FF08050074904
:105340000860BFF34F8FBFF36F8F01E001F092FC55
:10535000F8BD0000740000207800002004ED00E09B
:105360000A490968096809B9012100E0002121B151
:105370004FF0FF31064A116006E004490968C96828
:10538000C868034A41681160704700003800002077
:105390006400002070B5044601F012FB0546074882
:1053A0000068854204D200F00BF80120206001E083
:1053B0000020206001480560284670BD8000002064
:1053C0002DE9F84334E025480068C06805682348A3
:1053D0000068C068C468201D00F0DCFA2046216A1D
:1053E000884794F8240000F0040008B3A069461927
:1053F000AE4207D966602461211D1848006800F09C
:1054000005FB15E0002003462A4601460090204691
:1054100001F00AFD074657B900BF502080F31188FC
:10542000BFF34F8FBFF36F8F00BF00BFFEE700BF1A
:105430000A480068006808B9012000E00020002840
:10544000C1D00648D0F800800548006803490860CC
:105450000348C0F80080BDE8F88300007000002019
:10546000740000200E480068401C08B9012000E0CC
:10547000002050B900BF502080F31188BFF34F8F38
:10548000BFF36F8F00BF00BFFEE700BF502080F367
:105490001188BFF34F8FBFF36F8F00BF00BFFEE7D0
:1054A0009C00002008B500BF6846FFF785FC044655
:1054B00020460099FFF71AFFFFF77CFEF4E770B56E
:1054C000044600F0C9FA94F9455010E0606A08B942
:1054D000012000E0002038B904F1240001F07EFB37
:1054E00018B100F011FC00E003E0681E45B2002D89
:1054F000ECDC00BFFF2084F8450000F0D7FA00F094
:10550000ABFA94F9445010E0206908B9012000E09A
:10551000002048B904F1100001F060FB08B100F070
:10552000F3FB681E45B200E001E0002DECDC00BF9B
:10553000FF2084F8440000F0B9FA70BD2DE9F04175
:1055400004464FF0000800F07DFC4648006808B9AA
:10555000FFF746FC44480068204000286BD1D4B1D6
:10556000083404F00700B0B104F00700C0F10800EF
:10557000044404F0070008B9012000E0002050B9FD
:1055800000BF502080F31188BFF34F8FBFF36F8FA0
:1055900000BF00BFFEE7002C4DD0344800688442B5
:1055A00049D8334E3046056801E02E462D686868BC
:1055B000A04202D228680028F7D12A480068854214
:1055C00039D0306800F10808286830606868001B2E
:1055D000102819D92F1907F0070008B9012000E099
:1055E000002050B900BF502080F31188BFF34F8FC7
:1055F000BFF36F8F00BF00BFFEE76868001B7860D5
:105600006C603846FFF720FD184968680968081A79
:10561000164908600846006816490968884203D29E
:1056200012480068134908600F4968680968084310
:1056300068600020286001F01DFB08F0070008B931
:10564000012000E0002050B900BF502080F31188F5
:10565000BFF34F8FBFF36F8F00BF00BFFEE7404621
:10566000BDE8F0818C000020980000209000002010
:10567000840000209400002070B50446254654B9EB
:1056800000BF502080F31188BFF34F8FBFF36F8F9F
:1056900000BF00BFFEE700F0DFF9EE6900F006FA98
:1056A000304670BD001F4FF080730360001F21F073
:1056B00001030360001F054B036014380260001FE4
:1056C0006FF0020303602038704700006554000843
:1056D00070B504460D46012D02D10120A06501E000
:1056E0000020A0652946206D00F0FAFB70BDF8B5DA
:1056F00004464FF47A71206E4843B0FBF1F501F097
:105700005FF906460095002332460121206D01F025
:105710008BFBF8BD38B504464FF47A71206E4843D0
:10572000B0FBF1F5009500231A460321206D01F02E
:105730007BFB38BD10B5044600BF02E0012000F03D
:10574000A9FA074800780028F8D00020044908701A
:1057500004A0FDF7E5FB01200149087000BF10BD62
:10576000D80000206C65696E756F2074696D657274
:105770002063616C6C6261636B0D0A00F8B50546CD
:1057800000BF02E0012000F085FA2E4800780028D2
:10579000F8D000202B4908702BA0FDF7C1FB012099
:1057A0002849087000BF2846FEF71EFA0446CCB10F
:1057B0002D484088401E2C49488000BF02E001204F
:1057C00000F068FA1F4800780028F8D000201D4932
:1057D00008702548418825A0FDF7A2FB0120194942
:1057E000087000BF00BFA4B900BF02E0012000F0B4
:1057F00051FA144800780028F8D0002011490870A8
:1058000021A224A125A0FDF78BFB01200D490870E2
:1058100000BF00BFA08B0090E289A189D4E9046396
:10582000A069B047207A60B94FF0FF30A0801821FE
:1058300004F10C00FAF77FFD142104F12400FAF7BB
:105840007AFDF8BDFE0000200D0A2D2D2D6C656936
:105850006E756F2074696D65722063616C6C626136
:10586000636B2D2D2D0D0A00F47F0020706F7020CA
:10587000706F73745F746F74616C5F6E756D203DD3
:105880002025640D0A00000074656D705F65766503
:105890006E7400004E554C4C000000000D0A2D2D7A
:1058A0004572726F725F436865636B2825732C20A5
:1058B000257329206572726F7221212D2D0D0A002A
:1058C00000B58DB0284800680068C0F300100028BB
:1058D00048D000BF00200190234800680068019074
:1058E000214800684068019000BF00BF1E48FCF7D7
:1058F00068F91E4800684068C0F12800C0B28DF801
:1059000009009DF809201A490DF10A00FAF7EBFC8D
:105910001749183900231A46486902A900F03AFECF
:10592000012812D000BF02E0012000F0B3F91148B5
:1059300000780028F8D000200E4908700EA0FDF76E
:10594000EFFA01200B49087000BF28210848FAF738
:10595000F2FC2C2102A8FAF7EEFC282204490248A6
:10596000FCF76EFB0DB000BD9C0600205C0700201C
:1059700020CC0020100100200D0A78517565756556
:1059800053656E6446726F6D495352206572726F33
:10599000720D0A0001460A69D1E901309860D1E927
:1059A000010358605068884201D188685060002027
:1059B00008611068401E106010687047034B036058
:1059C000034B0B608023136070470000140100201C
:1059D00068010020034B0360034B0B6080231360BE
:1059E0007047000068030020BC03002000F108019C
:1059F00041604FF0FF31816000F10801C160016139
:105A000000210160704700210161704710B5024616
:105A10000B685C1C0CB9106907E002F1080000E09B
:105A20004068446824689C42FAD944684C604C68D9
:105A3000A160886041600A611468641C146010BD34
:105A400042684A6093688B6093685960916008610E
:105A500003685B1C0360704700BF502080F311880F
:105A6000BFF34F8FBFF36F8F00BF0E480068401C1D
:105A70000C49086008460068012812D10A480068ED
:105A8000C0B208B9012000E0002050B900BF50208A
:105A900080F31188BFF34F8FBFF36F8F00BF00BF3C
:105AA000FEE770479C00002004ED00E00D48006810
:105AB00050B900BF502080F31188BFF34F8FBFF360
:105AC0006F8F00BF00BFFEE706480068401E054913
:105AD00008600846006820B9002080F3118800BFE4
