:020000040800F2
:10000000C8B000206102000889620108412C010883
:100010006D62010837050108497F010800000000F2
:10002000000000000000000000000000A101000826
:10003000B708010800000000FD0100083166010852
:100040007B0200087B0200087B0200087B0200089C
:100050007B0200087B0200087B0200087B0200088C
:100060007B0200087B0200087B0200087B0200087C
:100070007B0200087B0200087B0200087B0200086C
:100080007B0200087B0200087B0200087B0200085C
:100090007B0200087B0200087B0200087B0200084C
:1000A0007B020008356701087B0200087B0200081C
:1000B0007B0200087B0200087B0200087B0200082C
:1000C0007B0200087B0200087B0200087B0200081C
:1000D0007B020008357F01087B0200087B020008D4
:1000E0007B0200087B0200087B0200087B020008FC
:1000F0007B0200087B0200087B0200087B020008EC
:100100007B0200087B0200087B0200087B020008DB
:100110007B0200087B0200087B0200087B020008CB
:100120007B0200087B0200088D0701087B020008A3
:100130007B0200087B0200087B0200087B020008AB
:100140007B0200087B0200087B0200087B0200089B
:100150007B0200087B0200089D0701087B02000863
:100160007B0200087B0200087B0200087B0200087B
:100170007B0200087B0200087B02000800000000F0
:100180007B0200087B020008DFF810D000F08CFB37
:10019000004800473DA50108AFF30080C8B000202B
:1001A0002C4B19680868B0E8F04F80F30988BFF35A
:1001B0006F8F4FF0000080F311887047000000003F
:1001C00008480068006880F308884FF0000080F35A
:1001D000148862B661B6BFF34F8FBFF36F8F00DF35
:1001E00000BF00BF08ED00E0DFF80C00016841F43B
:1001F00070010160704700BF88ED00E0EFF30980F7
:10020000BFF36F8F134B1A681EF0100F08BF20ED5D
:10021000108A20E9F04F106009B44FF0500080F3CD
:100220001188BFF34F8FBFF36F8F1CF073F94FF03E
:10023000000080F3118809BC19680868B0E8F04F25
:100240001EF0100F08BFB0EC108A80F30988BFF3CE
:100250006F8F704734000020EFF305807047000077
:100260000648804706480047FEE7FEE7FEE7FEE750
:10027000FEE7FEE7FEE7FEE7FEE7FEE71967010897
:10028000890100082DE9F05F0546002092469B4653
:1002900088460646814640241BE02846414647469C
:1002A000224600F030FA53465A46C01A914110D304
:1002B00011461846224600F017FA2D1A67EB01087E
:1002C0004F4622460120002100F00EFA17EB0009EC
:1002D0004E41201EA4F10104DFDC484631462A4687
:1002E0004346BDE8F09F10B5441A0346944209D234
:1002F0008418114403E011F8013D04F8013D521E39
:10030000F9D210BD40EA0104A40703D009E010C9E6
:10031000121F10C3042AFAD203E011F8014B03F8AC
:10032000014B521EF9D210BDD2B201E000F8012BF0
:10033000491EFBD270470022F6E710B513460A4665
:1003400004461946FFF7F0FF204610BD421C10F886
:10035000011B0029FBD1801A704710B5002200E074
:10036000521C835C8C5CA34201D1002BF8D1D8B223
:10037000E1B2401A10BD30B504460020034600E04B
:100380005B1C934203D2E05CCD5C401BF8D030BDD7
:10039000034611F8012B00F8012B002AF9D1184669
:1003A000704730B505460020034600E05B1C9342D1
:1003B00005D2EC5CC85C201A01D1002CF6D130BD0E
:1003C0002DE9FE4F804681EA0300C00F0C460090E5
:1003D00021F0004123F00045B8EB0200A94105D20D
:1003E0004046214690461C460B46024623F00040FC
:1003F000104347D0270DC7F30A00C3F30A510290F8
:10040000401A019040286BDAC3F3130040F4801BBC
:100410000098924620B10023D2EB030A63EB0B0B4A
:1004200001985946C0F14002504600F05DF9064679
:100430000D4650465946019A00F075F910EB080038
:100440006141002487EA115284EAE7731A4340D0DD
:10045000009A62B3019A012A4FEA075215DC001B89
:1004600061EB02014FF0004202EA0752CDE900427F
:10047000001C41F5801132462B4600F075F903B09F
:10048000BDE8F08F40462146F9E7001B61EB020111
:10049000001C41F5801300185B412018A2F50017DD
:1004A00047EB030140EAD570B6196D4111E06D08C4
:1004B0004FEA360645EAC0754FEA0752001B61EB6A
:1004C0000201001C41F5801149084FEA3000001973
:1004D000514132462B4603B0BDE8F04F00F035B92C
:1004E0000098012240000023D0EB020263EBE0738E
:1004F000009821464FEAE074B8EB000061EB04017C
:10050000E9E783F000435BE781F0004158E72DE91C
:10051000FE4F81EA030404F0004421F000410094FE
:100520004FF0000B23F0004350EA01045ED052EA82
:1005300003045BD0C3F30A54C1F30A552C44A4F25C
:10054000F3340194A0FB0254C1F3130141F4801170
:10055000C3F3130343F4801301FB024400FB034E77
:10056000840A970A44EA815447EA8357A4FB076840
:1005700002958D0A05FB07854FEA932C04FB0C546A
:100580002705029D4FEA065847EA1637B5EB0805DE
:100590006EEB070C870E920E47EA811742EA831230
:1005A000A7FB0201B6EB0B0164EB00042B0D43EA41
:1005B0000C335E1844EB1C50DA465146E7FB02014F
:1005C000C5F313044FEA0B3343EA14534FEA0432E2
:1005D000019C43EA0603A4F10C040294009CCDE9BB
:1005E00000B400F0C1F803B0BDE8F08F0020014670
:1005F000F9E70EB5C10F80EAE0700844CA07002190
:1006000040F233438DE80E000A460B4600F0ACF88A
:1006100003B000BD0EB540F2334102910021CDE997
:1006200000110A460B4600F09FF803B000BDC1F36D
:100630000A5210B5C1F3130140F2FF3341F48011A7
:100640009A4201DA002010BD40F233439A42A2F2EE
:10065000334203DC524200F056F810BD904010BD0A
:1006600000F0004230F000400AD0C10D01F5607189
:10067000C0F3160042EA0151C20840071143704717
:10068000002001467047000030B5041E71F10004DF
:1006900004DB4FF00044404264EB0101141E73F18F
:1006A000000405DB1C464FF00043524263EB040399
:1006B0008B4208BF824230BD30B5041E71F1000488
:1006C00004DB4FF00044404264EB0101141E73F15F
:1006D000000405DB1C464FF00043524263EB040369
:1006E000994208BF904230BD202A04DB203A00FA2C
:1006F00002F1002070479140C2F1200320FA03F379
:10070000194390407047202A04DB203A21FA02F076
:100710000021704721FA02F3D040C2F1200291403B
:10072000084319467047202A06DBCB17203A41FAC6
:1007300002F043EAE07306E041FA02F3D040C2F16E
:100740002002914008431946704710B5141E73F1FA
:10075000000408DA401C41F1000192185B411A4381
:1007600001D120F0010010BD2DE9F04D92469B46CD
:1007700011B1B1FA81F202E0B0FA80F22032904673
:10078000FFF7B2FF04460F4640EA0A0041EA0B01B8
:1007900053465A46084313D0114653EA010019D074
:1007A000C8F140025046FFF7AEFF05460E465046E0
:1007B00059464246FFF798FF084305D0012004E060
:1007C00020463946BDE8F08D0020054346EAE07634
:1007D0002C4337430A986305E40AA0EB0800002283
:1007E000FD0A44EA47540A3002D500200146E9E7F1
:1007F000010510196941DDE9084500196941BDE8A5
:10080000F04DA2E72DE9F04D00231A461B1A8A414C
:1008100003DB00200146BDE8F08DC1F30A52C1F3AD
:10082000130141F480154FF0000BD10702D10018DD
:100830006D41521E0027044640F2FF11384601EB7D
:10084000620A3E468046024600204FF48011FFF7C0
:100850005AFFC2197141BB1846EB0100B4EB030CFF
:1008600075EB000C04D3E41A65EB000517460E4641
:10087000241908F101006D4180463428E3DDF9199F
:1008800046EB0600091BA84103D24FF0FF32134686
:1008900001E0002213461BEB070046EB0A51BDE8BE
:1008A000F04DFFF752BF0000064C074D06E0E06830
:1008B00040F0010394E8070098471034AC42F6D3A7
:1008C000FFF766FC30EC050850EC050870B58C1895
:1008D00010F8015B15F0070301D110F8013B2A1154
:1008E00006D110F8012B03E010F8016B01F8016B41
:1008F0005B1EF9D12B0705D40023521E0DD401F83D
:10090000013BFAE710F8013BCB1A921C03E013F805
:10091000015B01F8015B521EF9D5A142D8D300203A
:1009200070BD000070B5456882B004460146284697
:1009300007F0F8FD68B123680F2B59D00BDD282B89
:1009400045D0B3F5107F3CD0112B49D0204608F09C
:1009500099F902B070BD0B2B20D00E2BF6D1E368B5
:100960001A6859680D2A53D0202A31D10029284607
:100970004FF480717DDD07F0C1FE284600F06AFF6C
:1009800002AB846A43F8040D184601F045F8A2074B
:10099000DFD52846012109F0B7FCDAE7284600F048
:1009A00059FF02AD03466830019300F035FD55F85C
:1009B000040D03216C3000F055FD284601F02CF8A1
:1009C000C4E7324B214628461B689847C1E7E368D5
:1009D000002BBBD128464FF4807107F087FDB5E7A7
:1009E0002B4B1B68002BB4D0214628469847B0E714
:1009F000284600F02FFF02AB43F8040D426E146846
:100A0000184601F009F8002CA3D02846A047A0E71B
:100A10000029DDDD4FF48071284607F06FFE28467F
:100A200000F018FF02AC866A44F8040D204600F07E
:100A3000F3FFB10703D50121284609F065FC4FF407
:100A40008071284607F052FD284600F003FF034658
:100A500020461E8E9C6A019300F0DEFF304604F0B3
:100A6000EFF8A3077FF575AF2846022109F04CFC8B
:100A70006FE707F03BFD284600F0ECFE02AB846A0E
:100A800043F8040D068E1846E6E700BFD0010020AB
:100A90006C9B00202DE9F04FB0F90A60B0F90C70A2
:100AA0008569B0F90E80B0F91090B0F908A087B050
:100AB0008B4616441F4404464C3501F0F7FFDFF81F
:100AC000CCC0CDF800B04FF0000E4246394630465B
:100AD00003954B46CDF808C0CDF804E007F0D4FFED
:100AE000804628B904F098FD404607B0BDE8F08F75
:100AF00000F0B0FE244F0590514610223E1D07F035
:100B000019FE0DF118090FCE59F804ED0EF1340558
:100B10000FC50FCE0FC596E80F0085E80F007B6B61
:100B2000CEF86430484600F077FF7B6B40465B6848
:100B3000984704F071FD656801F0B8FF404600F089
:100B400089FE846E049004A8059400F065FF294690
:100B5000484605F09BFF0028C4D0059B9C4209D065
:100B6000404600F077FE059A8266034604A8049387
:100B700000F052FF404609F041F804F04DFD4046B8
:100B800007B0BDE8F08F00BFD001002025090008A4
:100B9000F0B5954A8168436852F8216089B00446EF
:100BA000122B3FD8DFE803F0AE3E3E3E3E0A963EB3
:100BB0003E3E3E3E3E3E3E3E3E3E4100F569002DFD
:100BC00040F0B280371F57F8040F03F0C3FF04F161
:100BD00010000FC85B1B521B29442844013501F04B
:100BE000F1FC022DEFD132696169E3690192A269DA
:100BF0002069F76800970B445B100231521B2844B0
:100C000001F0E0FBE3696169B2690192A2692069C0
:100C100074690094194449100131023B521B284465
:100C200001F0D0FB002009B0F0BD006800F012FE1A
:100C3000856E0490002D00F0CF80A368B0F95C7041
:100C4000002B00F0C780032B14BF0023022300EB0E
:100C50008303406D1C6C03F09BFF204603F07AFF7A
:100C600008AC06A801F026FEB6F81CE0BDF8181086
:100C7000BDF81C20BDF81A0054F8106DBDF81E30E8
:100C80007144CEEB02020230023BADF81810ADF811
:100C90001C20B6F95E10B6F96020ADF81A0006A85F
:100CA000ADF81E3003F064FA204600F0B5FE0220D5
:100CB00003F0AEFF284600F0CDFD08AC06A944F8CD
:100CC0000C0D3A4601F000FA204600F0A5FE002087
:100CD00009B0F0BD006800F0BDFD049020680AF086
:100CE0008BFDA8B9049B5D6F05B9DD6E04A800F00B
:100CF00093FE0023284621681A4601F089F9002056
:100D000009B0F0BD006809F07BFD002009B0F0BD1E
:100D1000A368002B64D1049A136F002B14BF6C23BB
:100D2000682313445D68E1E7B36803937368029333
:100D3000374600F1140157F804090EC901902069E3
:100D4000009505F03DFA002557F8040F03F002FF67
:100D5000F369A26921696069D21A1944284401F033
:100D600005FCF369A2692169E069D21A1944401BA4
:100D700001F0FCFBF369E26961692069D21A194448
:100D8000284401F067FCF369E2696169A069D21A3D
:100D9000401B1944013501F05DFC022DD4D1B0682F
:100DA00003F0D8FEF16920696569E36942185B1AAE
:100DB000013A2944023001F0C1FCF169A269656978
:100DC000E369501A5B1A01302944023A01F0B6FC7B
:100DD000F56908E701233AE704A800F01DFE21E7C2
:100DE000049BDD6E82E700BF88E2050838B5134634
:100DF000002204460D461846114601F0DFF8294648
:100E000002462046BDE83840AFF3008000B9704785
:100E100070B5054682B00C46164601F047FE2846DE
:100E200000F018FD022C019006D901A800F0F4FD95
:100E300004F0F2FB02B070BD1A34A4002044043068
:100E400000F0EAFA019B1C442846666008F0D6FED2
:100E5000EBE700BF38B5204B204C1D6801F026FEA3
:100E6000284606F0A9FF04F0D7FB1D4B1D6801F0D2
:100E70001DFE284606F0DAFF04F0CEFB01F016FE58
:100E8000236801221A7604F0C7FB01F00FFE2368E5
:100E900000259D8504F0C0FB01F008FE23685D85F8
:100EA00004F0BAFB01F002FE284606F0D7FF04F07A
:100EB000B3FB0C4B1D6801F0F9FD236805B1DD6142
:100EC00004F0AAFB01F0F2FD236800229A76BDE847
:100ED000384004F0A1BB00BF609A0020C001002090
:100EE000BC010020B80100202DE9F04F4F4E3368BF
:100EF000DA69B3F92250D469B4F80CB083458BB0E9
:100F00007DD8E18981427AD3216808914FF0FF3181
:100F1000CBEB000B0791BBF1FF3F6AD0177EB3F913
:100F20002A80A27CB3F9249094F810A017FB02F356
:100F30004046069306F092FF3368069A0899099096
:100F400002FB0B109A6BDB6904900592A27C039262
:100F50004FF0010BCDF808B0DA7E01929B7E009332
:100F600028463B465246494606F08AF90798013022
:100F70001CD048F0020006F071FF2C4A0798126856
:100F80000899069B03FB0013916BD26905910493AA
:100F9000A37C0393CDF808B0D37E0193937E009396
:100FA00052463B464946284606F06AF933681F4FC9
:100FB000DB695A7E1B7E9A4214D9B8F1020F11D018
:100FC00088F0040006F04AFF3B68DB69187ED97E92
:100FD0009A7E5B7E00FB01910AFB02524B4428463D
:100FE00006F05EFB9DF8240006F038FF3368B3F985
:100FF0002250627C15445D840BB0BDE8F08FA1687F
:101000000029F6D00F88B842F3D3B1F802E0864544
:10101000EFD34968C01B80B26768089701EB80076F
:1010200031F920B0B7F90210079174E7C001002030
:10103000044B1B68DB69DB6909B11A7C0A60587CC8
:10104000704700BFC001002002230B80704700BF23
:10105000C3699A898A4202D8DA898A4211D2986889
:1010600018B10388994201D20020704742888A4211
:10107000FAD3C91A436833F82100C043C0F3C03023
:1010800070470120704700BF2DE9F04F3E4D2B689F
:10109000DA69B3F92A60D36989B043B11A889042FA
:1010A00002D35988814205D29B68002BF6D109B042
:1010B000BDE8F08FD3F80480DFF8CC90841A08EBF9
:1010C000C407304697F802B006F0C8FE824628688A
:1010D00018F83420D0F81CE0D0F838C09EF818304A
:1010E000B0F92410B0F92200CDF814C006934FF0E7
:1010F000010C7B680493CDF80CB0CDF808C09EF8C5
:101100001BC0CDF804C09EF81AE0069BCDF800E0A5
:1011100006F0B6F82B68DA69537E92F818B05B4592
:1011200023D9022E069320D0D17E079101F0C6FB71
:10113000064601F08DFB03F00DFDD9F8002018F8EC
:1011400034C0D469B2F9220094F81BE00799B2F9CF
:101150002440069B0CFB0E0201FB034301FB0B41E9
:1011600006F09EFA304603F0F5FC504606F076FE97
:101170002B687978D8695A8C807E00FB01225A84CA
:1011800009B0BDE8F08F00BFC0010020114B70B462
:101190001B68DD69EB6943B11A88904202D35C8811
:1011A000844205D29B68002BF6D1184670BC70476C
:1011B0005E68AC7E821A06EBC2035B7813FB04F018
:1011C0000029F3D016F8323014FB03F30B6070BC27
:1011D000704700BFC001002001230B80704700BF93
:1011E000C06950B103888B4202D843888B4203D236
:1011F00080680028F6D17047012070472DE9F0473C
:10120000234E3368002B3FDD224D234F2C68D7F847
:101210000090C3EB431804EB880808F10C080C3469
:101220004FF0000AA4F10803742218464946FFF75C
:101230005AF8221F2063A06344F80CAC6263E46098
:101240007C34A045EED10024A04603E092B1326880
:10125000904514DA10F004F82B681A59904203EB09
:10126000040108F1010804F17C04EFD10431396074
:10127000BDE8F087086004313960BDE8F0871946A1
:1012800004313960BDE8F087024B034F1968EDE780
:101290002C020020249C0020C0010020F8B5194F2A
:1012A000194B1A4E384640F80C3F05F0DBFB34680A
:1012B000C4EB4414A400204600F006F9144B386037
:1012C00022461B68002198474FF0FF3373600FF0F0
:1012D000D1FF3368002B11DD0024254603E072B1F5
:1012E00033689D420ADA0FF0BBFF3B681A599042FF
:1012F000234405F1010504F17C04F0D1F8BD186028
:10130000F8BD00BF249C002089F300082C020020B7
:101310003802002000B9704710B5044601F0C6FB42
:1013200020460AF047FE044604F076F9204610BD38
:1013300070B5054601F0BAFB25B9002404F06CF93C
:10134000204670BD01F0B2FB28460AF033FE044689
:1013500004F062F9002CF0D0144E1549F269736B59
:101360000132F26113F83420013203F8342003EB28
:10137000C4032A465D680B6805F108000021984700
:101380002968726B12F83130012B01D9F06930B93C
:10139000013B02F8313004F03FF9204670BD0138BE
:1013A000013BF06102F83130F5E700BFC49D002039
:1013B00038020020024B21F0030183E8030070474C
:1013C0004C9A002000B9704770B50D4C054601F0ED
:1013D0006DFB636BEE003344596848680AF03CFCCF
:1013E000626B6368616A1644013300206360716058
:1013F00002F835006562BDE8704004F00DB900BF29
:10140000C49D002028B1034AD36B036003B1586028
:10141000D0637047C49D0020F8B5054601F046FB37
:101420002C68B4B10E4E01F041FB736BE7003B44F6
:10143000596848680AF010FC716B7368726A0F444F
:101440000133002073607A6001F83400746204F0A4
:10145000E3F800232B60BDE8F84004F0DDB800BFDE
:10146000C49D002000292BDD2DE9F0470025154FF4
:101470008A46041FA94601F019FB54F8046F013590
:10148000B6B101F013FB7B6B4FEAC60843445968C1
:1014900048680AF0E1FB796B7B687A6A884401331B
:1014A0007B60C8F8042001F836907E6204F0B4F83E
:1014B000C4F8009004F0B0F8AA45DCD1BDE8F0878C
:1014C000704700BFC49D0020F8B5894E96F82830BB
:1014D0000446002B2FD00334356CF26B24F0030448
:1014E0000434A54238BF254662B152F8043C9D42FF
:1014F000144604D114E054F8043C9D4210D02468F2
:10150000002CF8D1F368B46B1C4454F8041C611A25
:101510000B68002B65D14B689D426CDD002408E010
:1015200023680BB161685960616801B10B60A24228
:1015300053D02046F8BD6F4B9A685868012186F851
:1015400028100AB982089A605A253562102720228D
:10155000402519683764B264356580274FF480727E
:101560004FF40075B7653266B5664FF480674FF487
:1015700000624FF48055A1F114033767B267C6F8D3
:1015800080504FF400574FF480424FF4004503441D
:10159000C6F88870C6F89020C6F898504FF4803787
:1015A0004FF400324FF48025C6F8A070C6F8A8208A
:1015B000C6F8B050022201254FF40027B1637363CF
:1015C0003261F060C6F8B8705D60756275600AF0EF
:1015D00043FB0CF019FC35637DE72368F363204679
:1015E000F8BD00200EF040F954F8041C611A0B6895
:1015F000002B93D18FE7D6F8B8703D4A581B041DD5
:10160000BB420C4472D2D2F8B070BB426CD2D2F85A
:10161000A870BB4266D2D2F8A070BB4260D2D2F8AA
:1016200098709F425AD9D2F89070BB4254D2D2F8E7
:101630008870BB424ED2D2F88070BB4248D2926FC3
:10164000934243D2376F2A4ABB423DD2976EBB4288
:1016500038D2176EBB4233D2976DBB422ED2176D74
:10166000BB4229D2976CBB4224D2126C93420CD25B
:10167000F2687369521B2B44F260736110B944F82D
:10168000045C56E70AF0E8FAF9E700223768D1F877
:1016900008E0FB1A3360CB68BEF1000F01D0CEF832
:1016A000043013B1C3F800E0E2E706EBC202C2F86F
:1016B00044E0DDE70122E9E70222E7E70322E5E76C
:1016C0000422E3E70522E1E70622DFE70722DDE760
:1016D0000822DBE70922D9E70A22D7E70B22D5E760
:1016E0000C22D3E70D22D1E70E22CFE70F22CDE760
:1016F000C49D00204C9A0020F8B54A4C94F828303C
:10170000002B3DD0D4F8BC30464A3BBBD2F8B430B5
:1017100023BBD2F8AC300BBBD2F8A430F3B9D2F86B
:101720009C30DBB9D2F89430C3B9D2F88C30ABB965
:10173000D2F8843093B9D36F83B9536F73B9E36E22
:1017400063B9536E53B9D36D43B9536D33B9D36C89
:1017500023B9536C13B96FF00B00F8BD9B68002BD5
:10176000F9D0002201E09B6843B159689B6891421F
:10177000104684BF0A461046002BF4D10C38F8BD41
:10178000294B9A685868012184F828100AB9820800
:101790009A601968A1635A261022202526622264C5
:1017A000A564402780264FF480724FF40075A1F1A4
:1017B00014032765A6652266A5664FF480674FF47B
:1017C00000664FF480524FF4005503442767A66724
:1017D000C4F88020C4F888504FF480474FF4004686
:1017E0004FF480324FF40035C4F89070C4F898601C
:1017F000C4F8A020C4F8A850022201254FF4802785
:101800004FF4002663632261E060C4F8B070C4F84E
:10181000B8605D60656265600AF01EFA0CF0F4FA6B
:1018200025636FE7C49D00204C9A002030B1044B23
:101830005B6B03EBC000436858680C38704700BF0F
:10184000C49D0020024A936901339361704700BF31
:10185000C49D0020074AD169536B0131D16113F84F
:101860003020013203F8302003EBC0035868083001
:10187000704700BFC49D0020F8B5584C01F016F920
:1018800094F82830002B57D0D4F8BC30534A9BBB77
:10189000D2F8B43083BBD2F8AC306BBBD2F8A430F2
:1018A00053BBD2F89C303BBBD2F8943023BBD2F868
:1018B0008C300BBBD2F88430F3B9D36FE3B9536FDC
:1018C000D3B9E36EC3B9536EB3B9D36DA3B9536D36
:1018D00093B9D36C83B9536C73B96FF00B03404960
:1018E000DA1781FB0313C2EB6313246A04FB03F4CE
:1018F00003F092FE2046F8BD9B68002BF5D0002235
:1019000001E09B6843B159689B689142104684BFCF
:101910000A461046002BF4D10C38B0F5800F034670
:10192000DDD8226A2E4B02FB00F0A3FB00235C09EA
:1019300003F072FE2046F8BD2A4B9A6858680121D0
:1019400084F828100AB982089A601968A1635A2697
:101950001022202526622264A564402780264FF4A9
:1019600080724FF40075A1F114032765A665226605
:10197000A5664FF480674FF400664FF480524FF431
:10198000005503442767A667C4F88020C4F8885030
:101990004FF480474FF400464FF480324FF4003547
:1019A000C4F89070C4F89860C4F8A020C4F8A85097
:1019B000022201254FF480274FF400266363226141
:1019C000E060C4F8B070C4F8B8605D6065626560DE
:1019D0000AF042F90CF018FA256355E7C49D00207F
:1019E0001F85EB514C9A00201028064B06D95A68E7
:1019F0005208904228BF10469860704710209860A7
:101A0000704700BF4C9A0020024A9369013B9361E2
:101A1000704700BFC49D002030B403680A4A53F8E1
:101A2000085C0446506B10F83530012B03D9D1699E
:101A300009B10139D161013B00F83530002210466F
:101A4000226030BC704700BFC49D0020034B5B6B1D
:101A500003EBC00040680830704700BFC49D002001
:101A60002DE9F04114460646884601F01FF820464D
:101A700000F030FFE8B9A7001B4D3B1905EB8303CD
:101A8000DA68B24206D11B69434503D1BDE8F04193
:101A900003F0C2BD3B1905EB83035869D0B93C4440
:101AA00005EB8404E660C4F81080BDE8F04103F063
:101AB000B3BD0D4B04EB840403EB840463689A68A4
:101AC0005968C2EB0802711A03F072F8BDE8F041E0
:101AD00003F0A2BD5B689A685968C2EB0802711AEC
:101AE00002F080FCDBE700BFA89C0020C3B2CAB2B2
:101AF0009A1A92B230B415B2002DBCBF524215B240
:101B0000C0F30723C1F307229B1A9BB2090C1AB238
:101B1000C1EB1041002A89B20CB2BCBF5B421AB2C1
:101B2000002CBCBF49420CB202FB02F205FB0520AF
:101B3000A1B201FB010030BC704700BF2DE9F041AC
:101B4000002182B0084600F023FF00F0AFFF042020
:101B500006F084F9174BDB68DD6C1C6DA5F57F572B
:101B6000A4F57F5605F57F5504F57F5480463F3F29
:101B70003F353F3E3F346846ADF80070ADF8045045
:101B8000ADF80260ADF8064009F03CFA48B12346D2
:101B90002A463146384605F083FD09F0C7F800288B
:101BA000F5D1404606F05AF903F036FD02B0BDE823
:101BB000F08100BFB40100202DE9F047044682B057
:101BC0000D461646002B38D09A46009626680B9B89
:101BD0000A9A51462046B047074618B9384602B01F
:101BE000BDE8F08707F02AFB618A8046384606F098
:101BF00085FD384608F070FE013D404608F06CFE59
:101C0000002DC8BF4FF0000904DC1AE008F064FEA4
:101C1000013D16D054F81C6FCDF8009000232046EB
:101C20001A464146B04706460028EFD1384607F02D
:101C300059F8304602B0BDE8F08707F00DFB824648
:101C4000C3E740461D2108F0B9FCBAF1FF3FC5D0FB
:101C500000F02CFF07F086FB60B9BA4502D0384689
:101C600008F04EFD03F0D8FC384602B0BDE8F0871E
:101C70000028F4D0FFF7EAFE80698742F8D1F1E747
:101C8000012B12DCF8B506461C2017460C461D46F3
:101C9000FFF71AFCB8B154B1046100238360856179
:101CA0008782C66003604360F8BD00207047074B21
:101CB00053F825200AB9F0E71A461368002BFBD128
:101CC00013690361E9E70020F8BD00BF9C9E002076
:101CD000012B3BDC2DE9F84381461C2090460F4642
:101CE0001E46FFF7F1FB054600287FD0414A002F32
:101CF00031D00023DFF804E152F8264003609EF85B
:101D0000001007618E428661A0F81480C0F80C9024
:101D10004360836002DB731C8EF80030002C5DD0C2
:101D200021464C68002CFBD1D9F80000CB681B6819
:101D300083422CDD09680029F8D148B92E4B1636AC
:101D40001A68284642F82650BDE8F88300207047FC
:101D50002846BDE8F88352F82610002930D00846FE
:101D600000E018460368002BFBD1DFF890E0006923
:101D70002B6028619EF80000AE618642A5F81480B1
:101D8000C5F80C906B60AB60CBDB0C46C3E70AD0A8
:101D90004B6843B31D606B608D4214BF0B4600233C
:101DA0004D602B60C9E7B8F1010FF1D104E0D968AB
:101DB0000C6884421946EBDB0B68002BF7D1E7E790
:101DC000DFF838E001609EF8003086619E42A0F89E
:101DD0001480C0F80C9041608160D6DA42F8265039
:101DE000D9F80000A9E742F82650D5E70020BDE861
:101DF000F88300BF9C9E0020C0010020959E00201B
:101E0000FFF700BB00283CD070B48469012C03DDCF
:101E10000123184670BC70471E4B1F4D1A78944220
:101E2000A4BF621C1A7055F824300BB92FE013467A
:101E30005A68002AFBD1C268116802E01B68002BB7
:101E4000E6D0DA6812689142F8DB0DD05A68DAB150
:101E500010604260984214BF1A4600225860002366
:101E6000026070BC18467047828A012AEED104E0F5
:101E7000D3681E68B1421346E8DC1A68002AF7D11D
:101E8000E4E701231846704745F82400E2E745F8E7
:101E90002400BEE7959E00209C9E002000284DD087
:101EA0002DE9F041DFF89CE0254F9EF80060BC462C
:101EB00002E02846002D27D084690568012CF8DC53
:101EC000B44257F82430A4BF661CF6B20BB932E016
:101ED00013465A68002AFBD1C268116802E01B68E9
:101EE000002BE6D0DA6812688A42F8DC10D05A6813
:101EF000A2B110604260984214BF1A460022586096
:101F000002602846002DD7D18EF80060BDE8F08130
:101F1000828A012A0BD05A68002AEAD147F82400A5
:101F2000E9E7D368D3F8008088451346DFDB1A68F9
:101F3000002AF6D1DBE74CF82400BAE7704700BF6F
:101F40009C9E0020959E00200F4A816952F8213006
:101F500098420AD042680AB103681360036803B16B
:101F60005A600023036043607047036842F82130E1
:101F70002BB100225A604268002AEED1F0E7426895
:101F8000002AEAD1EDE700BF9C9E002000207047A8
:101F900001280EDC084B53F8200058B1C3681B68B9
:101FA0001BB908E0C3681B6823B100680028F9D199
:101FB00070470020704770479C9E0020F0B583B0AA
:101FC000F8B104460C2016460F46FFF7B1F9054656
:101FD00010B9284603B0F0BD00F068FD2846FFF7B1
:101FE00039FC034602A8094A40F8043D5C601F81A1
:101FF0005E811A60FFF710FD03F00EFB284603B068
:10200000F0BD0546284603B0F0BD00BF98E20508C4
:1020100000B970472DE9F04182B01E4615460C46C6
:102020000746FFF717FC02AB026843F8040D184699
:10203000D2F80080FFF7F0FC33462A4621463846A6
:10204000C04702B0BDE8F0812DE9F84307460FF024
:102050000BF907440FF008F93E1A002EDFF86090E4
:10206000DFF8608022DD00F03BFBD9F800309E42B3
:10207000A8BF1E4600F01AFDD8F80040FFF7E2FBAB
:10208000B4B1254603F0C8FA013DFBD130460FF04C
:10209000E1F800F00BFD013CFBD1FFF7B5FC03F0CC
:1020A000BBFA0FF0E1F83E1A002EDCDCBDE8F88345
:1020B00030460FF0CFF8FFF7A7FC03F0ADFAF0E7DA
:1020C000CC010020289C002020B3F0B50C4683B042
:1020D0000546164600F0EAFCD4B1204608F0ECFBB9
:1020E000074638B168463A46214604F087FB684601
:1020F00008F0E2FB3246214647F6FF73284603F01C
:1021000023FD384608F0D8FB03F086FA03B0F0BD93
:102110002746EFE7704700BF08B100F001B87047ED
:102120002DE9F04F89468BB01546044603921F46B1
:1021300000F0BCFCB9F90030B9F90410B9F9060097
:102140000193CE1A0291B9F902B0059000F0CCFBD0
:1021500015F00C0806F10106049076D11FFA80FAFA
:10216000484608F0A9FB02460490A8B10198002156
:102170000B4660F30F01029860F30F0305986BF3B1
:102180001F4160F31F43069106A84946079304F0D8
:1021900035FB06A808F090FB039B03F003080AF147
:1021A000FF33039343461FFA8BF5B0461E4615E0F6
:1021B000022E34D01EB9B9F80030ADF820302046D8
:1021C000594608AA03F066FC20463A46414604F008
:1021D000C9FC044455442378ADB273B33A46414632
:1021E000204604F029FD039BBDF80420ADF8202013
:1021F0000146EB18BDF80820ADF822508346204672
:10220000ADF82420ADF8263004F056FA012ECFD1D7
:10221000B9F804300133181AADF82000CFE7B9F946
:102220000010B9F904305B1A181A013000EBD070B5
:1022300001EB6000ADF82000C1E7049808F03CFB1A
:1022400003F0EAF90BB0BDE8F08FA24600F02EFCD7
:102250003A4631465046002504F084FC40B18244A1
:102260003A4631465046013504F07CFC0028F6D150
:1022700003F0D2F9B8F1080F08D0B8F10C0F0FD065
:10228000B8F1040F02D0BDF810A069E7BDF810A0A6
:10229000059B15FB0AF501335D1B0FFA85FB5FE714
:1022A000059B0499CBEB0303013305FB113505EBCB
:1022B000D5750BEB65050FFA85FB1FFA81FA4FE721
:1022C0002DE9F04FDFF8F49089B0044690460F46B0
:1022D00000F0ECFBD9F800302088DA6C1D6D6388C3
:1022E0001744A844421E013B3A44434406A8ADF8B3
:1022F0001870ADF81A80ADF81C20ADF81E3008F04B
:1023000081FE00284ED0DFF8B8A0CB461AE040F09E
:10231000020002F031FC216921B3D4F80CE0A66878
:10232000638822888DE840400120039002900E6867
:1023300038464146B047284602F01EFC08F0F6FC3D
:1023400000282FD00020E66802F016FC054616B1E2
:102350003379002BDBD125F0020002F00DFC21695E
:102360000029DAD1D9F80020DAF80030527CE06890
:1023700021469847E188D0B163882288A6680590F5
:10238000A0880291012103900191009138464146B5
:10239000049604F075FF284602F0EEFB08F0C6FC38
:1023A0000028CFD103F038F909B0BDE8F08F01293A
:1023B00004BFDBF80030986BDEE700BFC0010020EF
:1023C000B40100202DE9F04F91B081461E460F4622
:1023D000904600F06BFB644B1C68E56C246DA01903
:1023E000E11905EB090305EB0802044601900EA86C
:1023F000079308920291ADF83830ADF83C20ADF863
:102400003A10ADF83E4008F0FDFD002800F0918044
:10241000019B029A9DF868409DF86C70C2EB030B1B
:102420001A9AC2F307201B9AC2F307261A9AC2F31C
:1024300007411B9A0BEBDB735B10C2F3074E1A9A32
:102440000BFB04353C1B120E06940BFB0034301AB8
:1024500003900BFB01300BFB02330D931B9B0A9582
:10246000C1EB0E01C2EB13630B940C900491059326
:102470005E4600F023FA1A9B1B9A0990934269D09A
:10248000002E52D0029D019A95425BDC0AAF0246B3
:1024900097E880074FF0010B06E00BF1010B019B61
:1024A0000135AB4222462FDB9AFBF6F399FBF6F49B
:1024B0001B0697FBF6F143EA044398FBF6F441EA66
:1024C000042405991C43039B8A4404999844029B65
:1024D00089440699AB4210460F44E0DA9442DCD0BE
:1024E00005F0A4FCBBF1010FCBEB050105F1FF33B7
:1024F000089A079822D005F0D3F8019B0135AB422A
:102500004FF0010B2246CFDA204605F08FFCBBF1DD
:10251000010F19D0019B089A0798CBEB03010131F9
:1025200005F0BEF8099805F081FC08F0FFFB0028D3
:102530009FD103F071F811B0BDE8F08F691E05F06E
:1025400025F8ACE705F072FC089A0199079805F0A8
:102550001DF8E7E7184605F069FC019B089A029907
:10256000079805F09DF8DDE7C0010020F0B5144F95
:1025700083B006460D46144600F098FA3B68196D84
:10258000DA6C0E4433B2154414446846ADF800507A
:10259000ADF80440ADF80230ADF8063008F032FD79
:1025A00050B13B685B6E22461B683146284698470F
:1025B00008F0BCFB0028F4D103F02EF803B0F0BD06
:1025C000C00100202DE9F04782B0044689469246BA
:1025D000984600F06BFA1E4B1F683E7EFD6C3F6D07
:1025E000013EB6B22C44B9445544B844A11B7219FB
:1025F000C6EB090368464644ADF80010ADF8042068
:10260000ADF80230ADF8066008F0FCFCD8B109F175
:10261000010708F1FF362A464946204604F0B6FF76
:102620002A464146204604F0B1FF3246394620464C
:1026300005F00CF832463946284605F007F808F050
:1026400075FB0028E7D102F0E7FF02B0BDE8F08794
:10265000C001002070B582B0064614460D4600F059
:1026600025FA104B1A68D36C126D1E4433B2154410
:1026700014446846ADF80250ADF80640ADF800309D
:10268000ADF8043008F0BEFC40B122462946304681
:1026900004F0DCFF08F04AFB0028F6D102F0BCFF92
:1026A00002B070BDC001002030B585B000232A22E1
:1026B0000D4669460193029303930092044607F086
:1026C0006DFF039B13B1012283E8240000F0EEF9B3
:1026D000204608F019FA02F09FFF05B030BD00BF98
:1026E0002DE9F041124F134EDFF84C8000253C6875
:1026F0001CB1A047041C18BF012406F013FC33686A
:10270000002818BF01244BB1984738B1D8F80030E1
:1027100013B1012498473CB10125E8E7D8F800300F
:10272000002BF7D1002CF7D12846BDE8F08100BF7F
:10273000B89E0020BC9E0020B49E0020F0B583B05F
:10274000074616461C460D4600F0B0F9104B1B68B4
:10275000DA6C1B6D174416441D441C446846ADF8E2
:102760000070ADF80460ADF80250ADF8064008F016
:1027700049FC48B1234632462946384604F090FFCA
:1027800008F0D4FA0028F5D102F046FF03B0F0BDFE
:10279000C0010020002850D0C388013B10B58488B8
:1027A00080681F2B47D8DFE803F0162346314646E2
:1027B000463C4646464646464640464646464646C9
:1027C00046464646464646464610A31002FB0311BF
:1027D00050F8210010BD02FB04F200EBD104C84305
:1027E000A35C00F0070023FA00F000F0010010BD28
:1027F00002FB04F200EB91046FEA4100A35C00F0DD
:10280000060023FA00F000F0030010BD02FB04F202
:1028100000EB5104CB07A05C4CBF00F00F00000997
:1028200010BD02FB0404605C10BD631002FB0311C9
:1028300030F8110010BD002010BD7047034B53F855
:102840002000C36808219B6A184700BF9C9E002097
:1028500010B500F02BF904F063FF05F0EFF8044623
:1028600002F0DAFE204610BD10B5044600F01EF955
:10287000054B1B68DB6900215B68204698470446CE
:1028800002F0CAFE204610BDC001002038B5044643
:102890000D4600F00BF9064B1B68DB6929465B68A7
:1028A00020469847044602F0B7FE204638BD00BFD8
:1028B000C001002008B106F099BC704710B500F0C7
:1028C000F5F804F035FF05F0B9F8044602F0A4FE6F
:1028D000204610BD01289ABF024B53F8200000206B
:1028E000704700BFDC9B002010B500F0DFF8044B00
:1028F0001B68DB695C7E02F08FFE204610BD00BFC6
:10290000C001002070B504460E46154600F0CEF812
:1029100020462A46314604F077FF044610B10023D2
:1029200033602B6002F078FE204670BD38B5054656
:102930000C4600F0BBF8064A064BB2F90020B3F98A
:1029400000302A602360BDE8384002F065BE00BF59
:102950008A9E00208C9E0020044834233521612269
:10296000017002718370C370704700BF1C020020A9
:10297000024B53F820301B69186870479C9E00205A
:10298000024B53F820301B69586870479C9E00200A
:1029900038B505460C4600F089F8044B1B685D8489
:1029A0009C8402F039FE002038BD00BFC001002029
:1029B00090B583B000AF344A334B1B6823F001035A
:1029C0001360324B01221A6000BF304B1B68002B92
:1029D000FBD12F4B2F4A1A602D4B1B682E4A934276
:1029E00000D0FEE703F014F82C4B2E221A700EF0E4
:1029F0003FFC2B480CF004F90DF092FC786004F0D9
:102A00006DFF0346002B0CBF01230023DCB204F052
:102A1000ABFF0346002B0CBF01230023DBB2234393
:102A2000DBB2002B09D004F06FFF044604F0B2FFC4
:102A300003461946204605F00BFA0021002002F05B
:102A4000C7F806F0BFFFFEF7D9FB164B1B68002B3B
:102A500012D00DE0134B1B681B68002B03D0114BE9
:102A60001B681B6898470F4B1B685B680D4A136017
:102A70000C4B1B68002BEDD10B4B01221A707B68AD
:102A800018460C37BD4690BD002000E008300240DB
:102A900000300240C2A507F4CDB5E8B5889E0020FD
:102AA000649A0020DC9A0020949E00202DE9F041D9
:102AB000234D6B6823B10EF0D3FBAB68984204D072
:102AC0000EF0F0FB0EF0CCFBA8606B680133012B1D
:102AD0006B6001D0BDE8F0811A4F3B68002B29DD07
:102AE0000024264606E042B33B6801369E4204F1CC
:102AF0007C041FDA0EF0B4FB2B681A599042234471
:102B0000F1D17B68B342E5D0002B10DB2A68C3EB20
:102B1000431302EB8308FFF739FA2B68C8F87800F3
:102B20001C44094BA06F04341C60FFF7B7F97E60AA
:102B3000BDE8F08100242646E3E71860E1E700BF26
:102B4000249C00202C020020C001002010B582B07F
:102B500028B9134B1B681C6E14B902B010BD044693
:102B6000FFF7A4FF2046FEF775FE02AB446943F869
:102B7000080D1846FEF750FF1CB902F04DFD02B0DB
:102B800010BD2046FEF766FE02AC826844F8040DD4
:102B9000936898472046FEF73FFF02F03DFDEEE7C1
:102BA000C001002000B97047014A114600F002B888
:102BB00001F0FFFF2DE9F04784B00C4615460646AC
:102BC000FFF774FF002001F0D7FFDFF8E480D8F8AA
:102BD0000030814630461F6EFEF73CFE03680090D1
:102BE000986901F08BFF314B9C42009B04BFB3F905
:102BF0000440B3F906501A895B89ADF80840013AE0
:102C0000013B22442B448246ADF80C20ADF80E3037
:102C1000ADF80A5005F094FE6846FEF7FDFE02A8E6
:102C200008F0F0F948BB504601F068FFFFF73EFF9F
:102C3000002F38D0D8F800301B6E8BBB06F012F88E
:102C40003846FEF707FE04ACD8F8003044F80C0D07
:102C50001F660068FFF7D6F82046FEF7DDFE05F098
:102C60006BF905F0D5F802F0D7FC484601F084FF77
:102C700002F0D2FC04B0BDE8F0872A462146304677
:102C800000F08AFD08F052F80028CCD02A462146F0
:102C9000304600F081FD08F049F80028EDD1C2E788
:102CA00001F01EFFCAE701F01BFFDCE701F0FFFFA8
:102CB000C00100202DE9F04385B0064690469946B4
:102CC0000F46FFF7F3FE1B4A1B4B1268507C53F86C
:102CD000204001E0246814B3E3681A68042AF9D19B
:102CE000DB6A0121204698470546F0B12469A368B4
:102CF0009847124B0195013006BF1C46012500255F
:102D000002944B46424639463046009500F0C0FBDF
:102D1000044602F081FC204605B0BDE8F083FFF7D1
:102D200037F9044618B1C368DAE70446F1E72046EC
:102D3000F2E700BFC00100209C9E0020B0CC050837
:102D40002DE9F04385B00646904699460F46FFF7B9
:102D5000ADFE1C4A1C4B1268507C53F8204001E029
:102D60002468FCB1E3681A68042AF9D1DB6A0121FE
:102D7000204698470546D8B12469A3689847013092
:102D800018D00C9B0294009301954B46424639465D
:102D9000304600F07DFB044602F03EFC204605B0C4
:102DA000BDE8F083FFF7F4F8044648B1C368DDE7F7
:102DB0000446F1E70C9B054C43F001030C93E0E75C
:102DC0002046ECE7C00100209C9E0020B0CC050806
:102DD0002DE9F04184B00C9C9CB1984617460E46F4
:102DE0000546FFF763FE0B9B01930A9B0294009339
:102DF0003A4643463146284600F04AFB044602F074
:102E00000BFC204604B0BDE8F08100BF00B970475C
:102E100010B582B00446FFF749FE104B1B681B6ECD
:102E20009C4217D02046FEF715FD4369019063B917
:102E30000068FEF7E5FF01A8FEF7EEFD2046FEF76D
:102E4000C1FA02F0E9FB02B010BD184602F0CAFB5D
:102E50000198EDE701F044FEE4E700BFC001002067
:102E60002DE9F04F87B0064692461C468946FFF78B
:102E70001DFE564B1A68564B577CDB57012B3846C4
:102E800040F3978004F030FD0546384604F072FDAB
:102E90000746002E00F08A8005A904A8FFF746FD2A
:102EA000049A059BB6F900C0B6F90200B6F904E031
:102EB000B6F9061015441F44013D2CEAEC73013F9E
:102EC00020EAE072029303927545D4BFC3EB050379
:102ED000C3EB0E038F42D4BFC2EB0702C2EB010269
:102EE0001D4617460135013704B97C42002D4FDDE0
:102EF000002F4DDD109B00932A462346039902982C
:102F0000FFF71EFF8046002848D000F0DDF887421A
:102F1000064604D02D4B1B68986C002851D14046C2
:102F200000F0E0F9DFF8ACB03D4600240EE0AD1B48
:102F3000ACB95046C847DBF800303444002003B138
:102F400098474046FFF72EFEA74212DDAE42EEDD67
:102F50002946404600F0A6F9AD1B002CE9D0039BA2
:102F6000029940461A1900F0EDF94046FFF7EEFDD0
:102F7000DFE74046FFF74AFF002000F0B3F9B74211
:102F800006D0124B1B68986C10B1332108F086FDF7
:102F900002F042FB002007B0BDE8F08F5046C84762
:102FA00002F03AFB012007B0BDE8F08F03960296CD
:102FB0009AE704F043FC0546384604F069FC0746EE
:102FC00067E7322108F06AFDA9E700BFC0010020D1
:102FD000989E0020789C002030B5044683B098B1BC
:102FE000FFF764FD2046FEF735FC036802AD1B6960
:102FF00045F8040D9B68984705F0FEF804462846FE
:10300000FEF70AFD02F008FB204603B030BD00BF0A
:10301000A0B110B5044682B0FFF748FD2046FEF788
:1030200019FC02AB00F1180443F8040D1846FEF732
:10303000F3FC02F0F1FA204602B010BD704700BF69
:1030400010B5044682B0FFF731FD7CB12046FEF793
:1030500001FC02ABB0F9044043F8040D1846FEF73A
:10306000DBFC02F0D9FA204602B010BD044B1B680D
:103070001C6E002CEAD102F0CFFA204602B010BD3F
:10308000C001002010B5044682B0FFF70FFD7CB1EF
:103090002046FEF7DFFB02ABB0F9064043F8040D13
:1030A0001846FEF7B9FC02F0B7FA204602B010BD90
:1030B000044B1B681C6E002CEAD102F0ADFA2046CE
:1030C00002B010BDC001002010B5044682B0FFF769
:1030D000EDFC7CB12046FEF7BDFB02ABB0F90A4027
:1030E00043F8040D1846FEF797FC02F095FA2046C7
:1030F00002B010BD044B1B681C6E002CEAD102F01C
:103100008BFA204602B010BDC00100202DE9F04F1F
:10311000DFF888B189B0064605273046FEF79AFBEE
:10312000034607A8B3F90080B3F90440B3F902904D
:10313000B3F906500793C8EB04040134D3F824A074
:10314000C9EB0505FEF768FC002C05F1010555DD0E
:10315000002D53DDBAF1000F55D106F07DF88642FF
:103160007FD04A4B01934FF0010A494640462B4617
:103170002246CDF808B0CDF800A000F089F98046CD
:103180003046FEF767FB0790C0F82480B8F1000FC7
:1031900060D0836ADFF8089143F48033836207A824
:1031A000FEF73AFC404600F09DF80590504602F0CC
:1031B0008BFA4046FFF72CFF354A364B19781368D7
:1031C00005FB04F29200344C984730462568C9F854
:1031D000006006F005F92060304608F02FFB002261
:1031E00010462560C9F8002002F06EFA059800F03C
:1031F00079F83046FEF72AFC406AF0B9013F8CD1DD
:1032000009B0BDE8F08F5046FEF724FB034608A83E
:10321000B3F9045040F8083DB3F90640FEF7FCFB53
:10322000A8450FD04A464146504600F08BF830463C
:10323000FEF70CFC406A0028E0D000F0BFF809B0AF
:10324000BDE8F08FA145D4D04A464146504600F033
:1032500079F8ECE707A8FEF7DFFB304608F0EEFA56
:10326000CCE704F025FB824604F068FB544503DC00
:1032700085427FF776AFA2468542A8BF05462A461B
:103280005146304607F0E6FA54466AE714E205086C
:103290003802002044020020C09D0020B0CC050868
:1032A00040B1002030B50D4683B028B90C4B1B68E7
:1032B0001C6E14B903B030BD0446FFF7F7FB20467F
:1032C000FEF7C8FAB0F90A300190AB42C8BF458199
:1032D00001A8FEF7A1FB02F09FF903B030BD00BFCB
:1032E000C0010020F0B5164F83B00446FFF7DEFBA7
:1032F0003B681E6EE4B1C6B905F0B4FC2046FEF78B
:10330000A9FA02AD3B6845F8040D1C660068FEF79B
:1033100079FD2846FEF780FB04F00EFE04F078FDF0
:1033200002F07AF9304603B0F0BD01F0D9FBE3E7D3
:1033300001F0D6FB02F070F9304603B0F0BD00BFDB
:10334000C001002070B50D4682B0164628B91A4B50
:103350001B681C6E14B902B070BD0446FFF7A6FBD3
:103360002046FEF777FA36B22DB2C68085800090EF
:1033700004F04EFD009B586930B96846FEF74CFBDF
:1033800002F04AF902B070BDFEF764FA009A0190AB
:10339000B2F90830B2F90A20C280838013B10AB1B1
:1033A0000580468001A8FEF737FB6846FEF734FB30
:1033B00002F032F9E6E700BFC001002000B9704713
:1033C00070B5044684B0FFF771FB2046FEF742FA61
:1033D000014601A8B1F90460B1F906500A894B8988
:1033E000019132442B44013A013BADF80860ADF83D
:1033F0000C20ADF80E30ADF80A50FEF70DFB02A818
:1034000007F000FE40B12A463146204600F0A6F9FA
:1034100007F08CFC0028F6D102F0FEF804B070BD75
:1034200000B9704770B5044684B00D461646FFF7E4
:103430003DFB2046FEF70EFA144B028901909D4297
:10344000438904BFB0F90450B0F90660ADF80850E4
:10345000013A013B2A44334401A8ADF80A60ADF8B3
:103460000C20ADF80E30FEF7D7FA02A807F0CAFD1F
:1034700040B132462946204600F070F907F056FC6C
:103480000028F6D102F0C8F804B070BD01F0FFFFCB
:103490002DE9F04FDFF82C8187B0D8F80040814645
:1034A0008A4617461E461299637C11980022FEF741
:1034B000E7FB00284DD003699B680546984704F058
:1034C0009BFE00FB07F48346FEF7D6F9109B0734FA
:1034D00013F001034FEAD4043FD0002E2CDD002B63
:1034E00042D004FB06F01830FDF714FF034668B322
:1034F0000022029218460393FEF7ACF9024606A892
:10350000029BA2F8049040F8042DA2F806A01781AF
:103510005681D460C2F810B053611560FEF77CFA92
:10352000129B2B61D8F80020039BAB60527CAA61F0
:10353000184607B0BDE8F08F002C34D12046764203
:103540008642A8BF064693B3002ECADC2846FEF783
:1035500057FC002007B0BDE8F08F0028B8BF03304B
:10356000801000EB4000B8E700933A4633465146DE
:10357000484601F0A3FF029004FB06F01830FDF767
:10358000D7FE03460028B5D128460393FEF738FC42
:10359000029B002BDDD01846FDF714FF039B184655
:1035A00007B0BDE8F08F1838B0FBF4F0C7E7009320
:1035B0003A4633465146484601F080FF002E0290BD
:1035C000DADCC3E7C00100202DE9F04F604D614E09
:1035D0002B685B7C91B056F82330089088461446DF
:1035E000D3F81090FEF736F9034610A81A68B3F91D
:1035F0000810126940F8083D526806910792B3F925
:103600000AA0FEF709FA2B685B7C56F82300C36812
:1036100008219B6A9847172810D80328064608BF38
:103620000826D9F8043009930020D9F800300C930B
:1036300001F0FCFF20B111B0BDE8F08F2026F0E7CB
:1036400006992A6808EB0103B2F90C50013B5D1B97
:10365000002DC4BF0B465D1BB2F90830D8BF0D4624
:103660009845BDBFC8EB03016D1A98460021002D97
:10367000E1DD04EB0A03B2F90E00013B1B1A002B3B
:10368000C8BFC3EB0A0AB2F90A309C42BDBF1F1B78
:10369000C7EB0A0A1C460027BAF1000FCBDD069BD8
:1036A000CDF82C9007FB031704EB0A03BF000A9325
:1036B000B24619E00423069A31463046D847012322
:1036C0000022059204960392019300932146CDF8BF
:1036D00008A02A4640461C44069E03F0D1FD0A9BE2
:1036E000A34207EB8607A6D00898FFF791FC0FAB23
:1036F0000193079B0093C2192B462146404602F0D6
:10370000EBFA0646002896D0099B1A46124B9A42BD
:10371000D5D0DDF82C9052464B46294602F0B2F83F
:103720000028CCD1D9F810B0BBF1000FC2D1DDF820
:1037300018B00D955D46A3460C9CB146D9F8000023
:10374000A047013D49F8040BF8D10D9D5C46B6E752
:10375000C00100209C9E00208D7A00082DE9F041D8
:1037600082B00F4690460646FEF774F8036802AC36
:10377000DB6844F8040D16215B6A00209847054673
:103780002046FEF749F91DB1424639463046A84762
:1037900002B0BDE8F08100BF2DE9F04FA1B00D915E
:1037A00010B921B0BDE8F08F92460746FEF752F8F7
:1037B00020AB446943F81C0D1846FEF72DF9384636
:1037C000FFF70AFC0828054602DD002C00F0D9802E
:1037D00001234FF0000B38461F930A93CDF878B0C1
:1037E000FEF738F80168DFF8688409690446D8F8FC
:1037F0000000E3684D68B4F908100F9320AE236908
:103800001491407CB4F90A10099346F8144DD4F889
:1038100014901691FFF712F8D8F800100890487C21
:10382000FFF7AEF804463046FEF7F6F8099A0A9B11
:10383000082A40F2A080102A13468CBF04230223DA
:10384000CDF828B00E93A54200F0AC81D8F8003036
:10385000587CFFF78DF8149B06469800FDF75AFD3B
:10386000129000289DD03846FFF7D2FB0746B9F1E9
:10387000000F00F0F5804846FDF7ECFF169B1C900A
:10388000002B40F38B8100230C930F9BCDF840A0BD
:10389000FB1815931DAB11934FF00108194683686F
:1038A00000221D925B690C9A9847159B0F9A9B1AF0
:1038B0000B93149B8342044600F03181099B012B3A
:1038C00000F0F280002845D01AAB13931298FDF750
:1038D000C1FF099B1A90082B07461D9A40F2D4801D
:1038E0000E9B0B99A34602FB031A81463AF8020B82
:1038F000A847B047BBF1010B49F8040BF6D1089B70
:103900001F2B04D838461A46214601F0F3FE0A9AC6
:10391000059200220392089A1D9802920D9A1A9B12
:1039200010990493104401232246CDF80480CDF869
:10393000008003F0A5FC1398FEF76EF81C981D9B01
:103940008268119957690C9A1C441D94B847044623
:103950000028BBD1159A0F990C9B0A441592109A16
:1039600001321092169A01339A420C9300F016819C
:103970001C98119993E7012A6ED11EAB0E920A93FF
:1039800061E73846FDF766FF20ABB0F9088043F8E1
:10399000100D02460168B0F90A00089018460E6939
:1039A000D2F80CB009920E93FEF736F8A848A94950
:1039B00000687368407C0C9351F820100C692368F0
:1039C0000A93FEF73BFF0828099A40D910288CBFBC
:1039D0002023102309938CBF4FF004094FF00209F4
:1039E000A64200F02D82202D00F09E81102D7FF444
:1039F000D8AE08FB09F0FDF78DFC109000283FF4CD
:103A0000D0AEFDF727FF1E903846FDF723FF1C9030
:103A1000236900F118020B92002B00F022827369D7
:103A2000002B00F01E82B0F908008000FDF772FC48
:103A30000F90002840F069821D900E98FDF7ECFF72
:103A40001EA8FDF7E9FF1098FDF7BCFCA9E60823C6
:103A500009934FF00109C3E70E93CDF828B0F2E6C1
:103A60000A9B05930F9B03930124099B04900293E7
:103A7000149A169B0D9801945146009403F000FC93
:103A80001298FDF79FFC8CE60E9B0B99A14602FB5A
:103A9000031B82461BF8010BA847B047B9F1010987
:103AA0004AF8040BF6D12AE700283FF453AF1796E3
:103AB0000C9F0A9EDDF84090DDF834A0DDF844B09C
:103AC0001395DDF874E00B9D05960EF00700069047
:103AD0000AEB0E00BEF1000FB8BF0EF1070E05EBAA
:103AE000EE0E0F9DCDF810E02246012349460395C6
:103AF000CDF80880CDF80480CDF8008004F02EFACF
:103B00001C981D9B82681C44594653691D943A4673
:103B1000984704460028D4D1139D179E1AE712989F
:103B2000FDF798FE099B1A90082B8146149FDDF83B
:103B30002CA0044629D93AF8020BA847B047013F08
:103B400044F8040BF7D1089B1F2B04D848461A46AB
:103B5000149901F0CFFD0A9A059220AB1A460D98F0
:103B600052F8183D0493144600220392089A0292D8
:103B7000CDF80480CDF800800123149A109903F049
:103B80007FFB2046FDF748FFE4E61AF8010BA84743
:103B9000B047013F44F8040BF7D1D4E71CA8FDF768
:103BA0003BFF6DE73846FFF733FA0746B9F1000FE0
:103BB00000F0A9804846FDF74DFE169B1C90002B97
:103BC00040F39D8000261DABCDF82CA0DDF834A07D
:103BD000B146012598468368CDF874905B693246FA
:103BE00041469847149B834204462DD0099B012BE4
:103BF00055D008B30B9B03EB060B0A9B1D9805934E
:103C00000E9B0F9A039203FB0073099A029204938E
:103C100022465044012359460195009503F030FB9C
:103C20001C981D9B82681C44414653691D94324672
:103C3000984704460028E0D10F9B01361F44169B8D
:103C4000B3425CDD1C98C6E70897B3461F4604E004
:103C5000C00100209C9E0020A3461C9883680BF1A5
:103C600001045B692246414698478742F4D009998E
:103C700002910B990A9A089F0592C6EB0B030F9AC3
:103C8000049731440F9E0392013301950095149AD5
:103C9000504606FB0377264603F0F2FACFE70028EA
:103CA000CAD00B9B089603EB060BDDF874E00A986C
:103CB00005900EF0070006900AEB0E00BEF1000F13
:103CC000B8BF0EF1070E07EBEE0E0F9ECDF810E019
:103CD000224601235946039602950195009504F06A
:103CE0003DF91C981D9B82681C44414653691D94F4
:103CF000089A984704460028D7D1089E9CE71CA83C
:103D0000FDF78AFE4DE50A9B05930F9B0393012463
:103D1000099B04900293149A169B0D9801945146A6
:103D2000009403F0ADFA3CE509FB08F0FDF7F2FA68
:103D30000B9000283FF435ADFDF78CFD1E90384602
:103D4000FDF788FD1C90256900F1180745B34FEA7F
:103D5000880B012619E0B9F1040F19D0B9F1010F50
:103D600016D000221E990998029001230592039211
:103D7000049101965146009642460D989A4403F0EC
:103D80007FFA089B013B089350D0B9F1020FE2D1B2
:103D900038461E9925694B464246A8475F44E0E7EE
:103DA0000C950126089C14E0B9F1040F00F08D81F8
:103DB000994500F035810C9D05950395099D029567
:103DC0001E9D01960096049503F05AFA013C2DD0F1
:103DD000DA460123B9F1020F514642460D980AEB2B
:103DE000030BE1D108944FEA88050124DDF87890AF
:103DF000BB4646465BF8040B0A9B9847013E29F8F0
:103E0000020BF7D11E9B099A02920493514601239B
:103E1000059603960194009442460D989A4403F047
:103E20002FFA089B013B2F440893DFD10E98FDF732
:103E3000F3FD1EA8FDF7F0FD0B98FDF7C3FAB0E403
:103E40000124183200260492CDF80CB00295089B8C
:103E50000D980596424651460194009403F010FADD
:103E60009FE400250126089C16E0B9F1040F00F03C
:103E7000FC80994500F0A4801E9F0897099F029737
:103E8000089F0595039501960096049703F0F8F9AD
:103E9000013C3FF4D2ADDA460123B9F1020F51469D
:103EA00042460D980AEB030BDFD14FEA48060C9D02
:103EB00008940A9F0A9601241E9EDDF82CB0C14684
:103EC0003BF8020BA847B847B9F1010926F8020BE5
:103ED000F6D10B9E1E9A099B0293B6460A9E049247
:103EE00001235146B644CDF81490CDF80C900194BE
:103EF000009442460D98CDF82CE09A4403F0C0F9A6
:103F0000089B013B0893D7D197E5FDF7A3FC1D90D3
:103F100000283FF492AD4FEA480337460A93012543
:103F20000C940B9E19E0B9F1040F30D0B9F1010FD8
:103F300028D000221E99099802900123059203922D
:103F4000049101955146009542460D989A4403F01C
:103F500097F9089B013B08932BD0B9F1020FE2D1EE
:103F6000DDF878B01D994B46424630467C69A04743
:103F70000A9C1D9826440C9C59464B46424624698F
:103F8000A047D6E7DDF878B01D990223ECE730466C
:103F90001D997C69DDF878B002234246A0470C9C4D
:103FA0001D9824694B4659464246A0470A9B1E4429
:103FB000BFE71DA8FDF730FD0F98FDF703FA3CE5BC
:103FC00008FA03F60C9D08940A9F0A964C461E9E1A
:103FD000DDF82CB0C1463BF8020BA847B847B9F151
:103FE000010906F8010BF6D10B9E1E9A099B02935C
:103FF000B6460A9E049201235146B644CDF8149069
:10400000CDF80C900194009442460D98CDF82CE028
:104010009A4403F035F9089B013B0893D7D10CE58E
:1040200008944FEA88054C46DDF87890BB46464632
:104030005BF8040B0A9B9847013E09F8010BF7D186
:104040001E9B099A029204935146012305960396FA
:104050000194009442460D989A4403F011F9089B8C
:10406000013B2F440893DFD1E0E64FEA48060C9D60
:1040700008940A9F0A9601241E9EDDF82CB0C146C2
:104080003BF8020BA847B847B9F1010946F8040B01
:10409000F6D10B9E1E9A099B0293B6460A9E049285
:1040A00001235146B644CDF81490CDF80C900194FC
:1040B000009442460D98CDF82CE09A4403F0E0F8C5
:1040C000089B013B0893D7D1B7E408944FEA8805D1
:1040D0000124DDF87890BB4646465BF8040B0A9B4A
:1040E0009847013E49F8040BF7D11E9B099A0292AA
:1040F0000493514601230596039601940094424689
:104100000D989A4403F0BCF8089B013B2F44089398
:10411000DFD18BE620B321B322B3B2F900C0B1F9ED
:104120000630F0B5B1F90050B2F902E0B1F9024041
:10413000B2F90470B2F90660B1F904206545A8BF70
:104140006546A6457146A8BF2146BA42B8BF3A4661
:10415000B342B8BF3346058041808280C380F0BD42
:10416000704711460B684A6842600360704700BFA1
:1041700078B170B4068844888588C38889B292B2C1
:104180000E44144429440680448070BC1A44818043
:10419000C280704770B4104D2B686A689342044621
:1041A0000FD093E807000D4E84E80700B34214BF18
:1041B0000C333C3B2B60207A003018BF012070BCD0
:1041C0007047074A934206BF3C3393E8070013E960
:1041D000070084E80700EEE7E0020020309D0020A1
:1041E000F49C0020034B09CBC01AB0FA80F04009C0
:1041F000704700BFE0020020F0B5374E336D85B048
:104200000446002B55D094E80700344C344DF36C31
:10421000256001AD85E807000BB128469847314F6E
:10422000D7F800E07B689E4538D0B3422A4C9DF811
:104230000C2035D013F8041C914212D03C3495E880
:104240000700A34283E807001BD00C339E457B6028
:104250001BD0B36C0BB12846984700F0E9FC05B0C1
:10426000F0BDA3F10C018E45E8D0A1422ED03C3424
:104270000C39097A9142E2D1B34214BF0C3B234678
:10428000DDE7154B7B609E45E3D1174B9E4514BF80
:104290000EF10C03AEF13C033B60DAE7124CCEE7C3
:1042A00096F8441091420BD095E8070086E8070085
:1042B000CBE730460D4B40F8503F02F0D3FBA2E76E
:1042C00006F13C04A645EFD02146D1E701F13C04BC
:1042D00003F13001CDE700BFF49C00204CB1002079
:1042E00075940008E0020020309D0020B9F300081A
:1042F00010B5FEF7DBFB0D4A136851688B420FD0F7
:104300000B4CA34293E803004FF0010414BF0833A1
:10431000503B136006F018F801F07EF9204610BDFE
:10432000002401F079F9204610BD00BF24020020CE
:10433000D09B0020F0B5164C059E2568069CB5F96B
:1043400008E0B5F90C707045B8BF7046BA42A8BF16
:104350003A4690421ADCB5F90A70B5F90E50B942E6
:10436000B8BF3946AB42A8BF2B468B4203DAF0BD3B
:1043700025682DB12C46E5682D6835F00405F7D188
:1043800006940596BDE8F04003F0FABBF0BD00BF0F
:10439000C0010020B0F90220B1F906309A4214DCC5
:1043A000B1F90220B0F906309A420EDCB0F90020D3
:1043B000B1F904309A4208DCB0F90400B1F90030D8
:1043C0008342CCBF0020012070470020704700BF0F
:1043D00008B5034B014674221868FBF784FF08BD3B
:1043E000C001002000B970472DE9F04FABB0044682
:1043F0000D4616461C921B91FEF758FB2046FDF712
:1044000029FAB0F90430046827909D42109400F016
:1044100081810020FEF766FF9D4B109A1B68926910
:10442000597C1F900846279D2091824218BF5A74DC
:10443000B5F9043005931846B5F90810B5F90630FA
:104440001692B5F90A2012931C46091A121B0E4641
:104450000B91199221461446324601322B8A1A9248
:10446000224601329B071D9240F135811B9B6A69F0
:1044700002921B1A1C9A1393002BA2EB010440F327
:10448000E88108931A9B049300234FF0010B1193CA
:10449000002C40F3D2811D9B159301231794149394
:1044A0004FF0000A109E7B4BB0691B56012B40F366
:1044B000BC810023ADF8A230ADF8A03003F014FAAF
:1044C000431EB069ADF8A43003F054FA0138ADF8DA
:1044D000A60027985A4600F1140107F0FDFF21902D
:1044E000002800F0F78027985A4600F1140107F0E1
:1044F000F3FF2490002800F0E880279BD86800286C
:1045000040F0B881159A524500F0DB801A9B119952
:1045100022909A000AFB031305EB83030E93C4EB6E
:104520000A030C93129B1499234401FB02F2189383
:104530004FEA8B031E920693D146179B4B4500F31F
:104540001381199B4B45B4BF002301230F93129B8A
:10455000119C4B440D93189B4B440793049B1A46A4
:10456000A24200F09F801398059BDDF83880CDF8BB
:104570000C900344C0EB040A099351E00B9AA24249
:104580005EDB0F9A002A5BD0BDF9A010A94240F370
:1045900094824FF00009BAF1000F0A930CDB0C9BD8
:1045A000002B09DB1A4651460298FEF7F3F8000E7D
:1045B000FF280A9B00F0DB80BDF9A020954226DB96
:1045C000BDF9A23007998B4221DCBDF9A430AB4282
:1045D0001DDBBDF9A6308B4219DB002F00F01A81DC
:1045E00022992D4BFF221B6821F07F4130469847CE
:1045F000169A2A4B53F822301B691B6898470246CB
:10460000219B00932846109B07990BF059FCC8F892
:104610002090069B9844049B5C44A342DA443FD01C
:10462000039A02982146FEF7B5F8070EFF2F0646BB
:10463000EFD0099A059B1519089AA24223449DDDE3
:10464000BDF9A020AA4211466ADCBDF9A220079854
:10465000824200F3868000220A92BDF9A420AA4279
:1046600005DBBDF9A62007998A4280F283804FF0CE
:1046700000090A9A002A8ED1BDF9A0100A46934279
:104680009CDBBDF9A2100D98814297DC51E000BF80
:10469000C0010020989E0020E80200209C9E00207F
:1046A000DDF80C900E9B1E99149A0B440E930C9BF4
:1046B0001946159B914411444B450C917FF43DAF35
:1046C000279B186824990BF089F8279B2199186873
:1046D0000BF084F8279D1B9B1A9A1C99AB801D98A0
:1046E000E9801344013B4A1E02442B81169B6A81D8
:1046F000209A1946914202D05C4B1B685A741F984D
:10470000FEF7F0FD27A8FDF787F900F085FF2BB035
:10471000BDE8F08FB0F906309E427FF47AAEF1E743
:1047200093421BDBBDF9A2100D98884216DB4FF0B7
:104730000009BDF9A4109942FFF640AFBDF9A610DB
:104740000D988142FFF63AAF2499D8F820200091C5
:1047500018460D99109B0BF0B3FB2DE74FF00009A5
:1047600055E74FF0000989E700230F93EFE6BDF905
:10477000A02084E7DDF89C90B9F90420AA423ADC35
:10478000B9F90810A94236DBB9F906E007998E4558
:1047900031DCB9F90A0088422DDBD9F8140050B396
:1047A0002593AB1A19462293079BCEEB03031A46B7
:1047B0002393FDF7EFFF000EFF28259B1BD0B9F9CF
:1047C0000410B9F90820521A239902FB0112229908
:1047D0000A4409EB8209D9F8202022F07F40914653
:1047E0002393169A224B53F822201269526890475D
:1047F000239B22903DE7109A1068E0B1C268229393
:10480000D2F81490079A2946C847229B814620F087
:104810007F40E5E7169A164B53F822301B6926F0C5
:104820007F405B6898470246EAE6F368304628A96D
:104830001B6B98474DE68146D2E74FF0FF33199A3C
:104840001593149300231793134623449246199308
:1048500028E600224FF0FF330892139A04939B46F8
:104860003346134411960B9312E600BFC00100209B
:104870009C9E0020FCF7EEFF159B2690534500F010
:10488000A9801A9B1199DDF810809A000AFB031386
:1048900005EB83030C93C4EB0A0314990A93129B50
:1048A00001FB02F223440F921893059A139B4FEADF
:1048B0008B091344CDF80C900993D146DA46179B27
:1048C0004B4500F3AA80199B4B45B4BF002301233D
:1048D0000E93129B4B440D93189B4B440793119BD3
:1048E000984569D0139A0C9D1C46C2EB030B4A46AF
:1048F00021460298FDF74EFF0646002856D0059B3C
:10490000E3180693099B1F19089BA34267DC0B9BC6
:10491000A34264DB0E9B002B61D0BDF9A030BB42EB
:10492000D8BF012300F3C680BDF9A22007998A42AF
:1049300007DCBDF9A420BA4203DBBDF9A6208A42F8
:1049400078DA0022049263B1BBF1000F5DDB0A9BB1
:10495000002B5ADB1A4659460298FDF71BFF002828
:1049600053D1BDF9A030069A9A420EDBBDF9A220C0
:104970000D998A4209DCBDF9A42006998A4204DB1C
:10498000BDF9A6200D998A4238DA9F420CDBBDF9A9
:10499000A23007998B4207DCBDF9A430BB4203DB90
:1049A000BDF9A6308B423BDA049B2B625444039B37
:1049B00044451D44D3449AD10C9B0F99149A0B443F
:1049C0000C930A9B1946159B9144114499450A91F1
:1049D0007FF475AF26A8FDF71FF8279B71E6BDF998
:1049E000A030BB4217DD069A934211DCBDF9A2202C
:1049F0000D9991420CDB00220492BCE7249B2A6AA9
:104A000006980093109B0BF05BFABDF9A030BCE751
:104A100000230493C8E7002386E700230E9358E79A
:104A2000269B53F82620219B00933846109B0BF0C1
:104A300047FAB9E7279A0492B2F90420BA420DDC8A
:104A40000498B0F90810B94208DBB0F906E00799FC
:104A50008E4503DCB0F90A0088420DDA109A10681E
:104A600000283FF46EAFC2681E9339465369079A17
:104A700098471E9B049066E72393BB1A1E93CEEBC8
:104A800001021946049B22925869FDF783FE239B7D
:104A90000028E3D00498B0F90410B0F90820521AA5
:104AA000229902FB01121E990A4400EB8202126A4B
:104AB000049248E70023049346E7BDF9A220079932
:104AC0008A423FF766AD01220A92C6E508B5034B5C
:104AD00074221968FBF707FC08BD00BFC001002065
:104AE00008B5FDF7E3FF03F045F903F025FA03F0FD
:104AF00027FFBDE8084000F08FBD00BF70B50D4D29
:104B00002B6804465E7CFDF7D1FF012C03D900F031
:104B100083FD304670BD2046FDF73AFA0028F6D0F6
:104B20002B685C74FFF7DCFF034B1C6000F074FD26
:104B3000304670BDC0010020E4B0002010B504462E
:104B4000FDF7B4FF204603F037F9BDE8104000F050
:104B500063BD00BF10B50446FDF7A8FF204603F073
:104B600065F9BDE8104000F057BD00BF014B58602B
:104B7000704700BFB401002010B50446FDF796FF52
:104B8000204603F06BF9044600F046FD204610BDB8
:104B900038B50446FDF78AFF044B1B68DD6904B194
:104BA000DC6100F039FD284638BD00BFC00100209F
:104BB00070B504460D461646FDF778FF3246294685
:104BC000204603F06BF9044600F026FD204670BD38
:104BD00038B505460C46FDF769FF094A094B1268CE
:104BE0000949507C094A53F820000D80C36814809D
:104BF000294622461C6AA047BDE8384000F00CBD9B
:104C0000C00100209C9E00208A9E00208C9E0020D7
:104C100038B50546FDF74AFF044B1B68B3F92A4037
:104C20005D8500F0F9FC204638BD00BFC0010020C2
:104C3000024B1B6803B11847704700BF4C9C002013
:104C4000024B1A6802B91860FFF7F2BF7C9B002084
:104C500000B970472DE9F041DFF8C08082B0054609
:104C6000FDF724FFD8F80040A54242D06E461CB99B
:104C700017E0FCF7D1FEA4B12046FCF7EBFD8468F9
:104C80000090A5423046F4D12846FCF7E3FD009B96
:104C90008268019001A89A60FCF7BEFE3046FCF7DE
:104CA000BBFE2846FCF7D6FDD8F804400090A5428C
:104CB0001A4B2CD001AF1CB910E0FCF7ADFE6CB163
:104CC0002046FCF7C7FD44680190A54203463846DC
:104CD000F3D1009A52685A60FCF79EFE3046FCF70A
:104CE0009BFE2846FCF76EFB00F096FC02B0BDE888
:104CF000F0812846FCF7AEFD02AF836847F8040D4B
:104D00003846C8F800306E46FCF786FEC9E74268B0
:104D10005A603046FCF780FEE3E700BF389C002075
:104D200030B583B018B90124204603B030BD044625
:104D30000D46FDF7BBFE2046FCF78CFD02AB8289D9
:104D400043F8040D2A42184614BF01240024FCF73E
:104D500063FE00F061FC204603B030BD30B50A4B65
:104D60001C68002383B003605CB105462046FCF755
:104D700071FD02AB026943F8040D2A601846FCF786
:104D80004BFE204603B030BD389C002070B5002398
:104D900082B00B6018B90446204602B070BD0D46C3
:104DA000FCF758FD8468019001AE2CB93046FCF741
:104DB00033FE204602B070BD3046FCF72DFE204683
:104DC000FCF748FD036901902B60EFE7F0B52DED8E
:104DD000048BC94C8DB000260228169D266000F079
:104DE0000A8140F30381032800F048810996069662
:104DF00000960A960B9607960896049605960196D5
:104E00000296DDED0B3ADDED0A5A9DED083A9DED77
:104E1000075ADDED052A9DED041A9DED022ADDED10
:104E2000011ADDED000A9DED064ADDED094A043D5B
:104E30000439043A03EB800655F8047FB3EC017A99
:104E400007EE907A51F8047F06EE107A52F8047F4C
:104E500006EE907AB8EEC77AF8EEE77AB8EEC66A50
:104E6000F8EEE66AB34232EE072AE7EE070AE7EE0B
:104E7000271A72EEA72AA7EEA71AA7EE064A33EE64
:104E8000063AA7EE865AE7EE264A73EEA63AE7EE12
:104E9000A65AD1D107EE900AF8EEE77AB7EE006A8B
:104EA00086EE020A86EE227AC6EE276A24EE004AD1
:104EB00064EE804A26EE833A66EEA33A27EE055A60
:104EC00067EE255A60EE800A27EE011A21EE800A6D
:104ED00026EE822A67EE211A66EEA22A8DED083AA6
:104EE000CDED0B3A8DED064ACDED094A8DED075A11
:104EF000CDED0A5A72EEC06A31EEC27A30EEC24A85
:104F000027EE267A31EE623AA4EE037AB5EE407AC5
:104F1000F1EE10FA6AD09DED068ADDED094ADDED6D
:104F2000088A9DED0B5ADDED073AF7EE007AC7EEE1
:104F3000875A0123236022EE486A22EE647ADDED6F
:104F40000A7AA5EE207A21EEC59AA8EEA06A61EE53
:104F5000E89AA7EE829AE3EE829A26EE016A27EE9D
:104F6000017A20EEE31A60EEE70AA8EE211AE4EED9
:104F7000A10A73EEE83AA9EE806AA9EE007A74EE0F
:104F8000C54A38EE688A37EEC55A72EE617A66EE27
:104F9000A31A28EE272A66EE856A67EEA47AA1EEA8
:104FA000226AA0EEA27AF0EE612AE3EE246AE4EE31
:104FB000057AE3EE082AA4EE232A26EE256A27EED8
:104FC000257A62EEA54A22EE255A66EEA56A67EEBC
:104FD000A57A84ED036A84ED067AC4ED014A84ED76
:104FE000025AC4ED046AC4ED057A3EE001200DB01A
:104FF000BDEC048BF0BD93E841004F68D1F800E0B0
:105000002B686968361A24CA07EE906ACEEB070748
:10501000F8EEE76A07EE907AC91AAD1AB8EEE76AB9
:1050200007EE105A07EE901AB8EEC77AF8EEE77A54
:10503000C6EE265A01222260C7EE276A07EE900AC2
:10504000B8EEE77A07EE903AF8EEE77A25EEC77AFF
:1050500066EEE77A0023C4ED015A84ED037AC4EDCD
:10506000056AC4ED067AA3602361179BE361189B70
:10507000236200200DB0BDEC048BF0BD91ED004A21
:10508000D2ED004A91ED015AD1ED025A92ED016A3A
:10509000D2ED026AD3ED000A95ED000AD3ED011AB4
:1050A00093ED022A95ED011AD5ED022AB8EEC44A15
:1050B000F8EEE44AB8EEC55AF8EEE55AB8EEC66A1C
:1050C000F8EEE66A8DED064ACDED094A8DED075AF8
:1050D000CDED085A8DED0A6ACDED0B6AF8EEE00AC7
:1050E000B8EEC00AF8EEE11AB8EEC22AB8EEC11A5C
:1050F000F8EEE22AFEE600BFF49B0020012801D969
:105100000120704730B52A4C85B0256822D0E16077
:1051100005F006010629226141D005F00505012DA3
:105120003DD06361089BA36194F82C3043FA00F2F0
:10513000D20758BF5AB24FF0010348BF002203FA0A
:1051400000F01043C0B2032884F82C0010D00020D7
:1051500005B030BDE16105F005010529226222D0CC
:1051600005F00605022D1ED06362089BA362DBE7F3
:10517000104C2368587C02F0B7FB23680546587C26
:1051800002F0F8FB0C4902908DE82200A1F1100317
:10519000A1F1080202201839FFF718FED8E7089A93
:1051A0006261A361C0E7089A6262A362BCE700BFC4
:1051B000009B0020C0010020249B0020254B1A6882
:1051C000DAB901220068002814DB0968002911DB24
:1051D000DB69984210B41F4C07DA236A5DF8044B70
:1051E0009942A8BF012210467047012210465DF87F
:1051F000044B7047012210467047D1ED006A93EDD1
:10520000037AD3ED067A93ED024AD3ED054A93ED86
:10521000015AD3ED045AB6EE006AF8EEE66A37EEAC
:10522000067A77EE867AA4EE267A0022E6EEA47A53
:10523000D0ED006AF8EEE66AA5EE267AE6EEA57AEB
:10524000BDEEC77AFDEEE77A80ED007AC1ED007A17
:10525000B8E700BFF49B0020F0B52C4C94F82D303B
:1052600087B0002B39D00BF0DBFF60600BF0D6FF6E
:105270006268A3680192029300F04CF802A98DF8CD
:10528000150001A8FFF79AFF38B194F82E3083BBC0
:10529000002384F82D3007B0F0BD1D4994F82E008E
:1052A000019E029D91E80C0050B1B21AEB1A002A3F
:1052B000B8BF5242002BB8BF5B421344022BE7DD5C
:1052C000012703A80E6003964D6004958DF81470B5
:1052D00000F026F884F82E70DAE70BF0A5FFA06046
:1052E0000BF09DFF94F82D30013384F82D3007B07A
:1052F000F0BD074B0CCB002503A8039204938DF857
:10530000145000F00DF884F82E50C1E7009B0020E7
:10531000C4010020014B587A704700BF189C002040
:1053200030B5134C85B00C2221460546FBF723F817
:1053300078B1E368A3B195E8070001AD85E80700FF
:1053400002A928469847034695E8070084E8070025
:105350000BB105B030BD2846FEF74EFF05B030BD9D
:105360002846FEF749FF95E8070084E80700F0E7C4
:10537000E49B002008B5FDF799FB034B034A1A6034
:10538000BDE8084000F048B9A89E00209C9105089F
:10539000F8B5084E0468336805461B6820469847F0
:1053A000336807465B6820469847204428603846A3
:1053B000F8BD00BFA89E0020F8B569B1074F0546AB
:1053C0000C4600263B6828465B689847013C05442C
:1053D0000644F7D13046F8BD0E46FBE7A89E0020F4
:1053E0002DE9F843089C054689469846AB6849462E
:1053F0005F6828464346561CB847013C3246F5D103
:10540000BDE8F883F8B5B0F90040B0F904500C1BC2
:10541000AC422BDAB0F9021005692344013B521A61
:10542000E61005FB0265DF4307F00707FF2114358F
:1054300004F0070401FA07F241FA04F4D6EBE3069C
:10544000D7B2E4B200EB0502435D10D0013E1C432D
:10545000002E02F10103445505DD18463246FAF7E5
:105460006CFF034633441C783C431C70F8BD3C4041
:105470001C434455F8BD00BF70B4B0F90260036925
:10548000B0F90040921B03FB02F2091B143202EB3D
:10549000E1028025835C01F0070145FA01F119431F
:1054A000815470BC704700BF03460021B3F9062049
:1054B0001B69143003FB02F2FAF73FBF2DE9F043FA
:1054C00002F10F04241164001E4603FB04F383B0B1
:1054D000804603F1140017468946FBF729FF05466D
:1054E000B8B1FDF7E3FA2846FCF7B4F9014602A883
:1054F0000A4A40F8041D01238F80CE800C61A1F878
:105500000080A1F802908A608B81FCF785FA00F098
:1055100083F8284603B0BDE8F08300BFF8EB050828
:10552000B0F9063093423CDDF0B50D68B0F9047077
:10553000BD4234DA06694FEAE50E06FB02E6143690
:1055400005F00703845D04FA03F3013F013613F00D
:10555000FF03CEEBE702304408D122B310F8013B41
:10556000083525F00705013A002BF6D01E0634D485
:105570005B00DBB21C0605F10105F9D55F062C4680
:1055800005D55B00DBB25E0604F10104F9D404F03A
:105590000703072B09D0621B501C0D60F0BD0020D3
:1055A000F0BD002070471046F0BD002AF3DD0678FC
:1055B000FF2E00F101070DD1831803E017F8016BEE
:1055C000FF2E07D1BB4204F10804F7D1E3E77600D0
:1055D000F6B201343306FAD4DDE7FF2B08BFEC1D29
:1055E000D5D0CBE730B5054683B0FDF75FFA284646
:1055F000FCF730F902AB848943F8040D013C24B276
:1056000084811846FCF708FA14B92846FBF7DAFE3D
:1056100000F002F803B030BD034A5368013B536009
:1056200003B170470BF048BE249C0020F0B583B056
:10563000C0B9224C23690546CBB1E0681F4E18B9AA
:105640001F4B1868F060D8B123681C4F002623B3A5
:1056500063681A4FC3B115B1A368184C2BB3304619
:1056600003B0F0BD154C236901AD002BE5D12046F8
:10567000144B40F8143F0123236101F0F3F9DCE7F8
:1056800002F0ECF8F060DFE7F8688000FBF71CFF41
:10569000002808BF01267860DDE78000FBF714FFD3
:1056A000B0FA80F638607609D2E7E0688000FBF750
:1056B0000BFF002808BF0126A060D0E74C9D00200A
:1056C000909E0020D1F3000810B5094B1C7838B922
:1056D00002466FF07F401A7001F0BCFD204610BDFD
:1056E00001224FF0FF301A7001F0B4FD204610BDCA
:1056F000969E0020082A10B40EDD102A1CDC00EB58
:105700004101034650F8042B23F8022B9942F9D1AA
:1057100001205DF8044B7047022A11D0042A00F0E2
:105720009080012A3CD00144034650F8042B03F832
:10573000012B9942F9D1EBE700205DF8044B70474B
:1057400000F1100252F8103C01294FEA8313DBB23A
:1057500023D052F80C4C240104F03004022943EA0F
:1057600004031AD052F8084CA40004F00C040329D6
:1057700043EA040311D052F8044C04F00304234319
:10578000043900F8013B02F11002C1D052F8103C7C
:1057900001294FEA8313DBB2DBD103700120B8E7A4
:1057A00000F1200252F8203C01294FEAC313DBB27A
:1057B000F3D052F81C4CA40104F04004022943EA3F
:1057C0000403EAD052F8184C640104F020040329C1
:1057D00043EA0403E1D052F8144C240104F010040D
:1057E000042943EA0403D8D052F8104CE40004F032
:1057F0000804052943EA0403CFD052F80C4CA40056
:1058000004F00404062943EA0403C6D052F8084C05
:10581000640004F00204073943EA040302F12002A1
:10582000BBD052F8244C04F00104234300F8013BA0
:1058300052F8203C01294FEAC313DBB2B9D10370FF
:10584000ACE700F1080454F8083C01294FEA0313BF
:10585000DBB212D054F8042C02F00F0213430239C9
:1058600000F8013B04F108043FF452AF54F8083C3F
:1058700001294FEA0313DBB2ECD103705DF8044B4E
:1058800008467047082A2DE9F0410C461F68054676
:105890000CDD102A21DC1E69002E00F091802246CA
:1058A00029460223B0470120BDE8F081013A072ACA
:1058B00010D8DFE802F004510F770F0F0F9A00F1B4
:1058C000200858F8200CB847012C4FEAC010C6B287
:1058D00006D12E700120BDE8F0810020BDE8F081E6
:1058E00058F81C0CB847022C46EA8010C6B2F0D01B
:1058F00058F8180CB847032C46EA4010C6B2E8D056
:1059000058F8140CB847042C46EA0010C6B2E0D090
:1059100058F8100CB847052C46EAC000C6B2D8D0DB
:1059200058F80C0CB847062C46EA8000C6B2D0D016
:1059300058F8080CB847072C46EA4000C6B2C8D051
:1059400058F8040CB847083C40EA060005F8010B7B
:1059500008F12008B5D1BDE700F1100858F8100C87
:10596000B847012C4FEA8010C6B2B2D058F80C0CE0
:10597000B847022C46EA0010C6B2AAD058F8080C64
:10598000B847032C46EA8000C6B2A2D058F8040CEF
:10599000B847043C40EA060005F8010B08F110087E
:1059A000DCD197E700F1080858F8080CB847012C3B
:1059B0004FEA0010C6B20CD12E702046BDE8F0812F
:1059C000861E55F8040BB847013C26F8020FF8D1A3
:1059D00080E758F8040CB847023C40EA060005F896
:1059E000010B08F10808DFD174E71E693EB12846B3
:1059F000224601232946B0470120BDE8F0816E1EF2
:105A000055F8040BB847013C06F8010FF8D161E7DF
:105A100030B51C4DD5F8803085B00BB105B030BD28
:105A2000194B0FCB6C4607C404A924F8023B1B0C8E
:105A3000237011F8102D0123C5F8803005F184047E
:105A400004F8012B11F8012F002AF9D1FCF784FF8B
:105A5000234610F8012B194603F8012B0278002A7F
:105A6000F7D14A700BF0E4FBFBF718FC10F004FAD6
:105A7000064B0748C5F8983005B0BDE8304000F047
:105A8000F1BF00BF609A00206C91050899F20008F0
:105A9000F89A0020F0B52A4B1B6883B004460D46E7
:105AA0007BB1002005F0AEFA48B16E463246294679
:105AB000204606F06BFD05F039F90028F6D103B059
:105AC000F0BD106851681F4F6B4603C33B68BDF8BB
:105AD0000000B3F84CE0B3F85060BDF80410BDF816
