:020000040800F2
:100000002846002061020008C5190008531700089F
:10001000FD18000891030008991E00080000000068
:10002000000000000000000000000000A101000826
:100030005D04000800000000FD010008C919000867
:100040007B0200087B0200087B0200087B0200089C
:100050007B0200087B0200087B0200087B0200088C
:100060007B0200087B0200087B0200087B0200087C
:10007000950300087B0200087B0200087B02000851
:10008000A10300087B0200087B0200087B02000835
:100090007B0200087B0200087B0200087B0200084C
:1000A0007B020008A91A00087B0200087B020008F6
:1000B0007B0200087B0200087B0200087B0200082C
:1000C0007B0200087B0200087B0200087B0200081C
:1000D0007B0200086D1E0008811E00088D1E0008AE
:1000E0007B0200087B0200087B0200087B020008FC
:1000F0007B0200087B0200087B0200087B020008EC
:100100007B0200087B0200087B0200087B020008DB
:100110007B0200087B0200087B0200087B020008CB
:100120007B0200087B020008AD0300087B02000888
:100130007B0200087B0200087B0200087B020008AB
:100140007B0200087B0200087B0200087B0200089B
:100150007B0200087B0200087B0200087B0200088B
:100160007B0200087B0200087B0200087B0200087B
:100170007B0200087B0200087B02000800000000F0
:100180007B0200087B020008DFF810D000F0EEF8D8
:10019000004800476D220008AFF300802846002089
:1001A0002C4B19680868B0E8F04F80F30988BFF35A
:1001B0006F8F4FF0000080F311887047000000003F
:1001C00008480068006880F308884FF0000080F35A
:1001D000148862B661B6BFF34F8FBFF36F8F00DF35
:1001E00000BF00BF08ED00E0DFF80C00016841F43B
:1001F00070010160704700BF88ED00E0EFF30980F7
:10020000BFF36F8F134B1A681EF0100F08BF20ED5D
:10021000108A20E9F04F106009B44FF0500080F3CD
:100220001188BFF34F8FBFF36F8F02F03FFD4FF088
:10023000000080F3118809BC19680868B0E8F04F25
:100240001EF0100F08BFB0EC108A80F30988BFF3CE
:100250006F8F704718000020EFF305807047000093
:100260000648804706480047FEE7FEE7FEE7FEE750
:10027000FEE7FEE7FEE7FEE7FEE7FEE78D1A000871
:10028000890100082DE9F05F0546002092469B4653
:1002900088460646814640241BE02846414647469C
:1002A000224600F053F853465A46C01A914110D3E3
:1002B00011461846224600F03AF82D1A67EB01085D
:1002C0004F4622460120002100F031F817EB0009CB
:1002D0004E41201EA4F10104DFDC484631462A4687
:1002E0004346BDE8F09F40EA01039B0703D009E0C5
:1002F00008C9121F08C0042AFAD203E011F8013B12
:1003000000F8013B521EF9D27047D2B201E000F86A
:10031000012B491EFBD270470022F6E710B51346A9
:100320000A4604461946FFF7F0FF204610BD202A72
:1003300004DB203A00FA02F1002070479140C2F13C
:10034000200320FA03F3194390407047202A04DB6E
:10035000203A21FA02F00021704721FA02F3D0403E
:10036000C2F120029140084319467047064C074DE0
:1003700006E0E06840F0010394E807009847103475
:10038000AC42F6D3FFF704FF2435000844350008DB
:10039000FEE70000014800F0BDB800006404002042
:1003A000014800F0B7B8000004040020014800F044
:1003B000B1B80000A403002001681823CAB2103AA3
:1003C000B2FBF3F2054B6FF30901032A9B5CC36593
:1003D00000D9091D8165084670470000E83400080F
:1003E00010B5014600208B698A6A4FF0C07453B182
:1003F000B3F5005F15D072B1012A0CD0022A0AD0E1
:10040000032A09D104E01AB1012A06D0022A03D135
:10041000C96AC90100D5012010BDC96AA142FAD03C
:1004200010BD002AF7D0012AF2D0022AF3D0032A05
:10043000F3D010BD30B50468256825F4802525600B
:10044000046863608368402B036803D09960006888
:10045000C26030BD9A600068C16030BD704772B63E
:10046000FEE72DE9F0410446876D00F0A1FA06464B
:1004700094F835000025022806D08020606584F8B5
:1004800034500120BDE8F0812068016821F0160198
:1004900001602068416921F080014161206C08B948
:1004A000A06C20B12068016821F00801016020687B
:1004B000016821F0010101600BE000F079FA801B76
:1004C000052806D92020606504F8345F0320607099
:1004D000D8E720680068C007EFD194F85C103F208F
:1004E0008840B86004F8345F012060700020C9E7DC
:1004F00090F83510022903D0802141650120704712
:10050000052180F835100068016821F001010160C3
:10051000002070472DE9F84304464FF00009CDF85C
:10052000009063484FF41651A56D0068B0FBF1F7D9
:100530002E6894F85C10082000FA01F131420FD0C7
:1005400021680A6852070BD50A6822F004020A6083
:1005500094F85C108840A860606D40F00100606510
:1005600094F85C104FF0010808FA01F0304208D00E
:1005700021684969090604D5A860606D40F0020051
:10058000606594F85C1004208840304208D02168EF
:100590000968890704D5A860606D40F004006065B3
:1005A00094F85C1010208840304218D02168096807
:1005B000090714D5A86020680168490304D50068BC
:1005C000000308D5A16C07E00168C90503D40168E0
:1005D00021F008010160216C09B12046884794F898
:1005E0005C1020208840304231D021680968C9065B
:1005F0002DD5A86094F8350005282068016806D03C
:10060000490347D5006800031DD4616C1CE021F04C
:10061000160101602068416921F080014161206C70
:1006200008B9A06C20B12068016821F008010160C0
:1006300094F85C103F208840A86084F8349084F8D7
:100640003580216D1FE0E16B09B120468847606D60
:1006500000282BD0606DC00714D0052084F8350029
:100660002068016821F0010101600098401C0090A1
:10067000B84203D820680068C007F6D184F83490E7
:1006800084F83580E16C002910D001B02046BDE827
:10069000F04308470168C905D5D4016821F010016D
:1006A000016084F8349084F83580CCE7BDE8F883A5
:1006B000140000202DE9F041044600F079F90646C7
:1006C0005CB1002584F83450022084F8350020689D
:1006D000016821F0010101600DE00120BDE8F08119
:1006E00000F066F9801B052805D9202060650320ED
:1006F00084F83500F2E720680068C007F0D122686E
:10070000116820480140D4E901031843D4E90336B5
:100710003343184363691843A3691843E3691843D3
:10072000236A18430843616A042903D1D4E90B13EF
:1007300019430843106020684069666A20F0070189
:1007400030460E43012704280CD1A06A0643E06A14
:1007500040B12046FFF744FE20B14020606584F898
:100760003570BAE7206846612046FFF725FE94F809
:100770005C203F2191408160656584F835700020E0
:10078000ACE700003F8010F02DE9F0410446866D93
:1007900090F83400002501280DD0012084F83400A1
:1007A00094F835700020012F07D084F8340002251A
:1007B0002846BDE8F0810220FBE7022784F8357067
:1007C00060652046FFF736FE94F85C103F208840B5
:1007D000B0602068016841F016010160206C20B112
:1007E0002068016841F0080101602068016841F05B
:1007F00001010160DCE700002DE9F84F00224FF015
:10080000010803254FF00F0E0B6808FA02F423408D
:10081000A3426ED14E68012E05D0022E03D0112EB8
:1008200001D0122E12D186684FEA420C05FA0CF75D
:10083000BE43CF6807FA0CF7374387604668A64384
:100840000C79C4F30014944034434460C6685700E4
:1008500005FA07FC8C6826EA0C06BC403443C460E9
:100860004C68022C01D0122C13D1D40800EB840464
:10087000A346D4F8209054074FEAD46A0EFA0AF639
:1008800029EA06090E6906FA0AF646EA0906CBF8CD
:10089000206006680C7926EA0C0604F00304BC40CC
:1008A000344304604C68E40065D5364C266846F451
:1008B00080462660246822F0030604F480440094F5
:1008C000314C3444A446D4F808489607370F0EFA42
:1008D00007F6B4432D4EB04201D1002624E02C4E41
:1008E000B04201D101261FE02A4EB04202D10226B9
:1008F0001AE040E0284EB04201D1032614E0274E12
:10090000B04201D104260FE0254EB04201D10526A8
:100910000AE0244EB04201D1062605E0224EB04244
:1009200001D1072600E00826BE402643CCF808681F
:100930001E4E34684F689C43FF0300D51C4334604F
:100940001A4C241D26684F689E43BF0300D51E43E2
:100950002660164E083634684F689C43FF0200D567
:100960001C433460114E0C3634684F689C43BF0200
:1009700000D51C433460521C102AFFF445AFBDE87B
:10098000F88F00004438024000300140000002406F
:100990000004024000080240000C02400010024027
:1009A0000014024000180240001C0240003C0140BC
:1009B00001488068704700000800002070B50400FE
:1009C00011D021684CF6CC400860216845F25550A2
:1009D0000860D4E9000141602168A0688860FFF7E1
:1009E000E7FF054609E0012070BD00BFFFF7E0FF0B
:1009F000401B302801D9032070BD2068C068002842
:100A0000F4D121684AF6AA200860002070BD0000D9
:100A10000248816802781144816070470800002014
:100A20000B4810B5016841F400710160016841F4A0
:100A300080610160016841F480710160032000F071
:100A40008DF8002000F006F800F03EF8002010BD00
:100A5000003C024010B5014688B00022192000F089
:100A60005DF8192000F04CF813480024016841F0AB
:100A700001010160006805A900F0010006906846C8
:100A800000F018F900F046F90C494000B0FBF1F114
:100A90000C480B4A491E026040F2E732C0E90324C9
:100AA000C0E9011400F026FB10B1012008B010BD10
:100AB000044800F03BFBF9E74438024040420F0095
:100AC00000000140C40400200C4882B0016841F4D9
:100AD00080410160006800F4804000900748001FDA
:100AE000016841F0805101600068002200F08050F0
:100AF00000900F21901E02B000F010B84438024060
:100B0000002809DB00F01F0201219140400980000C
:100B100000F1E020C0F8001170470000F0B40E4B67
:100B20001B680C46C3F30223C3F10705042D00D94B
:100B30000425191D072901D2002300E0DB1E012630
:100B400006FA05F1491E214099409E40761E164046
:100B50003143F0BC01F002BA0CED00E0064900F0B0
:100B6000070208684FF6FF03184040EA0220034AD4
:100B700010430860704700000CED00E00000FA052B
:100B80002DE9F0470E46050065D0DFF81481D8F84E
:100B90000000F7B200F00F00B04207D288F80070F2
:100BA000D8F8000000F00F00B04254D128683D4C46
:100BB000810712D5400703D5206840F4E05020603B
:100BC0002878000703D5206840F460402060206842
:100BD000A96820F0F000084320602878C0072DD0D5
:100BE000304968680839012812D0022813D0032838
:100BF00011D00968890700292DDA216821F0030145
:100C000001432160FFF7D4FE814641F2883A0EE0AD
:100C100009688903EFE709688901ECE7FFF7C8FE77
:100C2000A0EB0901514502D90320BDE8F0872068F7
:100C3000696800F00C00B0EB810FEFD1D8F800101C
:100C4000404601F00F01B14207D90770006800F07B
:100C50000F00B04201D00120E7E72878400705D512
:100C60002068E96820F4E0500843206028780007F5
:100C700006D52068296920F4604040EAC100206060
:100C800000F058F82168084AC1F30311515CC840CC
:100C90000649086006480068FFF7DCFE0020C4E74C
:100CA000003C024008380240F034000814000020E4
:100CB0000C0000200F2202600C4A136803F00303AB
:100CC0004360136803F0F0038360136803F4E05398
:100CD000C36012684FF4E05303EAD2020261044891
:100CE000006800F00F0008607047000008380240FC
:100CF000003C02400448054900680968044AC1F301
:100D00008221515CC840704714000020083802401E
:100D1000003500080448054900680968044AC1F321
:100D20004231515CC840704714000020083802402E
:100D300000350008154810B5006810F00C02144882
:100D400013D04110042A0FD0082A0ED10F4C241FB3
:100D50002268236802F03F025B0207D52068C0F3D7
:100D60008810A0FB010106E0084610BD2168C1F310
:100D70008811A1FB00010023FFF784FA2168C1F369
:100D80000141491C4900B0FBF1F010BD0838024098
:100D90000024F4002DE9F84F04006ED02078DFF82D
:100DA0003C93C007A9F104054AD009F10400016889
:100DB000C1F38101012908D00068C0F38100022835
:100DC0000AD1D9F80000400206D52868800337D53B
:100DD00060680028E1D033E06068B0F5803F10D053
:100DE000B0F5A02F286810D020F480302860286843
:100DF00020F4802028606068A8B1FFF7D9FD06467E
:100E00000DE0286840F48030F4E740F4802028604A
:100E1000F7E700BFFFF7CCFD801B642873D8286874
:100E20008003F7D50CE0FFF7C3FD064605E000BFE1
:100E3000FFF7BEFD801B6428F0D828688003F7D434
:100E40002078DFF89C8280074FF0000A3ED5A34847
:100E5000001D016811F00C0F08D00068C0F381007C
:100E600002280BD1D9F80000400207D42868800777
:100E700016D5E068012800D112E02BE1E068B8B196
:100E80000120C8F80000FFF793FD064605E000BF0B
:100E9000FFF78EFD801B0228C0D828688007F7D591
:100EA0002868216920F0F80040EAC10028600DE0C0
:100EB000C8F800A0FFF77CFD064604E0FFF778FDC8
:100EC000801B02281FD828688007F7D420780007E5
:100ED00022D5824E83486169703671B1012101606B
:100EE000FFF766FD074604E0FFF762FDC01B02281E
:100EF00009D830688007F7D50EE0C0F800A0FFF7EA
:100F000057FD074605E082E0FFF752FDC01B0228AF
:100F10007DD830688007F7D42078400768D5DFF89F
:100F2000BCB100270BF13C0BDBF80000C0000BD478
:100F3000DBF8001041F08051CBF80010DBF8000026
:100F4000012700F080500090674E3068C00510D433
:100F5000306840F480703060FFF72AFD009005E0B3
:100F6000FFF726FD0099401A022850D83068C005C6
:100F7000F6D55A4EA0686C3601280FD00528306887
:100F800010D020F001003060306820F004003060A4
:100F9000A068B8B1FFF70CFD00900FE0306840F09A
:100FA0000100F4E740F004003060F7E7FFF700FDD0
:100FB0000099411A41F28830814266D83068800732
:100FC000F4D50EE0FFF7F4FC009007E0FFF7F0FC2B
:100FD0000099411A41F28830814256D83068800722
:100FE000F4D42FB1DBF8001021F08051CBF80010C1
:100FF000A069C8B33949091D0968C1F381010229F3
:101000004AD00228504607D0C8F8600000E03CE013
:10101000FFF7CEFC04463BE04746C8F86000FFF708
:10102000C7FC064605E000BFFFF7C2FC801B022894
:101030002BD828688001F7D4D4E907010843A16AB6
:101040002A4A490802EB0141626A41EA82110843D7
:1010500094F82C1040EA0161C9F8001001203866AC
:10106000FFF7A6FC044606E036E000BFFFF7A0FC51
:10107000001B022809D828688001F7D52CE000BFA2
:10108000FFF796FC001B022802D90320BDE8F88F69
:1010900028688001F4D41FE00128F7D0D9F80000B7
:1010A000E26900F48001914214D1226A00F03F010C
:1010B00091420FD147F6C071626A0140914209D155
:1010C000A26A00F44031914204D1E16A00F07060FC
:1010D000884201D00120D9E70020D7E70438024038
:1010E00000004742800E4742007000400000FFFFB2
:1010F0007047704710B5040003D094F83D0010B15C
:1011000007E0012010BD002084F83C00204600F0DC
:101110000CF8022084F83D00211D206800F0CAFC74
:10112000012084F83D00002010BD70470168CA68A6
:1011300042F00102CA600068816801F007010629D7
:1011400003D0016841F00101016000207047704741
:1011500070B50446006801694FF00005C94389076E
:1011600015D4C168C943890711D4E91E0161012062
:101170002077206880698007204602D0FFF7E7FFCC
:1011800004E000F098F8204600F096F825772068F3
:101190000169C943490717D4C168C943490713D432
:1011A0006FF004010161022020772068806910F44B
:1011B000407F204602D0FFF7CAFF04E000F07BF832
:1011C000204600F079F8257720680169C9430907AE
:1011D00016D4C168C943090712D46FF00801016130
:1011E000042020772068C0698007204602D0FFF7DE
:1011F000AEFF04E000F05FF8204600F05DF82577D0
:1012000020680169C943C90617D4C168C943C90622
:1012100013D46FF010010161082020772068C069A5
:1012200010F4407F204602D0FFF791FF04E000F069
:1012300042F8204600F040F8257720680169C9434C
:10124000C90708D1C168C943C90704D1891E016112
:10125000204600F033F820680169C943090609D423
:10126000C168C943090605D46FF0800101612046B9
:10127000FFF73EFF20680169C943490609D4C168E8
:10128000C943490605D46FF040010161204600F0D2
:101290001FF820680169C94389060BD4C168C94396
:1012A000890607D46FF0200101612046BDE8704037
:1012B000FFF71FBF70BD704770470000006803490B
:1012C000884201D1FFF7A4BB704700000000014035
:1012D000704710B504460068416994F83920C1F39D
:1012E000C011212A0BD151B1416921F08001416126
:1012F000206B08B1FFF7B5F8204600F09DFC206890
:10130000416994F83A20C1F38011222A0BD151B1DE
:10131000416921F040014161606B08B1FFF7A1F81C
:10132000204600F07BFC002010BD704770B50268BD
:1013300004461068D168536910F00F0F52D003F0C3
:10134000010501F490762E435FD0C20705D0CA058F
:1013500003D5E26B42F00102E263420705D5DA07EA
:1013600003D0E26B42F00202E263820705D5DA079E
:1013700003D0E26B42F00402E263020707D501F0FA
:1013800020022A4303D0E26B42F00802E263E26BE0
:10139000002A33D0800604D5880602D5204600F006
:1013A00054FC20684069E16BC0F38010090700D449
:1013B00028B3204600F032FC2068416949061AD55E
:1013C000416921F040014161606BA0B11B49016599
:1013D000606BFFF78DF8002810D0606B016DBDE8E1
:1013E00070400847830610D58B060ED52046BDE811
:1013F000704000F02ABC2046FFF797FF70BD2046E2
:10140000FFF793FF0020E06370BD030606D50B06CF
:1014100004D52046BDE8704000F0F6BC4006F3D588
:101420004806F1D5D168204621F04001D160202145
:1014300084F8391000F08CF970BD00007D1B0008A5
:1014400070B5040004D094F83900002510B106E00E
:10145000012070BD84F83850204600F023F8242085
:1014600084F839002068C16821F40051C160204629
:1014700000F036FC2068016921F490410161206888
:10148000416921F02A0141612068C16841F400519D
:10149000C160E563202084F8390084F83A00002018
:1014A00070BD00002DE9F04F87B005461421684655
:1014B000FEF732FF7748DFF8D8810221D5F800C067
:1014C000002403220723DFF8D0B18E0607154FF45E
:1014D0008039C44544D1DFF8BCC10CF1140CDCF8F0
:1014E000008048F01008CCF80080DCF800C00CF058
:1014F000100CCDF814C0D0F800C04CF0010CC0F8AE
:1015000000C0006800F00100059050028DE8130053
:1015100069465846CDE90323FFF76EF9DFF880816D
:101520005E494046C8F80010C0E90164C0E90347BD
:10153000C8F81440C8F81840C8E90749C8F824405A
:10154000FFF7B8F808B1FEF78AFFC5F8348000222B
:1015500005212520C8F83850FFF7E0FA252049E09A
:10156000DFF84081DFF82CA1C4450AF1100A46D10A
:10157000DAF8008048F40038CAF80080DAF800C0D1
:101580000CF4003CCDF814C0D0F800C04CF0010CB5
:10159000C0F800C0006800F0010005900C208DE844
:1015A000130069465846CDE90323FFF725F9DFF814
:1015B000F0803D4908F160084046C8F80010C0E9D5
:1015C0000164C0E90347C8F81440C8F81840C8E9E6
:1015D0000749C8F82440FFF76DF808B1FEF73FFF50
:1015E000C5F83480002205212620C8F83850FFF7BE
:1015F00095FA2620FFF784FA07B0BDE8F08FDFF8F0
:10160000AC80C445F8D1DAF8008048F48028CAF8E4
:101610000080DAF800C00CF4802CCDF814C0D0F8AB
:1016200000C04CF0020CC0F800C0006800F00200DE
:1016300005904FF440608DE8130069461C48CDE9E1
:101640000323FFF7D9F8DFF85880174908F1C008DD
:1016500060394046C8F80010C0E90164C0E903479A
:10166000C8F81440C8F81840C8E90749C8F8244029
:10167000FFF720F808B1FEF7F2FEC5F8348000222B
:1016800005212720C8F83850FFF748FA2720B1E78E
:101690000010014030380240000002404064024027
:1016A000A40300200044004088600240004800403D
:1016B00000040240F8B5044690F83A0020283CD1D6
:1016C000C1B3BAB394F83800012836D0012084F8A9
:1016D0003800A162A2850025E563222084F83A0043
:1016E000636B1748D863636B16481864636B1648BE
:1016F000D864606B134605650846666B2168024630
:101700003046091DFFF740F82068016841680091E4
:1017100084F83850C16841F48071C1602068416923
:1017200041F0010141612068416941F0400141619E
:101730000020F8BDFFE70120FBE70220F9E70000E9
:10174000D71B0008131C00088D1B0008704770474A
:101750007047FEE7154808B5016841F48001016053
:10176000016801F480010091016841F400110160F9
:101770000068002200F40010009005210C20FFF703
:10178000CDF90C20FFF7BCF9002205211020FFF74E
:10179000C5F91020FFF7B4F9002205213A20FFF720
:1017A000BDF9BDE808403A20FFF7AAB93038024039
:1017B00010B58EB01C220B496846FEF794FD00213F
:1017C000684600F083FD084C06491C2220601C314D
:1017D00007A8FEF788FD002107A800F077FD6060EC
:1017E0000EB010BDB0340008000000200D4808B550
:1017F000016841F080010160016801F08001009101
:10180000016841F001010160016801F001010091EE
:10181000016841F002010160006800F002000090E0
:1018200008BD000030380240094810B50749016082
:101830000321416040F6B7318160FFF7BFF800280F
:1018400003D0BDE81040FEF70ABE10BD00300040D6
:10185000D80200200C4810B50A4901604FF4E1316C
:101860004160002181600C22C160C0E904128161E5
:10187000C161FFF7E5FD002803D0BDE81040FEF789
:10188000EEBD10BD00100140E40200200C4810B570
:101890000A4901604FF4E1314160002181600C226E
:1018A000C160C0E904128161C161FFF7C9FD002870
:1018B00003D0BDE81040FEF7D2BD10BD004400408B
:1018C000240300200C4810B50A4901604FF4E131AF
:1018D0004160002181600C22C160C0E90412816175
:1018E000C161FFF7ADFD002803D0BDE81040FEF751
:1018F000B6BD10BD0048004064030020FEE70000B4
:1019000019488EB00068C16841F01001C1603122F1
:1019100016491548FFF7CEFE002232210A2001F0B9
:1019200079FA1349086034216846FEF7F5FC4FF058
:10193000FF352946684600F035F844B20DA000F0A6
:10194000FDFA0EA000F0FAFA012CF2D19DF8030086
:1019500028B10228EDD00BA000F0F0FAE9E76846C4
:1019600000F0A0FCE5E70000E4020020F4410020C4
:10197000780000206B6B6B6B6B0D0A006464640D68
:101980000A000000556E6B6E6F776E206D65737385
:101990006167650D0A000000FFF7B2FF012000F04B
:1019A00089FCFBE713B54FF47A704143B1FBF0F2C9
:1019B00003486946006801F0F3FAC0B21CBD00009C
:1019C00078000020FEE7000010B5502080F3118859
:1019D000BFF34F8FBFF36F8F01F01EFC18B10449A6
:1019E0004FF080500860002080F3118810BD000087
:1019F00004ED00E030B593B030216846FEF78CFC72
:101A000014210CA8FEF788FC1E480025016841F04F
:101A100080510160006800F0805011901A48016800
:101A200041F4804101600068022400F4804011907C
:101A3000092000904FF4803001900120CDE9050489
:101A40008005079008AA0420A82182E813000B90C3
:101A50006846FFF79FF908B172B6FEE70CA90F20A0
:101A600081E831004FF4A0500F904FF48050109057
:101A700005210CA8FFF784F8002801D072B6FEE714
:101A800013B030BD40380240007000400548016886
:101A900041F47001016003494FF000608039086033
:101AA0007047000088ED00E00148FFF751BB0000DF
:101AB000C4040020F0B50268254C264D264E274F61
:101AC000274B4FF0804CA04209D0604507D0A84278
:101AD00005D0B04203D0B84201D0984204D122F0E0
:101AE000700E4A6842EA0E02A0421BD0604519D02F
:101AF000A84217D0B04215D0B84213D0984211D0A6
:101B0000184DA8420ED0184DA8420BD0174DA84230
:101B100008D0174DA84205D0164DA84202D0164D48
:101B2000A84203D122F44075CA682A434D6922F0C5
:101B300080022A4302608A68C2620A688262A04206
:101B400001D0984201D10969016301214161F0BDD1
:101B5000000001400004004000080040000C00406C
:101B600000040140004001400044014000480140A1
:101B700000180040001C00400020004010B5806BA1
:101B80000021C185C184FFF7D0FB10BD70B5846B07
:101B90002068406994F83910C0F3C010002521294D
:101BA00004D118B1E584204600F046F82068406969
:101BB00094F83A10C0F38010222904D118B1E585B9
:101BC000204600F02BF8E06B40F01000E063204668
:101BD000FFF7ABFB70BD10B50146806B0968096863
:101BE000C90513D40021C1850168CA6822F4807236
:101BF000CA6001684A6922F001024A6101684A69C3
:101C000022F040024A61202180F83A10FFF79EFD41
:101C100010BD10B5806BFFF79AFD10BD0168CA6852
:101C200022F49072CA6001684A6922F001024A6196
:101C3000202180F83A1070470168CA6822F0C0027B
:101C4000CA60202180F83910704710B590F83A101A
:101C5000222901D0022010BD8168B1F5805F11D02A
:101C60000169002901681FD0496801F07F03816A7A
:101C70004A1C82620B70C18D491E0904090CC18582
:101C800018D02BE00269816A002A0268526805D0E8
:101C9000D2B20A80816A491C8162ECE7C2F3080271
:101CA0000A80816A891CF7E74A68816A4B1C836253
:101CB0000A70E0E70168CA6822F02002CA60016881
:101CC000CA6822F48072CA6001684A6922F001027F
:101CD0004A61202180F83A10FFF738FD002010BD3E
:101CE0002DE9F041044600680169E26821F44051A1
:101CF000114301612169A068E269084361691143E8
:101D000008432168CA6849F20C639A430243CA60D7
:101D100020684169A26921F4407111434161E06981
:101D2000192764253226B0F5004F354A3549206819
:101D30004FF0000806D0884201D0904236D1FEF71D
:101D4000E9FF35E0884201D0904202D1FEF7E2FF80
:101D500001E0FEF7CFFF61684A18A0FB070148EBDE
:101D60000803FEF78FFA0146B0FBF5F00201B1FB64
:101D7000F5F06FF01803584301EB800006EBC0004C
:101D8000B0FBF5F000F0F80002EB4002B1FBF5F01B
:101D9000584301EB800006EBC000B0FBF5F000F00B
:101DA0000700216810448860BDE8F081FEF7A2FFBB
:101DB00061688B0F8A00A0FB0701FEF763FA0146FA
:101DC000B0FBF5F06FF01802504301EB800006EB1A
:101DD0000010B0FBF5F000F0F002B1FBF5F002EB03
:101DE0000012B1FBF5F06FF01803584301EB8000CF
:101DF00006EB0010B0FBF5F000F00F00D1E700009B
:101E0000001401400010014090F83910212901D040
:101E1000022070478168B1F5805F016A0BD04A1CCF
:101E20000262026809785160C18C491E0904090CDC
:101E3000C1840ED017E009880268C1F3080151601F
:101E400001690029016A02D0491C0162ECE7891C82
:101E5000FBE70168CA6822F08002CA600068C168B6
:101E600041F04001C16000207047000010B500F053
:101E700019FDBDE810400148FFF758BAE402002000
:101E80000148FFF753BA0000240300200148FFF780
:101E90004DBA000064030020FEE700008EB034213C
:101EA0006846FEF739FA00F02FFF4FF0FF34214665
:101EB000684600F033F8012805D00028F7D105A0C6
:101EC00000F03CF8F3E79DF802000028EFD109A0EC
:101ED000F6E70000574946495F64657175657565A9
:101EE0002065727251554555455F454D5054590D09
:101EF0000A000000414444525F4D43552073656E13
:101F000064206D736720746F20776966690D0A001D
:101F1000FFF7C4FF012000F0CDF9FBE713B54FF444
:101F20007A704143B1FBF0F203486946006801F062
:101F300037F8C0B21CBD00007C0000200FB4054B78
:101F400010B503A9044A029800F028F810BC5DF807
:101F500014FB00005D220008800000200907090E24
:101F6000002804DB00F1E02080F80014704700F046
:101F70000F0000F1E02080F8141D704702E008C84F
:101F8000121F08C1002AFAD170477047002001E0F3
:101F900001C1121F002AFBD1704700002DE9FF4F3D
:101FA0008DB09B460F460446002606E025280BD040
:101FB0005A460F999047641C761C20780028F5D16A
:101FC00011B03046BDE8F08F0025A846012298499F
:101FD00000E0054314F8013F203B02FA03F00842F9
:101FE000F7D120782E2817D114F8010F45F00405F9
:101FF0002A280ED06FF02F022078A0F13001092995
:102000000AD808EB880102EB410100EB0108641CCF
:10201000F2E757F8048B641C20786C280DD004DCA0
:102020004C2812D06A2811D104E074280DD07A28E7
:102030000CD10AE045F4001507E0617845F48015FD
:10204000814202D1641C05F58015641C2078692842
:1020500044D008DC0028B3D0582867D063280FD0BC
:10206000642808D13AE0702865D0732812D075280A
:102070005AD078285AD05A460F999047761CD5E006
:1020800017F8040B8DF8000000208DF80100E946D8
:10209000012003E057F8049B4FF0FF3069074FF031
:1020A000000501D40AE06D1C45450DDA8542FADBD6
:1020B00019F805100029F6D106E06D1C8542FCDBFD
:1020C00019F805100029F8D12E4404E019F8010B85
:1020D0005A460F9990476D1EF8D2A7E00A200021BA
:1020E000CDE90801C5F3025002280CD001CFC11779
:1020F000021E71F100020CDA0023D0EB030063EB47
:1021000001012D2208E0FF1D27F00707F7E8020173
:10211000EEE72A0504D52B228DF8282001223CE089
:10212000EA073AD02022F7E70A2000E01020002139
:10213000CDE9080107E01020002145F00405CDE9B4
:1021400008014FF00808C5F30250022810D001CF53
:1021500000214FF0000A2A0720D52278702A0DD0DE
:10216000DDE908C38CF0100C5CEA030C0CD015E020
:10217000FF1D27F00707F7E80201EAE740228DF884
:1021800028204FF0010A0CE050EA010306D030236A
:102190008DF828308DF82920022292462278582A7C
:1021A00004D024A20DF120090B9209E026A2F9E740
:1021B000DDE90823FEF766F80B9B9B5C09F8013DFF
:1021C00050EA0102F4D1ADEB090020300890680715
:1021D00001D44FF001080899884503DD0898A8EB61
:1021E000000000E000208046002506E00AA85A46CC
:1021F000405D0F9990476D1C761C5545F6DB04E059
:1022000030205A460F999047761CB8F10001A8F18A
:102210000108F5DC05E019F8010B5A460F999047C3
:10222000761C0899481E08900029F4DC641CC4E65A
:10223000092801003031323334353637383961629C
:102240006364656600000000303132333435363760
:1022500038394142434445460000000002490A68BB
:102260001206FCD54860704700100140FEF7D8FB0D
:10227000FFF7C0FBFFF7BAFAFFF76CFAFFF7D4FAE3
:10228000FFF7E8FAFFF702FBFFF71CFBFFF790FAF6
:1022900000F017F8FEE701460020842900D0C81C92
:1022A0007047000001A0FFF749BE000068656C6C34
:1022B0006F0D0A0010B500B9012000F06DFC002080
:1022C00010BD10B500F0B4FC002010BD7FB50D4668
:1022D00004464169B0F9080081B1A16971B1FFF705
:1022E000DAFFD4E905128DE80700D4E900102B4687
:1022F000226900F058FF039004B070BDFFF7CBFFD8
:1023000003A9CDE90001208A2B4682B2D4E900104E
:1023100000F01CFF012801D00020EDE70398EBE757
:102320002DE9F041184C0F46054666692068001DEE
:1023300000F044FB38B9206890F82C100120884048
:10234000A1698143A161681C07D137B12168BDE84B
:10235000F0410E48091D00F075BB20683544B542B8
:102360004560216805D2A068BDE8F041091D00F074
:1023700051BB6068091D00F04DFB206B854200D207
:102380002563BDE8F081000018000020E005002072
:102390002DE9F041054600F061FB2E4C2069401C00
:1023A000206120682C4F10B1E06940B32DE025601A
:1023B0002069012829D1002606EB860007EB800062
:1023C00000F01AFB761C072EF6D323488C3000F061
:1023D00013FB2148A03000F00FFB1F48B43000F081
:1023E0000BFB1D48C83000F007FB1B48DC3000F039
:1023F00003FB19488C3060601430A06005E0206851
:10240000E96AC06A884200D82560E06A401CE06240
:10241000E96A0120A26988401043A06101EB8100B4
:1024200007EB8000291D00F00DFB00F037FBE06991
:1024300000280CD02068E96AC06A884207D20749A0
:102440004FF080500860BFF34F8FBFF36F8FBDE830
:10245000F0810000180000200405002004ED00E0D9
:1024600030B4026C0B46002A0BD0C1681144C16025
:102470008468A14201D30168C16030BC1846FDF7F1
:1024800032BF30BC70472DE9F041856B17460446DA
:102490000026026C82B1C7B1E068FDF724FFE16855
:1024A000206C091AE1602268914202D2A168081AE0
:1024B000E060022F16D017E02068A8B9A06800F0ED
:1024C0000FFF06460020A0600EE06068FDF70BFFDE
:1024D000216C606808446060A168884204D3206869
:1024E000606001E005B16D1E6D1CA5633046BDE85E
:1024F000F08110B5044690F8510058B101280CD075
:1025000002280FD0502080F31188BFF34F8FBFF304
:102510006F8FFEE7206B00F0D5FA2046BDE8104033
:1025200000F0D0BA10BD000010484FF470514207BF
:1025300006D0C01D0D4920F00700411AC1F57051A9
:102540000B4A00230144C2E900030839103A21F084
:10255000070111604B600B600B1AC0E90013936018
:102560004FF000405360D06070470000F405002039
:1025700064000020144E154CA6F1C8074FF0805897
:10258000DFF84C9012E000BF00F068FAF068C56810
:10259000281D00F013FA2069401E2061E068401EEB
:1025A000E06000F07BFA2846FFF7A3FFE068002810
:1025B000EAD138680128F9D9C9F80080BFF34F8FF4
:1025C000BFF36F8FF2E70000CC0500201800002059
:1025D00004ED00E00346009829B10260C0E90F3124
:1025E000012100F03BBC0060F8E72DE9F0479A4676
:1025F000DDE9098481466FF00303206B03EB82025F
:102600001044089E20F00707780707D0502080F379
:102610001188BFF34F8FBFF36F8FFEE7002561B1C5
:10262000002023180A5C83F834200A5C12B1401C95
:102630001028F6D384F8435001E084F83450072E74
:1026400000D30626E662C4E91165201D00F0DFF91B
:1026500004F1180000F0DBF92461C6F107006462A0
:10266000A061E56484F8505052464946384600F06F
:1026700003F92060B8F1000F01D0C8F80040BDE8B0
:10268000F087000030B5114900E011460A68824227
:10269000FBD34B685C18844203D1406818444860FF
:1026A000084643681C18944209D1084C103C246821
:1026B000A24209D052681A4442600A681268026055
:1026C000814200D0086030BD0460F9E7640000205A
:1026D00010B5044600F0C2F9A06B28B15FF0000409
:1026E00000F0DCF9204610BD0124F9E706484168F6
:1026F000096829B14168C968C968496801637047B8
:102700004FF0FF31FAE70000180000200848406849
:10271000401C4FF0500080F3118804D0BFF34F8F5E
:10272000BFF36F8FFEE7BFF34F8FBFF36F8FFEE7EF
:102730006C0000202DE9F041044600F08FF994F977
:10274000455004F1240609E0606A48B1304600F0C3
:1027500013FE08B100F04EFA6D1E6DB2002DF3DCD1
:102760004FF0FF3684F8456000F098F900F076F9F4
:1027700094F9445004F1100709E0206948B1384643
:1027800000F0FAFD08B100F035FA6D1E6DB2002DB3
:10279000F3DC84F84460BDE8F04100F07FB900004C
:1027A0002DE9F0410546002700F078FA314E3068F7
:1027B00008B9FFF7B9FEF06805424BD1C5B308353B
:1027C00068070ED005F00700C0F10800054468074F
:1027D00007D0502080F31188BFF34F8FBFF36F8F66
:1027E000FEE72DB37068854234D822481030014688
:1027F0000C6801E020460C466168A94202D22168BB
:102800000029F7D131688C4224D007682168016023
:1028100060680837411B10290FD96019420708D09A
:10282000502080F31188BFF34F8FBFF36F8FFEE707
:1028300010E041606560FFF725FF61687068401A2D
:102840007060B268904200D2B060F068014300202E
:10285000C4E9000100F0CAFD780707D0502080F3DA
:102860001188BFF34F8FBFF36F8FFEE73846BDE887
:10287000F08100005400002010B5031F4FF0807459
:102880001C601B1F21F001011960191F044B0B6014
:1028900014390A60091F6FF0020244380A6010BD43
:1028A0000D27000870B5A0B0342112A8FDF734FD43
:1028B000344800680168C943C90661D401684068AA
:1028C0001F903048FEF705FD2F48006840686E46AF
:1028D000C0F1310082B2ADF800202C49B01CFDF7E8
:1028E00002FDBDF800102AA0FFF728FB002532E00A
:1028F00071198878AA282CD1CA78332A29D18DF861
:1029000048008DF8492008798DF84A0048798DF8FB
:102910004B0088798DF84C00C8798DF84D000A7A03
:102920008C1CADF84E20E11D14A8FDF7DCFCBDF8B1
:102930004E00E41D0023005D8DF8780017481A460C
:1029400012A9006800F0CEFA012802D014A0FFF707
:10295000F5FA6D1CEDB2BDF80000A842C8D83121CF
:102960000A48FDF7D9FC342112A8FDF7D5FC48210F
:102970006846FDF7D1FC312204490248FEF79AFE71
:1029800020B070BDE4020020A4030020F441002028
:102990006C656E203D2025640D0A00007800002043
:1029A00078517565756553656E6446726F6D4953F0
:1029B00052206572726F720D0A000000D0E9013278
:1029C00001699A60D0E901235A604A68824201D1C4
:1029D00082684A60002202610868401E0860086838
:1029E00070470000034B036003F15400086080202F
:1029F000106070478400002000F108014FF0FF32A2
:102A0000C0E90112C160016100210160704700212D
:102A10000161704730B50B685A1C02D000F1080202
:102A200002E0026904E02246546825689D42FAD912
:102A300053684B6099608A60516008610168491C65
:102A4000016030BD42684A6093688B60936859604A
:102A5000916008610168491C01607047502080F353
:102A60001188BFF34F8FBFF36F8F0A494868401C2E
:102A7000486001280CD10848006810F0FF0F07D00B
:102A8000502080F31188BFF34F8FBFF36F8FFEE7A5
:102A9000704700006C00002004ED00E00849486821
:102AA00028B1401E486001D180F311887047502042
:102AB00080F31188BFF34F8FBFF36F8FFEE70000E5
:102AC0006C00002070B5002827D0144DA0F1080438
:102AD0006168E868014207D1502080F31188BFF394
:102AE0004F8FBFF36F8FFEE722683AB1502080F31B
:102AF0001188BFF34F8FBFF36F8FFEE78143616093
:102B000000F0CCF860686968084468602046FFF708
:102B1000B9FDBDE8704000F069BC70BD54000020F4
:102B20004FF0E02000210161816105494FF47A7284
:102B30000968B1FBF2F1491E41610721016170474B
:102B40001400002010B5FDF787FB114910280ED3A3
:102B500000F1E02090F8F0030A78904207D250206C
:102B600080F31188BFF34F8FBFF36F8FFEE70948E3
:102B70000068896800F4E060884207D9502080F33B
:102B80001188BFF34F8FBFF36F8FFEE710BD0000BA
:102B90006C0000200CED00E010B5020014D00F48CE
:102BA000806B38B1502080F31188BFF34F8FBFF393
:102BB0006F8FFEE700F072F800211046FFF7B0FBC0
:102BC00000F014FC002807D105494FF08050086040
:102BD000BFF34F8FBFF36F8F10BD000018000020B0
:102BE00004ED00E002498A6A026049694160704769
:102BF0001800002001490120486270471800002099
:102C000010B50C4650B1094909681831FFF702FFA9
:102C10002046BDE810400121FFF782BB502080F321
:102C20001188BFF34F8FBFF36F8FFEE718000020AE
:102C300010B586B00024039405AA04A903A804943F
:102C4000FFF7D0FEDDE903010094CDE90110002378
:102C50000EA11048059A00F0A6FA0F490028486313
:102C600011D0502080F31188BFF34F8FBFF36F8FC7
:102C70004FF0FF3008630120C8614C6106B0BDE829
:102C8000104000F04DB806B010BD000049444C455E
:102C90000000000075250008180000200248816B24
:102CA000491C816370470000180000201448816BA4
:102CB00011B1012141627047002141628169B1FA7D
:102CC00081F1C1F11F0101EB81020E4951F822305F
:102CD0006BB101EB820101F108034A6852684A6056
:102CE0009A4201D152684A60D16801607047502011
:102CF00080F31188BFF34F8FBFF36F8FFEE70000A3
:102D0000180000200405002010B5002232210A20FE
:102D100000F080F80149086010BD00007C00002030
:102D20001CB537480168374A914207D1502080F3DB
:102D30001188BFF34F8FBFF36F8FFEE700683149F3
:102D4000491E884207D1502080F31188BFF34F8F6E
:102D5000BFF36F8FFEE72C4908780190FF200870C1
:102D600008788DF800009DF800009DF8002000F024
:102D7000F000904207D0502080F31188BFF34F8FAE
:102D8000BFF36F8FFEE79DF80000204B00F050006E
:102D900018700720986005E09DF8002052008DF81B
:102DA0000020401E9DF800201206F5D498600328EC
:102DB00007D0502080F31188BFF34F8FBFF36F8F80
:102DC000FEE74FF440709860019808700C4820307E
:102DD000016841F470010160016841F070410160D7
:102DE000FFF79EFE00205860FDF7FEF908480168D5
:102DF00041F040410160FDF7E3F900201CBD0000F7
:102E000000ED00E071C20F4100E400E06C00002022
:102E100034EF00E0F8B517460E46050014D0DEB1D9
:102E200005FB06F04830FFF7BBFC04000AD0002089
:102E300084F8460004F148023B4631462846009497
:102E4000FFF7C8FB2046F8BD502080F31188BFF380
:102E50004F8FBFF36F8FFEE70020E3E770B50D469D
:102E6000040025D0FFF7FAFDD4E90F20216802FB0A
:102E70000011A1600021A163216861600A46D4E9C4
:102E80000F01401E00FB0121E16021464FF0FF30A1
:102E900001F8440F487004F110008DB1FFF7ACFD4C
:102EA00004F12400FFF7A8FDFFF7F8FD012070BD35
:102EB000502080F31188BFF34F8FBFF36F8FFEE771
:102EC00021690029F0D000F057FA0028ECD004491D
:102ED0004FF080500860BFF34F8FBFF36F8FE3E771
:102EE00004ED00E02DE9F0471F46904689460400B6
:102EF00003D0B9F1000F08D011E0502080F3118801
:102F0000BFF34F8FBFF36F8FFEE7206C38B15020B7
:102F100080F31188BFF34F8FBFF36F8FFEE7022F4F
:102F20000AD1E06B012807D0502080F31188BFF34D
:102F30004F8FBFF36F8FFEE7FFF704FE5020EFF3D4
:102F4000118680F31188BFF34F8FBFF36F8FA06B93
:102F5000E16B884206D3022F04D0002086F311884B
:102F6000BDE8F08794F945503A4649462046FFF7B8
:102F70008AFA681C04D06D1C84F845500120EDE7E6
:102F8000606A0028FAD004F1240000F0F5F9002866
:102F9000F4D0B8F1000FF1D00121C8F80010EDE72E
:102FA0002DE9F747002683B08A46040003D0BAF122
:102FB000000F08D011E0502080F31188BFF34F8F2D
:102FC000BFF36F8FFEE7206C38B1502080F311887B
:102FD000BFF34F8FBFF36F8FFEE700F00FF9DFF8FD
:102FE000F4804FF000094FF0805748B9059838B188
:102FF000502080F31188BFF34F8FBFF36F8FFEE730
:10300000FFF72CFDA56BC5B151462046FFF728FA06
:103010006D1EA563206950B104F1100000F0ACF9F9
:1030200028B1C8F80070BFF34F8FBFF36F8FFFF761
:1030300035FD012006B0BDE8F087059808B11EB146
:1030400006E0FFF72BFD27E06846FFF7CBFD0126E2
:10305000FFF724FDFFF722FEFFF700FD94F944007F
:10306000401C01D184F8449094F94500401C01D1E2
:1030700084F84590FFF712FD05A9684600F02CF88A
:10308000002820460AD0FFF755FB00F0AFF9204694
:10309000FFF71EFB0028B3D00020CBE7FFF718FB9B
:1030A00090B104F124000599FFF7AAFD2046FFF72F
:1030B00041FB00F09BF90028A2D1C8F80070BFF3D3
:1030C0004F8FBFF36F8F9BE72046FFF733FB00F076
:1030D0008DF995E704ED00E02DE9F0410C4605007F
:1030E00011D0C4B1FFF7BAFC174B5A696E6820685B
:1030F000911B471C17D02F689B6A9F4219D096429C
:1031000017D8012410E0502080F31188BFF34F8FAF
:10311000BFF36F8FFEE7502080F31188BFF34F8F0E
:10312000BFF36F8FFEE70024FFF7B8FC2046BDE831
:10313000F081884205D9401A20602846FFF752FDE9
:10314000F1E700202060DCE7180000202DE9FF5F98
:103150008346DDE90E87994616468A469000FFF7BA
:103160001FFB05001CD05420FFF71AFB040014D0ED
:103170000020256384F85100CDE90240CDE90087A5
:103180004B46324651465846FFF72FFA2046FFF786
:10319000FFF8012004B0BDE8F09F2846FFF792FC3D
:1031A0004FF0FF30F6E7F0B585B0DDE90B640A9D1E
:1031B000A6B1DCB1542700972663022684F851603B
:1031C000002604AFCDE90246CDE90057FFF70DFA1E
:1031D0002046FFF7DDF8049805B0F0BD502080F3DD
:1031E0001188BFF34F8FBFF36F8FFEE7502080F33E
:1031F0001188BFF34F8FBFF36F8FFEE70548C1699A
:1032000019B1806B18B1002070470120704702206F
:1032100070470000180000202DE9F0412E4C0027D7
:10322000A06B40B1206A401C2062606A00B1012797
:103230003846BDE8F0816669761C666113D1606826
:10324000006838B1502080F31188BFF34F8FBFF36F
:103250006F8FFEE76068A1686160A060A06A401C93
:10326000A062FFF743FA206BDFF87080864209D333
:103270006068006880B16068C068C5686868864238
:103280000DD220632068C06A00EB800158F821004D
:103290000128CAD90127C8E74FF0FF30F1E7281D00
:1032A000FFF78CFBA86A18B105F11800FFF786FB41
:1032B000E86A0121A26981401143A16100EB80010C
:1032C00008EB8100291DFFF7BDFBE86A2168C96A88
:1032D0008842CDD30127CBE7180000200405002049
:1032E00070B504004FF0000140D0214D28688442A1
:1032F00007D0502080F31188BFF34F8FBFF36F8F3B
:10330000FEE7A06C38B1401EA064636CE26A9A428A
:103310002CD040B12AE0502080F31188BFF34F8FAA
:10332000BFF36F8FFEE7201DFFF748FB114A012115
:1033300050B9E06A00EB800352F8233023B9AB693F
:1033400001FA00F08343AB61606CE062C0F10700FA
:10335000A061E06AAB6981401943A96100EB80007C
:1033600002EB8000211DFFF76DFB0121084670BDB7
:1033700018000020040500202DE9F041C068C46851
:10338000ACB104F118000746FFF718FB154DA86B08
:103390000126A0B139461448FFF754FBE06A2968BA
:1033A000C96A88421CD901206E62BDE8F0815020B4
:1033B00080F31188BFF34F8FBFF36F8FFEE7201D9F
:1033C000FFF7FCFAE16AAA6906FA01F01043A86166
:1033D00001EB81000449B43901EB8000211DDBE7DA
:1033E0000020E2E718000020B80500202DE9F04792
:1033F0002C4D00242746A86B38B1FFF72FFBA86B94
:10340000401EA863A86B40B146E0502080F31188AD
:10341000BFF34F8FBFF36F8FFEE72969224E012064
:10342000D1B3A6F1B40980463068E8B1F068C46849
:1034300004F11800FFF7C2FA201DFFF7BFFAE06A97
:10344000AA6908FA00F11143A96100EB800109EBB8
:103450008100211DFFF7F6FAE06A2968C96A8842EF
:10346000E2D3C5F82480DFE70CB1FFF73FF92C6AFF
:1034700044B14646FFF7D0FE00B16E62641EF9D13A
:1034800000202862686A38B10849012738070860B7
:10349000BFF34F8FBFF36F8FFFF700FB3846BDE8D8
:1034A000F087000018000020B805002004ED00E0BF
:1034B000083500089919000800000000000000000D
:1034C00000010000000000000000000018350008A6
:1034D000111F000800000000000000008000000034
:1034E0000000000000000000000610160006101684
:1034F00000000000000000000102030406070809A4
:1035000000000000010203044D65737361676548A4
:10351000616E646C650000005769666948616E649D
:103520006C650000443500080000002084000000A5
:103530007C1F0008C835000884000020A445000056
:103540008C1F0008000000000000000001000000C7
:1035500010000000000000000024F4000000000043
:10356000000000000000000000000000000000005B
:10357000000000000000000000000000000000004B
:10358000000000000000000000000000000000003B
:10359000000000000000000000000000000000002B
:1035A000000000000000000000000000000000001B
:1035B00000000000AAAAAAAA000000000000000063
:0835C000000000000000000003
:040000050800018965
:00000001FF
